:020000040800F2
:10000000C0060020D501000873110008A7100008E1
:10001000711100080F050008F91200080000000027
:100020000000000000000000000000007711000840
:10003000850600080000000075110008791100080D
:10004000EF010008EF010008EF010008EF010008D0
:10005000EF010008EF010008EF010008EF010008C0
:10006000EF010008EF010008EF010008EF010008B0
:10007000EF010008EF010008EF010008EF010008A0
:10008000EF010008EF010008EF010008EF01000890
:10009000EF010008EF010008EF010008EF01000880
:1000A000EF010008EF010008EF010008EF01000870
:1000B000EF010008EF010008EF010008EF01000860
:1000C000EF010008EF010008EF010008EF01000850
:1000D000EF010008EF010008EF010008EF01000840
:1000E000EF010008EF010008EF010008EF01000830
:1000F000EF010008EF010008EF010008EF01000820
:10010000EF010008EF010008EF010008EF0100080F
:10011000EF010008EF010008EF010008EF010008FF
:10012000EF010008EF010008EF010008EF010008EF
:1001300000F002F800F03FF80AA090E8000C8244BA
:100140008344AAF10107DA4501D100F034F8AFF297
:10015000090EBAE80F0013F0010F18BFFB1A43F0A5
:10016000010318479C120000BC120000103A24BF83
:1001700078C878C1FAD8520724BF30C830C144BF0C
:1001800004680C607047000000230024002500264E
:10019000103A28BF78C1FBD8520728BF30C148BFEA
:1001A0000B607047642900F07D80002070471FB508
:1001B0001FBD10B510BD00F070F91146FFF7F7FF35
:1001C00001F0C0F800F08EF903B4FFF7F2FF03BCB2
:1001D00000F096F90948804709480047FEE7FEE726
:1001E000FEE7FEE7FEE7FEE7FEE7FEE7FEE7FEE7E7
:1001F00004480549054A064B70470000DB1100081A
:1002000031010008C0000020C0060020C00200200C
:10021000C00200200FB41CB5074B06AA7B446946F8
:100220000090059800F021F90020694600F030F9AF
:100230001CBC5DF814FB0000710200002DE9F041C8
:100240000E460446002020622046E168884730B30D
:10025000252805D0D4E901219047206A401CF2E707
:10026000E168204600278847050018D0A5F1410025
:10027000192802D820354FF4006732462946204617
:100280002760FFF78FFF40B1012804D0F61D26F04C
:1002900007060836D8E7361DD6E72846DAE7206A8B
:1002A000BDE8F0812DE9F04106460024106875296B
:1002B000314616A510D0AFF30080002802DA404284
:1002C00013A507E031688A0701D512A502E04907A6
:1002D00004D511A5012401E0AFF3008000210A221A
:1002E00006F1240709E0B0FBF2FCB0FBF2F302FBDD
:1002F0001C00303078541846491C0028F3D123469E
:100300002A463046BDE8F04100F051B80000000038
:100310002D0000002B0000002000000010B5431C41
:1003200002E010F8011B71B18107FAD14FF00132E0
:1003300002C88C1A8C4314EAC211F9D0C01A0A06FA
:1003400003D0C01E10BDC01A10BD0A0401D0801E0B
:1003500010BD0902FCD0401E10BD4FF0000200B5D8
:10036000134694469646203922BFA0E80C50A0E8D8
:100370000C50B1F12001BFF4F7AF090728BFA0E886
:100380000C5048BF0CC05DF804EB890028BF40F852
:10039000042B08BF704748BF20F8022B11F0804F94
:1003A00018BF00F8012B70477047704770472DE960
:1003B000F0470D4699469246044600F1240801682C
:1003C000880604D5E06921F01001216000E00120D9
:1003D000A84201DD471B00E00027A1697A1902EB62
:1003E0000900081AA0612078C00602D42046AFF3A5
:1003F0000080002608E0D4E901211AF806009047A1
:10040000206A401C761C20624E45F4DB2078C00632
:100410000AD52046AFF3008006E0D4E90121302060
:100420009047206A401C2062381EA7F10107F4DCC7
:1004300007E0D4E9012118F805009047206A401C24
:100440002062281EA5F10105F3DC2046AFF30080F1
:100450002078000602D50220BDE8F0870120FBE7E6
:1004600001694A1C02610878704700B58FB0CDE978
:1004700001310021059105497944CDE90310114668
:100480006846FFF7DBFE0FB000BD0000E5FFFFFF91
:100490000A6802F8010B0A607047754600F02CF8F4
:1004A000AE4605006946534620F00700854618B061
:1004B00020B5FFF79DFEBDE820404FF000064FF04D
:1004C00000074FF000084FF0000B21F00701AC4689
:1004D000ACE8C009ACE8C009ACE8C009ACE8C009A8
:1004E0008D46704710B50446AFF300802046BDE846
:1004F0001040FFF769BE0000004870475C00002014
:1005000001491820ABBEFEE7260002007047FEE757
:10051000014A506011807047100000202DE9FC470F
:1005200080460020009005460190012000F09AF8D6
:100530004B4C00222188606800F0CDF9142000F0B7
:10054000B7F801222188606800F0C5F91E2000F08C
:10055000E5FE002000F086F805E0012000F0DEFE58
:100560006D1C642D7AD82188606800F0AFF90128ED
:10057000F3D0002505E0012000F0D0FE6D1C642DB5
:100580006CD82188606800F0A1F90028F3D000251C
:1005900005E0012000F0C2FE6D1C642D5ED82188AC
:1005A000606800F093F90128F3D00025E9460026A1
:1005B000002705E0012000F0B1FE7F1C642F4DD81C
:1005C0002188606800F082F90028F3D0282000F02C
:1005D000A5FE19F805004F46400009F805002188DE
:1005E000606800F073F9012803D1785D40F00100E4
:1005F0007855002705E0012000F090FE7F1C642F55
:100600002CD82188606800F061F90128F3D0761CAD
:10061000F6B2082ECCD36D1CEDB2052DC7D39DF8D4
:1006200000009DF801209DF802109DF80330841809
:10063000CD182C449DF80450AC420FD188F800002E
:1006400088F8012088F8021088F80330642805D85B
:10065000552903D80020BDE8FC87FFE70120FAE711
:10066000100000201FB5064A1188CDE900100120B6
:100670000290032003906946506800F02BF81FBDDC
:1006800010000020704700000648016841F08071AA
:100690000160054800214160016841F001010160ED
:1006A00070470000FCED00E0001000E072B6FEE7CD
:1006B00070B5044600F014F90546601C02D00448E9
:1006C0000078044400F00CF9401BA042FAD370BD3E
:1006D000000000202DE9F84FDFF8C891002409F14F
:1006E000040A0AF1040B23460F270BF1040ED1E094
:1006F0000125A54006EA0502AA4276D1DFF8A8C185
:100700004E68A6EB0C0866452BD00DDC032E34D0CA
:1007100005DC36B3012E19D0022E2FD11BE0112E8D
:1007200016D0122E2AD119E0B8F5881F19D006DC90
:10073000B8F5803F15D0B8F5801F1FD111E0B8F58E
:10074000001F0ED0B8F5041F18D10AE0CB6815E0E1
:10075000CB681B1D12E0CB6808330FE0CB680C336D
:100760000CE08B682BB1012B4FF0080303D04561DF
:1007700004E0042302E0056100E00023FF2A01D821
:10078000064601E000F104064FEA840501D9A5F10F
:100790002005D6F8008007FA05FC28EA0C0803FAC1
:1007A00005F548EA0508C6F800804D68ED0070D5EB
:1007B0003E4DAE6946F00106AE61AD6924F0030618
:1007C00005F0010500953A4D06EB050CDCF80850E4
:1007D000A607360F07FA06F825EA0805DFF8D480E1
:1007E000404503D14FF0000825E052E0DFF8C88013
:1007F000404502D14FF001081DE0DFF8C0804045C0
:1008000002D14FF0020816E0DFF8B480404502D173
:100810004FF003080FE0DFF8AC80404502D14FF005
:10082000040808E0DFF8A080404502D14FF0050839
:1008300001E04FF0060808FA06F848EA0508CCF887
:1008400008804D68D9F80060ED034D4601D5164388
:1008500000E096432E604D68DAF80060AD0355461F
:1008600001D5164300E096432E604D68DBF800602A
:10087000ED025D4601D5164300E096432E604D68BB
:10088000DEF80060AD02754601D5164300E09643E0
:100890002E60641C0A681646E2407FF429AFBDE86A
:1008A000F88F000000040140000011100010024009
:1008B0000000014000080140000C01400010014010
:1008C0000014014000180140001C014080680840ED
:1008D00000D0012070470AB1016170470904FBE7AD
:1008E00001488068704700000000002002488168CD
:1008F000027811448160704700000020074810B55D
:10090000016841F010010160032000F067F80F203A
:1009100000F006F800F024F8002010BD002002408E
:1009200070B50D4D04464FF47A712878B1FBF0F0A4
:100930000A490968B1FBF0F000F0DEFA48B9102C62
:1009400007D200222146501E00F028F800206C60DB
:1009500070BD012070BD0000000000200C000020D0
:100960000C4808B5816941F001018161816901F09C
:1009700001010091C16941F08051C161C06900F07D
:10098000805000900448416821F0E06141F000711E
:10099000416008BD0010024000000140F0B40E4B61
:1009A0001B680C46C3F30223C3F10705042D00D9CD
:1009B0000425191D072901D2002300E0DB1E0126B2
:1009C00006FA05F1491E214099409E40761E1640C8
:1009D0003143F0BC00F091BC0CED00E0064900F0A2
:1009E000070208684FF6FF03184040EA0220034A56
:1009F00010430860704700000CED00E00000FA05AD
:100A00002DE9F0470F46050061D0434E306800F0F5
:100A10000700B84209D2306820F007003843306040
:100A2000306800F00700B84251D128683B4C81077C
:100A300012D5400703D5606840F4E0606060287814
:100A4000000703D5606840F4605060606068A96882
:100A500020F0F000084360602878C00728D068685C
:100A6000012810D02168022810D0890700292EDA29
:100A7000616821F0030101436160FFF731FF8046A7
:100A800041F288390DE021688903EFE78901EDE73C
:100A9000FFF726FFA0EB0801494502D90320BDE876
:100AA000F0876068696800F00C00B0EB810FEFD14F
:100AB000306800F00700B8420BD9306820F007001A
:100AC00038433060306800F00700B84201D00120A0
:100AD000E5E72878400705D56068E96820F4E0601C
:100AE000084360602878000706D56068296920F40B
:100AF000605040EAC100606000F038F86168084A60
:100B0000C1F30311515CC8400649086006480068FB
:100B1000FFF706FF0020C2E700200240001002405D
:100B2000E81300080C0000200400002004480549D8
:100B300000684968044AC1F30221515CC84070470B
:100B40000C00002000100240F8130008044805497A
:100B500000684968044AC1F3C221515CC84070472B
:100B60000C00002000100240F813000812A185B00C
:100B70000FC98DE80F0014A0144A00680490516852
:100B8000134801F00C03042B10D0082B0ED1C1F335
:100B90008343C9031DF803000AD5516804AAC1F3B1
:100BA0004041515C0A4A5043B0FBF1F005B0704738
:100BB00008494843FAE7000002030405060708094C
:100BC0000A0B0C0D0E0F1010010200000010024065
:100BD00000127A0000093D002DE9F84F040070D0A2
:100BE0002078C04DC00749D06868C0F38100012853
:100BF00007D06868C0F38100022809D16868C00383
:100C000006D52868800339D560680028E7D035E02C
:100C10006068B0F5803F0BD010B1B0F5A02F11D0B7
:100C2000286820F480302860286820F4802002E0C2
:100C3000286840F480302860606890B1FFF750FE6B
:100C400006460AE0286840F480202860F0E700BFEC
:100C5000FFF746FE801B642873D828688003F7D509
:100C60000CE0FFF73DFE064605E000BFFFF738FE4B
:100C7000801B6428F0D828688003F7D420789A4E27
:100C800080074FF001094FF0000839D5686810F06F
:100C90000C0F07D06868C0F38100022809D168688A
:100CA000C00306D42868800714D52069012808D11C
:100CB00010E02069B0B1C6F80090FFF711FE0746BA
:100CC00005E00AE1FFF70CFEC01B0228C4D8286823
:100CD0008007F7D52868616920F0F80040EAC10074
:100CE00028600DE0C6F80080FFF7FAFD074604E033
:100CF000FFF7F6FDC01B022823D828688007F7D429
:100D0000207800072CD57948A169D9B1C0F80090A6
:100D1000FFF7E6FD074604E0FFF7E2FDC01B0228EF
:100D20000FD8686A8007F7D571484FF4FA51006808
:100D3000B0FBF1F0009000BF0098411E0091FAD284
:100D40000EE080E0C0F80080FFF7CAFD074604E02F
:100D5000FFF7C6FDC01B022875D8686A8007F7D464
:100D60002078400760D5E8690027C00008D4E8690A
:100D700040F08050E861E869012700F08050009061
:100D80005C480168C90513D40168834641F4807149
:100D90000160FFF7A5FD824606E000BFFFF7A0FD5A
:100DA000A0EB0A0064284ED8DBF80000C005F5D59A
:100DB000E06801280AD008B1052813D0286A20F07D
:100DC00001002862286A20F0040002E0286A40F04E
:100DD00001002862E06841F2883B98B1FFF780FD8E
:100DE00082460BE0286A40F004002862EEE700BF6C
:100DF000FFF776FDA0EB0A0159455AD8286A80070B
:100E0000F6D50CE0FFF76CFD824605E0FFF768FDC4
:100E1000A0EB0A0159454CD8286A8007F6D41FB1C7
:100E2000E86920F08050E861E06988B36968C1F33F
:100E30008101022944D00228C6F8608004D0FFF75F
:100E40004FFD044638E034E0FFF74AFD074604E072
:100E5000FFF746FDC01B02282BD828688001F7D475
:100E6000206AB0F5803F05D16868A16820F40030A1
:100E700008436860D4E908010843696821F47411E3
:100E800008436860C6F86090FFF72AFD044606E054
:100E900025E000BFFFF724FD001B022809D82868C1
:100EA0008001F7D51BE000BFFFF71AFD001B0228E9
:100EB00002D90320BDE8F88F28688001F4D40EE041
:100EC0000128F7D06868226A00F48031914204D189
:100ED000616A00F47010884201D00120EAE7002026
:100EE000E8E7000000100240000042428004424255
:100EF0000C0000200070004010B5401EB0F1807F53
:100F000001D3012010BD4FF0E02460610F21601774
:100F100000F0F3F90020A06107202061002010BD3F
:100F200070B5040004D094F83D00002510B106E02F
:100F3000012070BD84F83C50204600F023F82420A6
:100F400084F83D002068C16821F40051C16020464A
:100F500000F044F92068016921F4904101612068A2
:100F6000416921F02A0141612068C16841F40051C2
:100F7000C1602564202084F83D0084F83E000020F4
:100F800070BD000030B585B0002400940194029437
:100F9000039400681449884224D11448816941F4BB
:100FA00080418161816901F480410491816941F04E
:100FB0000401816180690E4D00F0040004904FF43B
:100FC000007000900220019003200390694628469B
:100FD000FFF780FB2815CDE90004694628460294F6
:100FE000FFF778FB05B030BD00380140001002402B
:100FF000000801402DE9F843044690F83D001F46E3
:1010000016460D4620284CD1C5B1BEB194F83C001F
:10101000012846D0012084F83C004FF00008C4F8B5
:101020004080212084F83D00FFF75AFCA6848146C9
:10103000E684A068B0F5805F03D004E00120BDE83D
:10104000F883206928B12E465FF0000584F83C80C3
:101050000EE00026FAE78021204600F01BF9A0B937
:10106000AEB116F8010B21684860E08C401EE084A8
:10107000E08C4B464FF0000200970028EBD14FF078
:101080004001204600F006F930B10320D7E735F8DB
:10109000020BC0F30800E6E7202084F83D000020A2
:1010A000CDE70220CBE7FEE72DE9F04186B0002036
:1010B00000900190029003901C48816941F040012A
:1010C0008161816901F040010491816941F0100161
:1010D0008161816901F010010491816941F004018D
:1010E00081618069124F00F0040004900122082100
:1010F0003846FFF7F0FBDFF83C8001220221404632
:10110000FFF7E9FB08201124012503268DE8710073
:1011100069463846FFF7DEFA02208DE8710069461D
:101120004046FFF7D7FA06B0BDE8F0810010024054
:1011300000180140001001400C4810B50A49016038
:101140004FF4E1314160002181600C22C160C0E9AF
:1011500004128161C161FFF7E3FE002803D0BDE8FE
:101160001040FFF7A3BA10BD00380140180000205E
:10117000FEE7FEE770477047FFF7B8BB30B58FB0AA
:1011800028216846FFF7E9F814210AA8FFF7E5F8D7
:1011900001210804CDE900100024029402250491E5
:1011A000CDE907504FF4E01009906846FFF714FDB1
:1011B00008B172B6FEE70F20CDE90A054FF4806052
:1011C000CDE90C4002210AA80E94FFF719FC002873
:1011D00001D072B6FEE70FB030BD704770B504465F
:1011E00000680169E26821F44051114301612169FD
:1011F000A0680843616908432168CA6841F20C632A
:101200009A430243CA6020684169A26921F440718F
:10121000114341611E492068884202D1FFF796FCC4
:1012200001E0FFF783FC00EBC00101EB00126068F6
:1012300064218000B2FBF0F3B3FBF1F36FF018060A
:101240007343B2FBF0F5B2FBF0F605EB83053223F6
:1012500003EB0515B5FBF1F5B6FBF1F605F0F0056E
:1012600005EB0615B2FBF0F6B2FBF0F0B0FBF1F0C7
:101270006FF01802504306EB800003EB0010B0FB48
:10128000F1F0216800F00F002844886070BD000074
:10129000003801402DE9F041984617460E460446B5
:1012A000069D1DE0681C1BD02DB1FFF719FBA0EBBC
:1012B0000800A84214D92068C16821F4D071C16027
:1012C0002068416921F001014161202084F83D003E
:1012D00084F83E00002084F83C000320BDE8F08143
:1012E0002068006836EA000004D00020B842D9D057
:1012F0000020F3E70120F9E7FEE70907090E0028BF
:1013000004DB00F1E02080F80014704700F00F00CB
:1013100000F1E02080F8141D704700000649074ADC
:101320000968B1FBF2F1064A4143506853681B1A41
:101330008B42FBD3704700000C00002040420F009E
:10134000001000E090B0FFF7D9FAFFF717FFFFF7A2
:101350009BF9FFF7A9FEFFF7EFFE08211348FFF7FF
:10136000D7F84FF4FA640FA8FFF7D8F848B1642310
:101370000D220FA11248FFF73DFE2046FFF798F916
:10138000F1E79DF83F109DF83E00CDE900019DF882
:101390003D309DF83C200BA102A8FEF73BFF02A8C0
:1013A000FEF7BCFF82B2642302A9E3E70018014004
:1013B00052656164204572726F72210D0A0000004F
:1013C0001800002048756D69646974793A202564B5
:1013D0002E256425252C2054656D703A2025642E19
:1013E0002564430D0A00000000000000000000001A
:1013F00001020304060708090000000001020304BB
:101400002014000800000020180000006C010008F3
:101410003814000818000020A80600008801000801
:101420000100000010000000000000000024F40093
:081430000000000000000000B4
:0400000508000131BD
:00000001FF
