:020000040800F2
:1000000020080020F10100089F370008D72F0008C2
:100010009D370008CD1400086D3B0008000000006B
:10002000000000000000000000000000A3370008EE
:100030004516000800000000A1370008A537000899
:100040000B0200080B0200080B0200080B0200085C
:100050000B0200080B0200080B0200080B0200084C
:100060000B0200080B0200080B0200080B0200083C
:100070000B0200080B0200080B0200080B0200082C
:100080000B0200080B0200080B0200080B0200081C
:100090000B0200080B0200080B0200080B0200080C
:1000A0000B0200080B0200080B0200080B020008FC
:1000B0000B0200080B0200080B0200080B020008EC
:1000C0000B0200080B0200080B0200080B020008DC
:1000D0000B0200080B0200080B0200080B020008CC
:1000E0000B0200080B0200080B0200080B020008BC
:1000F0000B0200080B0200080B0200080B020008AC
:100100000B0200080B0200080B0200080B0200089B
:100110000B0200080B0200080B0200080B0200088B
:100120000B0200080B0200080B0200080B0200087B
:1001300000F002F800F04DF80AA090E8000C8244AC
:100140008344AAF10107DA4501D100F042F8AFF289
:10015000090EBAE80F0013F0010F18BFFB1A43F0A5
:10016000010318474461000064610000103A24BF95
:1001700078C878C1FAD8520724BF30C830C144BF0C
:1001800004680C607047000000230024002500264E
:10019000103A28BF78C1FBD8520728BF30C148BFEA
:1001A0000B607047662905F00E87642900F05C80BB
:1001B000752900F05980002070471FB500F0DAFB68
:1001C00004000020002104F05DFEE0601FBD10B5BA
:1001D00010BD00F0D3FC1146FFF7EFFF03F09EFFC8
:1001E00000F0F1FC03B4FFF7F2FF03BC00F034FDB4
:1001F0000948804709480047FEE7FEE7FEE7FEE7BB
:10020000FEE7FEE7FEE7FEE7FEE7FEE704480549F6
:10021000054A064B704700002338000831010008EA
:1002200020020020200800202004002020040020BC
:100230000FB47CB50C0009AA009001D02044401EE8
:10024000084B7B4469460190089800F072FB054614
:100250001CB10020694600F07FFB28467CBC5DF89D
:1002600014FB00001D0700002DE9F04106460024A4
:1002700010687529314616A510D0AFF3008000280C
:1002800002DA404213A507E031688A0701D512A5BA
:1002900002E0490704D511A5012401E0AFF3008075
:1002A00000210A2206F1240709E0B0FBF2FCB0FBB2
:1002B000F2F302FB1C00303078541846491C002829
:1002C000F3D123462A463046BDE8F04100F0C4B8D9
:1002D000000000002D0000002B00000020000000A6
:1002E0002DE9F0474FF0000A89460446C0F820A0E7
:1002F0002046E1688847002876D0252806D0D4E932
:1003000001219047206A401C2062F1E7E168204605
:1003100000258847C4F81CA006460027C4F818A08A
:100320002A2E09D0304603F0BDFC38B304EB870811
:10033000303EC8F8186019E059F8041B204604EB59
:1003400087029161E1688847012F064618D1E0696C
:10035000002820DA25F020051DE0D8F8180000EB71
:10036000800006EB40003038C8F818002046E168ED
:100370008847064603F096FC0028EED1012F0AD0EC
:100380002E2E08D12046E16888477F1C0646022FA2
:1003900045F02005C4DBA069002803DA404245F09F
:1003A0000105A061E80701D025F01005B6B1A6F15E
:1003B0004100192802D8203645F400654A463146E6
:1003C000204625604D46FFF7EDFE58B1012806D0C6
:1003D000ED1D25F0070000F1080989E704E005F1AB
:1003E000040985E730468AE7206ABDE8F0874FF0C8
:1003F000000200B5134694469646203922BFA0E875
:100400000C50A0E80C50B1F12001BFF4F7AF090780
:1004100028BFA0E80C5048BF0CC05DF804EB890071
:1004200028BF40F8042B08BF704748BF20F8022BB4
:1004300011F0804F18BF00F8012B704770477047CC
:10044000704710B500F09AFA006810BD10B5044668
:1004500000F094FA046010BD2DE9F0470D4699466E
:100460009246044600F124080168880604D5E06934
:1004700021F01001216000E00120A84201DD471BAE
:1004800000E00027A1697A1902EB0900081AA061AF
:100490002078C00602D42046AFF30080002608E092
:1004A000D4E901211AF806009047206A401C761C06
:1004B00020624E45F4DB2078C0060AD52046AFF313
:1004C000008006E0D4E9012130209047206A401CDA
:1004D0002062381EA7F10107F4DC07E0D4E901210E
:1004E00018F805009047206A401C2062281EA5F1DC
:1004F0000105F3DC2046AFF300802078000602D52A
:100500000220BDE8F0870120FBE770472DE9FF4F8F
:100510000C461E464FF0FF378BB0D2E90001DDF8E4
:1005200060800A908A46C1F30A5505B93D4600210C
:1005300008464FF00000BAF1000F00F4400005DA61
:1005400000EB80004FF4400101EA50004FEA90595F
:10055000B9F1010F00DDB9460A9850EA4A000ED001
:1005600044F61050A5F2FF3545432F14B8F1000FA3
:100570001ED07542291E1EDDC9F100021CE0B8F133
:10058000010F4FF0000001D0302103E0F24305E0FD
:100590002154401CB042FBDB304600220021215494
:1005A0000B99C1F80880C1E900200FB0BDE8F08FB9
:1005B000BD1B6D1CDEE74A4600DA694206A800F062
:1005C00067FA06AB93E8070003AB83E807005046E1
:1005D0000A9900F048FB8DE80700A0F500501F388D
:1005E00000900398002D0ADD42F21F014A4608449C
:1005F000002303A90390684600F0B1FD09E0A0F5CF
:1006000000504A461F38002303A90390684600F0B3
:10061000BBFD8DE807000004000C03D04FF0FF3055
:10062000410800E01046B8F1000F03D0002200920C
:1006300015461EE0751E05D400F0A4F9303262554F
:100640006D1EF9D5B3460122084302D000227F1C5B
:1006500004E02078302801D100227F1E002A09976B
:1006600084D01DE0112D07DA00F08CF9303262558C
:100670006D1C50EA0102F5D1084302D00098C8B1C0
:100680000EE00021681E05E0235C625C6354225486
:10069000401E491C8142F7DBAB46A81B401E099057
:1006A000002004F80B000B98099AC0F80880C0E9F4
:1006B000002B7AE711264FF0000857E72DE9F04F9D
:1006C00088460446D21D22F0070191B0D1E900010D
:1006D000CDE90A0103F04BFA02460B98C00F01D096
:1006E0002D2007E02068810701D52B2002E0202182
:1006F00001EAC000032A099001D0072A05DB03465E
:100700004146204600F084F90BE12078800601D5AF
:10071000E06900E00620B8F1650F814606D0B8F127
:10072000660F18D0B8F1670F70D131E00020B9F131
:10073000110F009001DB112301E009F101030AAA66
:1007400001A90CA8FFF7E2FEDDE90C70002609F113
:100750000105834647E001204B4600904FF00047DB
:100760000AAA01A90CA8FFF7D1FEDDE90DB00C998A
:100770005D46002610B909F101000D18B9EB05001E
:1007800003D4C0F1FF3609F10105A5EB09002BE008
:10079000B9F1010F01DA4FF001090020B9F1110F91
:1007A0000090484601DD112300E003460AAA01A992
:1007B0000CA8FFF7ABFEDDE90C704D460026834622
:1007C000207800070AD4AB4500DA5D4601A8012D68
:1007D00004DD411911F8011C302907D04F4502DA18
:1007E00017F1040F04DA012082460FE06D1EEEE7D8
:1007F000002F02DCED1B3E4403E0781CA84200DD24
:100800007D1CB81B00F1010A4FF00047207800075B
:1008100003D4AA4501DB4FF0FF3A0021B7F1004FA6
:100820000DF143088DF8431024D002202B23002F14
:1008300001DA7F422D230A21021EA0F1010000DC13
:100840005FB197FBF1FC97FBF1F201FB1C7C1746B3
:100850000CF1300C08F801CDEEE7A8F101000370AF
:100860002188090501D5452100E06521A0F1010895
:1008700000F8011C09980FA9A1EB0807FF1D00B1A2
:100880000120411901EBEA70A1693844081A401EA1
:10089000A0612078C00602D42046AFF300800998FA
:1008A00028B1D4E901219047206A401C20622078B9
:1008B000C00622D52046AFF300801EE0002E04DBE8
:1008C000B34502DD01A8805D00E03020D4E90121BC
:1008D0009047206A401C2062761CAAF101005FEA62
:1008E000000A0AD100F046F8C0680168405CD4E90B
:1008F00001219047206A401C2062281EA5F10105B5
:10090000DCDC07E0D4E9012118F8010B9047206AEC
:10091000401C2062381EA7F10107F3DC2046AFF32C
:100920000080032011B041E601694A1C0261087889
:10093000704700B58FB0CDE901310021059105491F
:100940007944CDE9031011466846FFF7C9FC0FB0A2
:1009500000BD0000E5FFFFFF0A6802F8010B0A6016
:100960007047D1E900239A4202D2531C0B601070E9
:100970007047000000487047E001002000487047C1
:10098000C001002030B5B0F10A024FEA900E71F1BB
:1009900000034EEA817EB0EB0E0061EB91014FEA5D
:1009A000101E4EEA017E10EB0E0041EB11114FEAD2
:1009B000102E4EEA016E10EB0E0041EB11214FEAB2
:1009C000104E4EEA014E10EB0E0041EB1141401863
:1009D00041F100014FEAD00040EA41704FEAD101F5
:1009E00010EB80054FEA810444EA907444EB010463
:1009F0006D1944EB0404521BA3414FF0000348BFA0
:100A00000A3200D530BD401C41F1000130BD00006C
:100A10002DE9F0411F46044603260168072A01F428
:100A2000006004DB08B116A505E016A503E008B1D7
:100A300015A500E015A521F010002060A069C01EDA
:100A4000A0610FB1401EA0612046AFF300804FB1FE
:100A5000D4E9012138469047206A401C2062C01C1E
:100A6000206206E0206AFAE7D4E9012115F8010BBB
:100A70009047761EF8D22046AFF30080BDE8F081A3
:100A80004E414E006E616E00494E4600696E660032
:100A90002DE9F047814616468AB0354878440DC89E
:100AA0008DE80D0032487844801C03AC0DC884E802
:100AB0000D0041F69B300844372190FBF1F290FB8A
:100AC000F1F5A5F1800501FB12041B3C02D564423F
:100AD000012000E00020DFF898A080460027FA44BB
:100AE000AAF1BE0A0EE0E0070AD03246684607EBDC
:100AF000470101230AEB810100F046FB8DE8070066
:100B000064107F1C002CEED1194F7F44AE3F19E0DA
:100B1000E80715D007EB04100DF1180A90E80E0055
:100B20008AE80E00C068F04201D198190890324658
:100B3000012306A903A800F027FB03AB83E8070005
:100B40006D10641C002DE3D14FF00103324669465D
:100B5000B8F1000F03A802D000F001FB01E000F0A3
:100B600013FBC9E90001C9F808200AB0BDE8F08705
:100B70007C57000000487047C00100207546FFF711
:100B8000F9FFAE4605006946534620F0070085464A
:100B900018B020B5FFF73AFBBDE820404FF0000643
:100BA0004FF000074FF000084FF0000B21F0070155
:100BB000AC46ACE8C009ACE8C009ACE8C009ACE898
:100BC000C0098D46704710B50446AFF3008020463B
:100BD000BDE81040FFF706BB4FF0013C50F8042B76
:100BE00051F8043B9A4221D1A2EB0C03934313EA40
:100BF000CC1317D150F8042B51F8043B9A4215D16D
:100C0000A2EB0C03934313EACC130BD150F8042B43
:100C100051F8043B9A4209D1A2EB0C03934313EA27
:100C2000CC13DBD04FF00000704700BFD01A01BAE0
:100C3000B1FA81F101F0180122FA01F0CB40C1F1C3
:100C40002001DBB2C0B2C01A2CFA01F3D11A9143D1
:100C500011EAC311E6D1704701491820ABBEFEE787
:100C60002600020070475FEA400C08BF91F0000FB9
:100C70004FEA8C234FEAC12243EA51514FEA1C50FC
:100C800018BF00F5F0404FEA300018BF41F00041B6
:100C90005FEA6C5C00F02980BCF1FF3F08BF40F0C8
:100CA00080407047130C06BF12044FF0100C4FF039
:100CB000000C130E04BF12020CF1080C130F04BF3A
:100CC00012010CF1040C930F04BF92000CF1020C02
:100CD000D30F04BF52000CF1010C11464FF000027B
:100CE000A0F11F00A0EB0C00704711F0004F08BFEF
:100CF000704731F000413FF4D5AF0B0C06BF09043B
:100D00004FF0100C4FF0000C0B0E04BF09020CF159
:100D1000080C0B0F04BF09010CF1040C8B0F04BF6E
:100D200089000CF1020CCB0F04BF49000CF1010C3F
:100D3000CCF12003A0EB0C0022FA03F302FA0CF230
:100D400041EA030100F10100704720F07F4C80EA86
:100D5000030023F07F47ACEB070303F57C5300F05F
:100D6000004003F1FF032DE980494FEA154B09B418
:100D70004FEA144325EA0B4E24EA03480FF20426F7
:100D800006EB132749083E785FEA320203FB066749
:100D9000C7F5000707FB06F64FEA54374FEAD64679
:100DA00006F1020607FB066CCCF1005C4FEA1C471B
:100DB0002CEA074C07FB06F40CFB06F504EB154682
:100DC0004FEA961634BF00204FF000404FEAD1376B
:100DD00006FB07FC4FEA1C4C0CFB0BF7D21B03FB7A
:100DE0000CF761EB07010CFB0EF7B0EB074072EB61
:100DF00017420CFB08F734BFA2EB0742B2EB0742E5
:100E000061EB17414FEA0C444FEA910706FB07FCE0
:100E10004FEA1C4C0CFB0BF7B0EBC74072EB5732A0
:100E200003FB0CF734BFA2EBC742B2EBC74261EB46
:100E300057310CFB0EF7B0EBC70072EB57720CFB8F
:100E400008F734BFA2EBC702B2EBC70261EB5771E0
:100E5000039F4FEA816141EA921104EBCC044FEA0F
:100E6000D1374FEA826206FB07FC42EA90124FEA52
:100E700080604FEA1C4C0CFB0BF7D21B03FB0CF7FA
:100E800061EB07010CFB0EF7B0EB074072EB17426A
:100E90000CFB08F734BFA2EB0742B2EB074261EB51
:100EA00017414FEA8C554FEA910704EB9C2406FB4F
:100EB00007FC4FEA1C4C0CFB0BF7B0EBC74072EB86
:100EC000573203FB0CF734BFA2EBC742B2EBC74269
:100ED00061EB57310CFB0EF7B0EBC70072EB5772AA
:100EE0000CFB08F734BFA2EBC702B2EBC70261EB01
:100EF000577115EB4C254FEA816141EA92114FEA97
:100F000082624FEAD13742EA901206FB07FC44F1B5
:100F100000044FEA80604FEA1C4C0CFB0BF7D21B1D
:100F200003FB0CF761EB07010CFB0EF7B0EB07407E
:100F300072EB17420CFB08F734BFA2EB0742B2EB8F
:100F4000074261EB174115EB1C154FEA813141EA6D
:100F500092414FEA823242EA90424FEA80304FEAB1
:100F60000C7644F1000448EA03434EEA0B484FF084
:100F7000000EB2EB080C71EB030724BF6246394642
:100F80004EEB0E0E4FF0000B0018524149414BEB57
:100F90000B0BB2EB080C71EB03077BF1000B24BFCA
:100FA000624639464EEB0E0E4FF0000B00185241D0
:100FB00049414BEB0B0BB2EB080C71EB03077BF1D8
:100FC000000B24BF624639464EEB0E0E51EA020773
:100FD00018BF46F0010616EB0E7655F1000254F1EB
:100FE000000103D5BDE88901BDE80088BDE889019D
:100FF000BDE80048B619524141EB0101A3F10103DC
:10100000704780807F7E7D7C7B7A79787776767575
:101010007473727171706F6E6E6D6C6C6B6A6A69ED
:101020006868676666656464636362616160605F87
:101030005F5E5E5D5D5C5C5B5B5A5A595958585700
:101040005756565555555454535352525251515068
:1010500050504F4F4F4E4E4D4D4D4C4C4C4B4B4BBB
:101060004A4A4A4949494848484747474746464601
:10107000454545444444444343434342424242413C
:101080004141002B9C4630D477002BD01CB54FEA51
:10109000370703B44FF010004FF01001BAF1000F02
:1010A00006D0BCF1000FDCBF40F0080040F00801A2
:1010B0004FF000000FBCBDE810400BF1010BBBF17D
:1010C000010F08BF5FEA170722BF12F1010211F1F9
:1010D00001014FF0004143F1000300F0004043EAFA
:1010E00000007047F9D35708D0E746EA064613F1E7
:1010F000400F4FEA16461FDD13F1200FDFBF1643E6
:101100000A46002120335B42BED0C3F1200746EAE5
:10111000064602FA07F74FEA164646EA0706C3F103
:10112000200722FA03F201FA07F721FA03F14FF040
:10113000000342EA0702A7E746EA020646EA064635
:101140004FEA164646EA0106BCBF46EA0646360C9A
:101150004FF000034FF000024FF0000194E72DE93B
:10116000804C9A46934670B491E8380007C831EA3B
:10117000400C48BF34EA430C03D5FFF7E6FDFFF708
:1011800080FFF0BCBDE8008C2DE9804C9A46934668
:1011900070B491E8380007C810F0804F08BF13F012
:1011A000804F03D100F005F8FFF76BFFF0BCBDE8FE
:1011B000008C20F07F4780EA030023F07F4C07EB90
:1011C0000C03A3F57C5300F00040A3F1FE0392F062
:1011D000000F00F0B38095F0000F00F077802DE94C
:1011E00001494FEA11404FEA144621EA004800FB4A
:1011F00006FC24EA064708FB06F607FB08F800FB96
:1012000007F718EB06484CEB164C4FEA124B18EB5D
:1012100007484FEA15464CEB174022EA0B4E0BFBF2
:1012200006FC25EA06470EFB06F607FB0EFE0BFB47
:1012300007F71EEB064E4CEB164C4FF000061EEB6C
:10124000074E4CEB174B18EB0B0840F1000018EB66
:101250000E0B58EB000840F100008F1A4FF0000110
:101260003CBFC943661B14BFB5EB040C00213CBF57
:10127000C943F61B4FEA17444EEA8E0E27EA04458F
:101280004FEA1C4704FB07622CEA074C05FB07F7F3
:101290000CFB05F604FB0CFC16EB074642EB174271
:1012A00016EB0C4642EB1C421BEB060658EB020207
:1012B000414146EA9E0601D5BDE80189B619524171
:1012C00041EB0101A3F10103BDE801894FEA144597
:1012D0004FEA114724EA054621EA074C05FB07F4CB
:1012E00006FB07F70CFB06F105FB0CFC11EB0741B5
:1012F00044EB17444FEA124711EB0C4144EB1C44FA
:1013000022EA074C05FB07F206FB07F70CFB06F683
:1013100005FB0CFC16EB074642EB174216EB0C469E
:1013200042EB1C456A1854F1000148BF7047B619DA
:10133000524141EB0101A3F10103704795F0000F09
:1013400037D04FEA11424FEA144721EA024624EA15
:10135000074C02FB07F106FB07F70CFB06F402FB48
:101360000CFC14EB074441EB17414FEA154714EB13
:101370000C4441EB1C4125EA074C02FB07F506FB38
:1013800007F70CFB06F602FB0CFC16EB074645EBD9
:10139000174516EB0C4645EB1C42121951F10001A2
:1013A00048BF7047B619524141EB0101A3F1010357
:1013B00070474FEA14454FEA114724EA054621EAEF
:1013C000074C05FB07F106FB07F70CFB06F24FF095
:1013D000000605FB0CFC12EB074241EB174112EB38
:1013E0000C4251EB1C4148BF7047921841EB010180
:1013F000A3F101037047000070B5044600688168DE
:10140000C943C90717D1816821F00101816000F04B
:10141000EDFC05460AE000BF00F0E8FC401B022896
:1014200004D920688068C043C00706D0206880685F
:10143000C043C007F0D0002070BDA06A40F010008B
:10144000A062E06A40F00100E062012070BD00008F
:10145000F8B500260446009600688168C943C907AC
:101460002DD0816841F0010181601648164900685D
:10147000B0FBF1F000E0401E00900028FBD100F02E
:10148000B5FC054616E000BF00F0B0FC401B02288A
:1014900010D920688068C043C0070BD0A06A40F014
:1014A0001000A062E06A40F00100E06284F824606D
:1014B0000120F8BD20688068C043C007E4D1002047
:1014C000F8BD00001000002040420F00FEE70000C1
:1014D000014A5060118070471C0000202DE9FC4734
:1014E00080460020009005460190012000F09AF807
:1014F0004B4C00222188606800F073FC142000F03F
:101500005DFB01222188606800F06BFC1E2002F068
:10151000D1FB002000F086F805E0012002F0CAFBB4
:101520006D1C642D7AD82188606800F055FC012874
:10153000F3D0002505E0012002F0BCFB6D1C642DFA
:101540006CD82188606800F047FC0028F3D00025A3
:1015500005E0012002F0AEFB6D1C642D5ED82188F1
:10156000606800F039FC0128F3D00025E946002628
:10157000002705E0012002F09DFB7F1C642F4DD861
:101580002188606800F028FC0028F3D0282002F0B1
:1015900091FB19F805004F46400009F80500218825
:1015A000606800F019FC012803D1785D40F001006B
:1015B0007855002705E0012002F07CFB7F1C642F9A
:1015C0002CD82188606800F007FC0128F3D0761C35
:1015D000F6B2082ECCD36D1CEDB2052DC7D39DF805
:1015E00000009DF801209DF802109DF8033084183A
:1015F000CD182C449DF80450AC420FD188F800005F
:1016000088F8012088F8021088F80330642805D88B
:10161000552903D80020BDE8FC87FFE70120FAE741
:101620001C0000201FB5064A1188CDE900100120DA
:101630000290032003906946506800F0D1FA1FBD64
:101640001C000020704700000648016841F08071CE
:101650000160054800214160016841F0010101601D
:1016600070470000FCED00E0001000E072B6FEE7FD
:10167000034A106008465160002101F069BB000078
:101680002400002010B51A4C2020616809684863C6
:1016900018481949194A0068B0FBF1F04FF48C71F1
:1016A0004843516853685B1A8342FBD3206800F0BB
:1016B00025FA6421206800F083F9206800F0A8F87A
:1016C00004F02CFB0E4904F03DFB0E4904F064FAD3
:1016D000B0F17C5F01DA002010BD0B4904F032FB51
:1016E0000A4904F0FBFBBDE81040094904F02ABB9D
:1016F000240000201000002040420F00001000E0F5
:101700003333534000F07F457B142E3E7B14AE3DB7
:1017100000007A44F8B50024009490F8242025466F
:10172000012A12D0012280F824204A681F23072AA8
:101730000DD20668776B521E02EB820293409F43E4
:101740000B6893401F43776319E00220F8BD0668D9
:101750000D2A0AD2376BD21F02EB820293409F43BD
:101760000B6893401F43376309E0F76A0D3A02EBB9
:10177000820293409F430B6893401F43F7620A68BD
:10178000072306680A2A0AD3F7680A3A02EB4202DC
:1017900093409F438B6893401F43F76008E037698D
:1017A00002EB420293409F438B6893401F43376193
:1017B0000A68102A01D0112A20D1124B02689A42DD
:1017C00017D193681B0219D4936843F40003936004
:1017D0000968102912D10C490C4A0968B1FBF2F1D1
:1017E00001EB8101490000E0491E00910029FBD175
:1017F00004E0816A41F020018162012480F82450D4
:101800002046F8BD002401401000002040420F0097
:101810000068C06C704700002DE9F04104004FF0F3
:1018200000057FD0A06A002628B9E66284F824600B
:10183000204600F081F82046FFF7DEFDA16AC906C8
:1018400000D420B1A06A40F01000A0626AE0A16A52
:1018500021F4885141F00201A162334923688B428F
:10186000E16904D1B1F5402F01D14FF40021277B6C
:101870004FF4807C41EA470261680A43A1686145F0
:1018800008D0012906D0002194F814E0BEF1010F20
:1018900002D00AE06146F7E7C7B1A76A47F0200720
:1018A000A762E76A47F00107E7625F6827F46947C4
:1018B0000F435F60236899681C4F3940114399605A
:1018C000A16861450BD0012909D00CE0DFF860E088
:1018D000A7690EEB47370F4347F40061E5E7218A1C
:1018E0000D05A5F580152168CB6A23F470032B4301
:1018F000CB62216889680F4B1940914208D1E6629A
:10190000A16A21F0020141F00101A162BDE8F0816C
:10191000A06A20F0020040F01000A062E06A40F0EF
:101920000100E0620120F1E7003C0140FDF7E1FF2A
:1019300000E0FFFFFE0E1FFF10B586B000210091F2
:101940000191029103911A4C03681A4903221A4823
:10195000A34211D18B6943F400738B618B6903F44B
:10196000007304938B6943F010038B61896901F064
:1019700010010491012113E0104CA34215D18B6991
:1019800043F480638B618B6903F4806304938B69F8
:1019900043F010038B61896901F010010491042167
:1019A000CDE90012694600F01BF906B010BD000039
:1019B00000240140001002400010014000280140B6
:1019C0002DE9F84300270D460446009700F00EFA73
:1019D000804620688168C90508D5A06A40F02000CB
:1019E000A06284F824700120BDE8F8834168C9052D
:1019F00003D4C06A10F4700F2AD0022000F032FD28
:101A00003B490968B1FBF0F62068036939490B428C
:101A10004FEA61014FEAA1121FD1C3684FEA611C6E
:101A200013EA0C0F19D103690B4225D1C06810428B
:101A300022D1142023E0681C0AD02DB100F0D6F981
:101A4000A0EB0800A84203D920680068800725D5CC
:101A5000206800688007EED52DE003690B4202D1B3
:101A6000C168114206D0026923490A4206D1C06802
:101A7000084203D1542002E0292000E0FC20464324
:101A8000009816E0681C11D02DB100F0AFF9A0EB62
:101A90000800A8420AD90098B04207D2A06A40F0D4
:101AA0000400A06284F8247003209DE70098401C85
:101AB0000090B042E6D321686FF012000860A06A7F
:101AC00040F40070A06220688068C0F3424007289C
:101AD0000CD1207B50B9A06A20F48070A062A06A6B
:101AE000C00403D4A06A40F00100A06200207BE79C
:101AF00010000020244992244992240070B5044625
:101B000090F8240001280DD0012084F824002046FC
:101B1000FFF79EFC02004FF0000005D084F824007F
:101B2000104670BD022070BDA16A40F201239943A6
:101B300041F48071A1621F4D23681F49AB4218D147
:101B40000E6816F4702F14D0A66A46F48016A662AA
:101B50000E68760505D5A66A26F4005646F480562A
:101B6000A662A66AF6040AD5E66A26F00606E662CA
:101B700006E0A66A26F48016A6625E68E9E7E062DF
:101B800084F824006FF00200186020688368C3F3B3
:101B90004243072B05D1A84208D1096811F4702FE0
:101BA00004D0816841F480118160B9E7816841F413
:101BB000A001F9E7002801400424014070B5044663
:101BC00000F014F90546601C02D004480078044473
:101BD00000F00CF9401BA042FAD370BD04000020B5
:101BE0002DE9F84FDFF8C891002409F1040A0AF141
:101BF000040B23460F270BF1040ED1E00125A5406D
:101C000006EA0502AA4276D1DFF8A8C14E68A6EB23
:101C10000C0866452BD00DDC032E34D005DC36B322
:101C2000012E19D0022E2FD11BE0112E16D0122E0C
:101C30002AD119E0B8F5881F19D006DCB8F5803F25
:101C400015D0B8F5801F1FD111E0B8F5001F0ED0D8
:101C5000B8F5041F18D10AE0CB6815E0CB681B1D4E
:101C600012E0CB6808330FE0CB680C330CE08B68D4
:101C70002BB1012B4FF0080303D0456104E004238E
:101C800002E0056100E00023FF2A01D8064601E0DA
:101C900000F104064FEA840501D9A5F12005D6F824
:101CA000008007FA05FC28EA0C0803FA05F548EA63
:101CB0000508C6F800804D68ED0070D53E4DAE6950
:101CC00046F00106AE61AD6924F0030605F001059A
:101CD00000953A4D06EB050CDCF80850A607360FC8
:101CE00007FA06F825EA0805DFF8D480404503D155
:101CF0004FF0000825E052E0DFF8C880404502D1EF
:101D00004FF001081DE0DFF8C080404502D14FF0E0
:101D1000020816E0DFF8B480404502D14FF0030816
:101D20000FE0DFF8AC80404502D14FF0040808E036
:101D3000DFF8A080404502D14FF0050801E04FF0E8
:101D4000060808FA06F848EA0508CCF808804D6845
:101D5000D9F80060ED034D4601D5164300E09643E7
:101D60002E604D68DAF80060AD03554601D5164384
:101D700000E096432E604D68DBF80060ED025D46A2
:101D800001D5164300E096432E604D68DEF80060F2
:101D9000AD02754601D5164300E096432E60641CE3
:101DA0000A681646E2407FF429AFBDE8F88F0000CC
:101DB000000401400000111000100240000001402A
:101DC00000080140000C01400010014000140140D7
:101DD00000180140001C01408068084000D001202C
:101DE00070470AB1016170470904FBE70148806848
:101DF000704700000400002070B5040025D094F85E
:101E00003D00002520B984F83C50204600F070FACF
:101E1000242084F83D002068016821F00101016060
:101E20002068016841F4004101602068016821F4E4
:101E30000041016000F08CFC4D4A6168914201D87C
:101E40004C4900E04C49884201D2012070BD4B4909
:101E50002368B0FBF1F15E6826F03F060E435E603A
:101E60006368934206D94FF4967359434FF47A73DB
:101E7000B1FBF3F12368491C1E6A26F03F0631438B
:101E800019626168914210D84900401EB0FBF1F21E
:101E9000521CC2F30B02042A01D2042022E0B0FB40
:101EA000F1F0401CC0F30B001CE0A268F2B301EBA0
:101EB000C10303EB0116431EB3FBF6F35B1C43F4B3
:101EC00080431B0549D092B301EBC10202EB011123
:101ED000401EB0FBF1F0401CC0F30B0040F480400A
:101EE00040F400402168CA694CF6FF739A431043DE
:101EF000C861D4E9071001432068026822F0C002DB
:101F000011430160D4E9030101432068826848F26B
:101F1000FF339A4311438160D4E9050108432168E6
:101F2000CA6822F0FF021043C86001E00EE016E02C
:101F30002068016841F0010101602564202084F8D7
:101F40003D00256384F83E50002070BD01EB410642
:101F5000431EB3FBF6F35B1CB3E70120C2E701EBC2
:101F60004101401EB0FBF1F0401CC0F30B00B7E78D
:101F7000A086010080841E0000093D0040420F0041
:101F80002DE9F84F0025DDF82890984617468A4637
:101F900004460095FFF72AFF064694F83D002028E6
:101FA0007AD11923012283492046009601F016F9BF
:101FB0000028F5D194F83C0001286DD0012084F868
:101FC0003C0020680168C90703D1016841F00101A4
:101FD00001602068016821F400610160222084F81A
:101FE0003D00102084F83E0025646762A4F82A8032
:101FF000608D20857048E06233464A46514620464F
:1020000001F002F800287DD1208DDFF8B081202773
:1020100068B1012814D00228206801681ED041F45C
:10202000806101602068416980690090B5E02068A6
:10203000416981690091016841F400710160ACE07F
:102040002068016821F48061016072B620684169EE
:1020500081690091016841F400710AE041F4006176
:10206000016072B62068416981690091016821F4BC
:102070008061016062B690E0032868D801280CD026
:1020800002284B464FF000024146204600960FD0F2
:1020900001F0A4F8B0BB10E08AE032464946204681
:1020A00001F01BF970BB20680069616A08706BE081
:1020B00001F094F830BB72B634E02068016821F476
:1020C0008061016072B620680069616A0870606AA8
:1020D000401C6062208D401E2085608D401E608502
:1020E000374846F2A8110068B0FBF1F0C0EBC00021
:1020F00000EB80000090401E009008D020684069EE
:10210000C04300E029E040070CD50098F3E744F80D
:10211000305F6773A573206940F02000206162B6CC
:1021200025731AE02068016841F40071016020689D
:102130000069616A0870606A401C6062218D491EF6
:102140002185618D491E618562B621681AE032469B
:102150004946204601F0C1F810B10120BDE8F88FD2
:1021600020680069616A0870606A401C6062218DA5
:10217000491E2185618D491E618521684A69D243C6
:1021800052070AD409690170606A401C6062208DA0
:10219000401E2085608D401E6085208D00287FF4C4
:1021A0006BAF84F83D7084F83E5084F83C50D5E71E
:1021B0000220D3E7020010000000FFFF040001002E
:1021C000100000202DE9F84F1F4690468A4604462D
:1021D000DDF82890FFF70AFE054694F83D00202818
:1021E0007FD11923012240492046009500F0F6FFD7
:1021F000002876D194F83C00012872D0012084F8A0
:102200003C0020680168C90703D1016841F0010161
:1022100001602068016821F400610160212084F8D8
:102220003D00102084F83E0000262664C4F8248077
:102230006785608D20852D48E0622B464A465146D1
:10224000204600F057FF90B92068416980690090EE
:1022500036E02A464946204601F072F850B1206C1B
:10226000042804D12068016841F400710160012054
:10227000BDE8F88F606A216800780861606A401CD8
:102280006062618D491E6185218D491E89B221855B
:1022900022685369DB435B070BD451B100781061AE
:1022A000606A401C6062608D401E6085208D401E0B
:1022B00020852A464946204600F06AFF0028CED1F4
:1022C000208D0028C5D154F83D0B016841F4007100
:1022D0000160202004F81E09E67766770020C7E732
:1022E000FFE70220C4E70000020010000000FFFF2B
:1022F00010B586B000210091019102910391006810
:10230000104988421BD1104CA06940F00800A06120
:10231000A069694600F0080004904FF44060009006
:1023200012200190032003900848FFF759FCE06950
:1023300040F48000E061E06900F48000049006B0A1
:1023400010BD00000058004000100240000C014089
:1023500002488168027811448160704704000020BF
:10236000074810B5016841F010010160032000F03A
:1023700067F80F2000F006F800F024F8002010BDE8
:102380000020024070B50D4D04464FF47A71287854
:10239000B1FBF0F00A490968B1FBF0F000F0BEFBB8
:1023A00048B9102C07D200222146501E00F028F810
:1023B00000206C6070BD012070BD00000400002092
:1023C000100000200C4808B5816941F001018161CD
:1023D000816901F001010091C16941F08051C16141
:1023E000C06900F0805000900448416821F0E0612D
:1023F00041F00071416008BD001002400000014042
:10240000F0B40E4B1B680C46C3F30223C3F107055F
:10241000042D00D90425191D072901D2002300E04D
:10242000DB1E012606FA05F1491E214099409E4017
:10243000761E16403143F0BC01F0ADBB0CED00E060
:10244000064900F0070208684FF6FF03184040EA0B
:102450000220034A10430860704700000CED00E0C2
:102460000000FA0510B52CA401461DCC86B08DE8FD
:102470001D002DA02D4C00680490002004292FD0B1
:102480000BDC01292FD0022928D100F071F96168F5
:10249000C1F38131491C49001EE0082920D01029D0
:1024A0001CD161682268D20118D5C1F38342C903E7
:1024B0001DF8020009D5616804AAC1F34041515CCE
:1024C0001B4AB2FBF1F1484301E01A4948436168F5
:1024D000490203D440000321B0FBF1F006B010BD67
:1024E00000F056F9FAE7226AC2F30121012903D16B
:1024F000920701D5C803F1E7022905D1626A920764
:1025000002D549F64040E9E70329E7D1216889036C
:10251000E4D54FF22440E1E7020304050607080969
:102520000A0B0C0D0E0F10100102000000100240EB
:1025300000127A0000093D002DE9F84305460078B5
:10254000354CC00754D0E0690026C00008D4E069CB
:1025500040F08050E061E069012600F0805000907A
:102560002E480168C90512D40168804641F4807183
:102570000160FFF73BFC074605E000BFFFF736FCB4
:10258000C01B642823D8D8F80000C005F6D5206AFF
:1025900010F4407021D0A98801F4407181421CD010
:1025A000206A1F49012220F440700A6000220A605C
:1025B0002062C00711D0FFF719FC074641F28838A6
:1025C00008E000BFFFF712FCC11B414502D9032000
:1025D000BDE8F883206A8007F4D5206A696820F492
:1025E0004070084320621EB1E06920F08050E06135
:1025F0002878800705D56068A96820F44040084322
:1026000060602878C00605D56068696920F480009C
:10261000084360600020DBE70010024000700040CB
:10262000400442422DE9F0470F46050061D0434E79
:10263000306800F00700B84209D2306820F0070087
:1026400038433060306800F00700B84251D1286844
:102650003B4C810712D5400703D5606840F4E06029
:1026600060602878000703D5606840F460506060BF
:102670006068A96820F0F000084360602878C0070F
:1026800028D06868012810D02168022810D0890756
:1026900000292EDA616821F0030101436160FFF730
:1026A000A5FB804641F288390DE021688903EFE7F8
:1026B0008901EDE7FFF79AFBA0EB0801494502D934
:1026C0000320BDE8F0876068696800F00C00B0EB9B
:1026D000810FEFD1306800F00700B8420BD93068A5
:1026E00020F0070038433060306800F00700B8423F
:1026F00001D00120E5E72878400705D56068E96842
:1027000020F4E060084360602878000706D5606820
:10271000296920F4605040EAC100606000F038F898
:102720006168084AC1F30311515CC840064908605A
:1027300006480068FFF726FE0020C2E7002002409E
:1027400000100240BA6000081000002008000020BD
:102750000448054900684968044AC1F30221515CF4
:10276000C84070471000002000100240CA600008F6
:102770000448054900684968044AC1F3C221515C14
:10278000C84070471000002000100240CA600008D6
:1027900012A185B00FC98DE80F0014A0144A00687B
:1027A00004905168134801F00C03042B10D0082B3F
:1027B0000ED1C1F38343C9031DF803000AD5516844
:1027C00004AAC1F34041515C0A4A5043B0FBF1F006
:1027D00005B0704708494843FAE7000002030405C2
:1027E000060708090A0B0C0D0E0F1010010200005D
:1027F0000010024000127A0000093D002DE9F84F58
:10280000040070D02078C04DC00749D06868C0F37C
:102810008100012807D06868C0F38100022809D12F
:102820006868C00306D52868800339D56068002829
:10283000E7D035E06068B0F5803F0BD010B1B0F55F
:10284000A02F11D0286820F480302860286820F458
:10285000802002E0286840F480302860606890B1F1
:10286000FFF7C4FA06460AE0286840F48020286092
:10287000F0E700BFFFF7BAFA801B642873D8286816
:102880008003F7D50CE0FFF7B1FA064605E000BF7C
:10289000FFF7ACFA801B6428F0D828688003F7D4CF
:1028A00020789A4E80074FF001094FF0000839D583
:1028B000686810F00C0F07D06868C0F38100022828
:1028C00009D16868C00306D42868800714D5206938
:1028D000012808D110E02069B0B1C6F80090FFF7D8
:1028E00085FA074605E00AE1FFF780FAC01B0228D7
:1028F000C4D828688007F7D52868616920F0F800F7
:1029000040EAC10028600DE0C6F80080FFF76EFACB
:10291000074604E0FFF76AFAC01B022823D828689C
:102920008007F7D4207800072CD57948A169D9B160
:10293000C0F80090FFF75AFA074604E0FFF756FA8E
:10294000C01B02280FD8686A8007F7D571484FF47A
:10295000FA510068B0FBF1F0009000BF0098411EF2
:102960000091FAD20EE080E0C0F80080FFF73EFA56
:10297000074604E0FFF73AFAC01B022875D8686AD8
:102980008007F7D42078400760D5E8690027C000A9
:1029900008D4E86940F08050E861E869012700F058
:1029A000805000905C480168C90513D401688346D3
:1029B00041F480710160FFF719FA824606E000BF1A
:1029C000FFF714FAA0EB0A0064284ED8DBF80000E9
:1029D000C005F5D5E06801280AD008B1052813D054
:1029E000286A20F001002862286A20F0040002E032
:1029F000286A40F001002862E06841F2883B98B103
:102A0000FFF7F4F982460BE0286A40F004002862E0
:102A1000EEE700BFFFF7EAF9A0EB0A0159455AD8E3
:102A2000286A8007F6D50CE0FFF7E0F9824605E05A
:102A3000FFF7DCF9A0EB0A0159454CD8286A80075A
:102A4000F6D41FB1E86920F08050E861E06988B3EE
:102A50006968C1F38101022944D00228C6F8608068
:102A600004D0FFF7C3F9044638E034E0FFF7BEF9BD
:102A7000074604E0FFF7BAF9C01B02282BD82868E4
:102A80008001F7D4206AB0F5803F05D16868A1685D
:102A900020F4003008436860D4E9080108436968FD
:102AA00021F4741108436860C6F86090FFF79EF93E
:102AB000044606E025E000BFFFF798F9001B022856
:102AC00009D828688001F7D51BE000BFFFF78EF911
:102AD000001B022802D90320BDE8F88F2868800176
:102AE000F4D40EE00128F7D06868226A00F480313F
:102AF000914204D1616A00F47010884201D0012033
:102B0000EAE70020E8E7000000100240000042422F
:102B100080044242100000200070004010B5401EAA
:102B2000B0F1807F01D3012010BD4FF0E02460613F
:102B30000F21601701F02FF80020A061072020610D
:102B4000002010BD70B590F83C20012A2CD0012443
:102B500080F83C40022280F83D2003685A689D6856
:102B600022F070060A6832435A60104B02689A429B
:102B70000ED00F4B9A420BD0B2F1804F08D00D4BC4
:102B80009A4205D00C4B9A4202D00C4B9A4204D187
:102B9000496825F080031943916080F83D40002189
:102BA00080F83C10084670BD022070BD002C01402A
:102BB000003401400004004000080040000C0040C8
:102BC00000B585B000210091019102910391006848
:102BD0000A49884210D10A48816941F0080181619F
:102BE0008069694600F0080004900220009001907E
:102BF00003900448FEF7F4FF05B000BD0004004058
:102C000000100240000C014070B5044690F83C00F2
:102C10000D4601280AD0012084F83C0042B1042A64
:102C200018D0082A2AD00C2A4DD139E0022070BDD4
:102C3000206800F04BFE2068816941F00801816145
:102C40002068816921F004018161206881692A6915
:102C5000114311E0206800F069FE2068816941F4A9
:102C6000006181612068816921F48061816120684F
:102C700081692A6941EA0221816124E0206800F02B
:102C80008BFE2068C16941F00801C1612068C169FB
:102C900021F00401C1612068C1692A69114311E072
:102CA000206800F0ADFE2068C16941F40061C16197
:102CB0002068C16921F48061C1612068C1692A6905
:102CC00041EA0221C161002084F83C0070BD10B5CA
:102CD000040003D094F83D0010B107E0012010BDBE
:102CE000002084F83C00204600F01EF8022084F802
:102CF0003D00211D206800F095FD012084F846006C
:102D000084F83E0084F83F0084F8400084F84100D5
:102D100084F8420084F8430084F8440084F84500B5
:102D200084F83D00002010BD08B5006806498842BF
:102D300008D10648C16941F00201C161C06900F0D3
:102D40000200009008BD0000000400400010024096
:102D500010B50446022249B104290ED0082913D027
:102D600094F84100012816D0012010BD94F83E00CF
:102D70000128F9D184F83E200FE094F83F000128A3
:102D8000F2D184F83F2008E094F840000128EBD10C
:102D900084F8402001E084F841200122206800F0FE
:102DA00087FD13492068134A884201D0904203D11D
:102DB000436C43F400434364206888420DD0904242
:102DC0000BD0B0F1804F08D00B49884205D00B4999
:102DD000884202D00A49884204D1816801F0070183
:102DE000062903D0016841F001010160002010BDF7
:102DF000002C014000340140000400400008004065
:102E0000000C004070B5040004D094F83D0000258B
:102E100010B106E0012070BD84F83C50204600F05F
:102E200023F8242084F83D002068C16821F4005173
:102E3000C160204600F00CFE2068016921F4904139
:102E400001612068416921F02A0141612068C1685F
:102E500041F40051C1602564202084F83D0084F8CD
:102E60003E00002070BD000070B586B000240094C4
:102E700001940294039403682648254E0515022107
:102E80000322B3421ED1C36943F40023C361C36963
:102E900003F400230493836943F010038361806982
:102EA000CDE9005100F01000CDE903201A4D69462C
:102EB0002846FEF795FEE814CDE900046946284649
:102EC000029420E0154EB3421FD1836943F480433E
:102ED0008361836903F480430493836943F00403AB
:102EE00083618069039200F0040004907015CDE9BD
:102EF00000010B4E69463046FEF772FECDE90054E4
:102F0000694630460294FEF76BFE06B070BD0000C5
:102F1000004C004000100240001001400038014009
:102F2000000801402DE9F843044690F83D001F4693
:102F300016460D4620284CD1C5B1BEB194F83C00D0
:102F4000012846D0012084F83C004FF00008C4F866
:102F50004080212084F83D00FEF748FFA68481468A
:102F6000E684A068B0F5805F03D004E00120BDE8EE
:102F7000F883206928B12E465FF0000584F83C8074
:102F80000EE00026FAE78021204600F0BDFDA0B942
:102F9000AEB116F8010B21684860E08C401EE08459
:102FA000E08C4B464FF0000200970028EBD14FF029
:102FB0004001204600F0A8FD30B10320D7E735F8E6
:102FC000020BC0F30800E6E7202084F83D00002053
:102FD000CDE70220CBE7FEE701684A69D2435205FC
:102FE0000FD46FF480624A61002140F8301F202224
:102FF00042738173026942F004020261017301208D
:1030000070470020704700002DE9F84F0446C06A61
:103010001E4693460D4621680A6842F480620A60A3
:10302000082807D0012805D010F5803F02D0206B7A
:10303000112804D12068016841F4807101604FF0CB
:1030400001195B46002249462046009600F0C6F86A
:103050004FF4007840B120680068C00501D5C4F87D
:1030600040800320BDE8F88F2069DFF884A0B0F528
:10307000804F0FD00620216800EAD51747F0F000F6
:10308000086133465A460AF10601204600F0DAF894
:1030900058BB03E0E8B240F001001CE02168E8B250
:1030A000086133465A465146204600F0CBF8E0B955
:1030B0002068416981690091016841F48071016073
:1030C0005B46002249462046009600F087F800281B
:1030D000C1D147F0F1002168086133465A46514694
:1030E000204600F0AFF80028BCD00120BAE700006D
:1030F00002000100F8B50446C06A1E460D46174698
:10310000082807D0012805D010F5803F02D0206B99
:10311000122804D12068016841F4807101601346CF
:1031200000224FF001112046009600F057F840B100
:1031300020680068C00502D54FF4007020640320A9
:10314000F8BD2069B0F5804F0ED00620216800EA56
:10315000D51040F0F000086133463A460B4920464E
:1031600000F070F878B902E005F0FE0000E0E8B287
:1031700021680861054933463A46891F204600F018
:1031800061F80028DCD00120F8BD00000800010033
:1031900070B516460D4604460DE02046FFF71CFFAD
:1031A00008B1012070BD681C05D0FEF71FFE801B12
:1031B000A84207D835B120684069C0434007ECD425
:1031C000002070BD002044F8300F20216173A073EF
:1031D000216941F0200121612073E2E72DE9F047E8
:1031E0001E4690460D460446C1F30747DDF8209081
:1031F00008E0701C06D0FEF7F9FDA0EB0900B04214
:103200000FD876B12068012F18D0806925EA000018
:103210000004000C14D000214145EAD00020BDE894
:10322000F087002044F8300F20216173A0732169DA
:1032300041F02001216120730120F0E74069E5E7BA
:103240000121E9E72DE9F0479A4691460E460446EA
:1032500000254FF02008C1F3074725E020684069AA
:10326000C043400514D42068016841F40071016036
:1032700021686FF480604861256384F83D8084F89C
:103280003E50206C40F00400206484F83C501FE065
:10329000B9F1FF3F08D0FEF7A9FDA0EB0A014945AF
:1032A0000CD8B9F1000F09D02068012F13D0806924
:1032B00026EA00000004000C0BD0CFE744F8305F92
:1032C00084F80D80A573206940F0200020612573EB
:1032D0000120BDE8F0874069EAE72DE9F0410025CB
:1032E00090460E460446202717E04069C043C006BA
:1032F0000CD454F8301B6FF01000486144F810599A
:103300006777A577206A2062257717E0FEF76EFDC4
:10331000A0EB0800B04208D83EB120684169C9431B
:103320004906E2D40020BDE8F08144F8305F6773BD
:10333000A573206940F02000206125730120F2E789
:1033400070B516460D4604460DE02046FFF744FED4
:1033500008B1012070BD681C05D0FEF747FD801B39
:10336000A84207D835B120684069C0430006ECD4B4
:10337000002070BD002044F8300F20216173A0733D
:10338000216941F0200121612073E2E770B5214CF1
:10339000207BA8B3012832D1FEF728FD2168401A0E
:1033A00041F2707188422AD301F0B6FC02F0B6FCFB
:1033B000A16802F08FFBA060A088401CA080FEF7EF
:1033C00015FD2060A088322819D31349A06802F0A7
:1033D000E3FB124E314602F0B5FC114902F0DCFB72
:1033E00005460146304602F079FD0E4902F0AAFC7E
:1033F000294602F0D1FB0C4948600220207370BDC1
:10340000FFE7FEF7F3FC20600020A080A060012011
:10341000F4E70000B001002000004842333353407D
:1034200000F07F4500002041140000200148007B8F
:1034300070470000B00100203220704704484FF46C
:1034400096718088A0EB800001EB400080B270474D
:10345000B00100200148808870470000B0010020C2
:1034600002490860024900200873704714000020D8
:10347000B001002070B51C48007B022801D01B4819
:1034800070BD01F049FC02F049FC194D294602F0DB
:1034900059FC184902F080FB04460146284602F018
:1034A0001DFD154902F04EFC214602F075FB134943
:1034B000496802F071FB02F0E1FA00F0BDFD4FF047
:1034C00060420F4B02F0F0F94FF080420D4B01F0DB
:1034D000DDFD02460B4600200B4900F031FFBDE840
:1034E000704001F0E5BC0000B0010020000080BF8A
:1034F0003333534000F07F4500002041140000208A
:1035000051B8DE3FE17AD4BF000024403EB500212F
:103510001148009101910F4A02910260816001738C
:10352000017501244FF460220461C2614160FEF71D
:1035300073F908B1FEF79AF80A20CDE900040720D4
:10354000029069460448FEF7E5F8002801D0FEF72E
:103550008DF83EBD002401402C0000203EB5002423
:1035600011480094019402940E4984600160047330
:103570000475012505614FF460214460C161FEF7C7
:103580004BF908B1FEF772F80C20CDE90005694649
:1035900002940548FEF7BEF8002801D0FEF766F851
:1035A0003EBD0000002801405C0000202DE9F047EE
:1035B00086B000252D4800950195029503958169F7
:1035C00041F040018161816901F04001049181690C
:1035D00041F010018161816901F01001049181695C
:1035E00041F008018161816901F00801049181695C
:1035F00041F00401816180691D4F00F004000490D6
:10360000012208213846FEF7ECFBDFF868A0012212
:1036100002215046FEF7E5FB002208215046FEF746
:10362000E0FB08264FF003094FF011080124CDF804
:103630000C900096CDE9018469463846FEF7D0FA31
:103640000227CDF80C900097CDE9018469465046D9
:10365000FEF7C6FA01AA009682E8B0006946504615
:10366000FEF7BEFA06B0BDE8F08700000010024089
:1036700000180140001001400D4810B50B490160D1
:103680000C49416000214FF480428160C0E903127F
:1036900041618161C1610162FEF7AEFB002803D088
:1036A000BDE81040FDF7E2BF10BD0000005800402B
:1036B0008C000020A086010010B58AB00024079479
:1036C0001C2168460894FCF792FE174815490160D2
:1036D0004721C0E9011440F2E731C0E903148461D5
:1036E000FFF7F5FA08B1FDF7C1FF079407A90E48E7
:1036F0000894FFF727FA08B1FDF7B8FF60200090A3
:103700002020CDE901040C22694607480494FFF704
:103710007BFA08B1FDF7AAFF0348FFF751FA0AB098
:1037200010BD000000040040E00000200C4810B56F
:103730000A4901604FF4E1314160002181600C22AF
:10374000C160C0E904128161C161FFF75BFB002821
:1037500003D0BDE81040FDF789BF10BD004C00400C
:10376000280100200C4810B50A4901604FF4E131EE
:103770004160002181600C22C160C0E904128161B6
:10378000C161FFF73FFB002803D0BDE81040FDF703
:103790006DBF10BD003801406C010020FEE7FEE760
:1037A00070477047FEF7D4BD30B595B02821684604
:1037B000FCF71DFE14210AA8FCF719FE18210FA81A
:1037C000FCF715FE01210804CDE900100025029543
:1037D00002240491CDE907404FF4E01009906846B7
:1037E000FFF70CF808B172B6FEE70AA90F2081E8CE
:1037F00031004FF48060CDE90D0502210AA8FEF7E3
:1038000011FF08B172B6FEE74FF4004011900F941B
:103810000FA8FEF791FE002801D072B6FEE715B0A2
:1038200030BD7047F0B502681C4B1D4D1D4E1E4F3C
:103830001E4C4FF0804C984209D0A04207D0604502
:1038400005D0A84203D0B04201D0B84204D122F042
:10385000700E4A6842EA0E02984209D0A04207D090
:10386000604505D0A84203D0B04201D0B84203D190
:1038700022F44075CA682A434D6922F080022A4327
:1038800002608A68C2620A688262984201D0A042DD
:1038900001D10969016301214161F0BD002C0140A2
:1038A0000004004000080040000C004000340140CB
:1038B00010B501F01F030121046A99408C43046292
:1038C000016A9A401143016210BD0000F0B5026A1E
:1038D00022F001020262036A42688469124E24F0F7
:1038E00073050C682C4323F002058B682B430D4DA8
:1038F000A84201D0B04205D123F00807CB683B4372
:1039000023F00403A84201D0B04205D14D6922F44E
:10391000407215438A692A43426084614968416361
:103920000362F0BD002C014000340140F0B5026A92
:1039300022F010020262026A436884690D6824F46E
:10394000E64444EA05248D6822F0200242EA05128A
:103950000F4D104EA84201D0B04206D1CF6822F0E0
:10396000800242EA071222F04002A84201D0B0428F
:1039700007D14D6923F4406343EA85038D6943EA27
:10398000850343608461496881630262F0BD000081
:10399000002C014000340140F0B5026A22F480722C
:1039A0000262026A4368C46922F4007224F073055B
:1039B0000C68124E2C438D6842EA05220E4DA84237
:1039C00001D0B04206D1CF6822F4006242EA072259
:1039D00022F48062A84201D0B04207D14D6923F49D
:1039E000405343EA05138D6943EA05134360C461FC
:1039F0004968C1630262F0BD002C014000340140FF
:103A000030B5026A22F480520262046A4268C369D5
:103A10000D6823F4E64343EA05238D6824F400543B
:103A200044EA0534084DA84202D0084DA84204D10A
:103A30004D6922F4804242EA85124260C3614968BE
:103A40000164046230BD0000002C014000340140DC
:103A500070B5044600680169E26821F440511143E1
:103A600001612169A0680843616908432168CA6847
:103A700041F20C639A430243CA6020684169A2691B
:103A800021F44071114341611E492068884202D1EE
:103A9000FEF76EFE01E0FEF75BFE00EBC00101EBFE
:103AA0000012606864218000B2FBF0F3B3FBF1F315
:103AB0006FF018067343B2FBF0F5B2FBF0F605EBBE
:103AC0008305322303EB0515B5FBF1F5B6FBF1F6E3
:103AD00005F0F00505EB0615B2FBF0F6B2FBF0F0D1
:103AE000B0FBF1F06FF01802504306EB800003EBDF
:103AF0000010B0FBF1F0216800F00F00284488604E
:103B000070BD0000003801402DE9F041984617468D
:103B10000E460446069D1DE0681C1BD02DB1FEF725
:103B200065F9A0EB0800A84214D92068C16821F407
:103B3000D071C1602068416921F0010141612020FC
:103B400084F83D0084F83E00002084F83C00032007
:103B5000BDE8F0812068006836EA000004D000204B
:103B6000B842D9D00020F3E70120F9E7FEE7490089
:103B700050EAC12018BF04204A0D18BF40F00100D0
:103B800040F2FF72B2EB515F08BF40F00200012823
:103B900008BF052070470907090E002804DB00F163
:103BA000E02080F80014704700F00F0000F1E020E2
:103BB00080F8141D70472DE9F0414F1E00EBC7013E
:103BC0000446D1E9000115461E4637F006020DD025
:103BD0002A46334601F042FC7F1E04EBC703D3E9BB
:103BE000002301F097F937F00602F1D1022F25D01A
:103BF000042F13D0062F18BFBDE8F0812A463346A4
:103C000001F02CFCD4E90A2301F084F92A4633465A
:103C100001F024FCD4E9082301F07CF92A4633465C
:103C200001F01CFCD4E9062301F074F92A4633465E
:103C300001F014FCD4E9042301F06CF92A46334660
:103C400001F00CFCD4E9022301F064F92A46334662
:103C500001F004FCD4E90023BDE8F04101F05AB9B9
:103C6000002213461046014901F010BA0000F03F4F
:103C7000012202F0DCB901F04DB9002213461046D2
:103C8000114601F003BA40F2013200204FF0E0414A
:103C900002F0CDB9024A0020110702F0C8B90000B5
:103CA00001FDFFFF30380A2801D2012070470020B3
:103CB000704700000649074A0968B1FBF2F1064A5D
:103CC0004143506853681B1A8B42FBD37047000076
:103CD0001000002040420F00001000E02DE9F04DE0
:103CE000C84A002490B0914205DA21F00043934283
:103CF00001D805D120B110B0BDE8F04DFFF7B8BF35
:103D0000B1F5801F1BDA53EA000209D0002911DA4D
:103D10000120FCF79BFB10B0BDE8F04DFFF7ADBFF5
:103D20000220FCF793FBFFF79BFF10B081F00041EE
:103D3000BDE8F08D6FF03504362202F078F904EB1F
:103D40002152C1F31308B049A2F2FF33414401F4F8
:103D5000801282F07F6103EB225281F04051009289
:103D600041EA08010022A94B01F09EFD044608F13A
:103D70000200A74EC0F313000D467E44032867D20D
:103D8000D6E90023204601F0D9FA1ED10098002878
:103D900002BFD6E9000110B0BDE8F08D01F00AFBCA
:103DA00007460C469B4A9C4B01F058FB06460D46C5
:103DB0009A4A9B4B3846214601F050FB10B03246E0
:103DC0002B46BDE8F04D01F0A5B84FF05532954BAC
:103DD0002046294601F042FB0022934B01F072FC81
:103DE00006460F4622462B461046194601F036FB82
:103DF00032463B4601F032FB064600980F46F0B1D2
:103E000001F0D8FA80468A46824A834B01F026FBAD
:103E100032463B4601F056FC22462B4601F044FD5B
:103E200005460C467D4A7E4B4046514601F016FB46
:103E300010B02A462346BDE8F04D01F035BD0B46D3
:103E400010B0324620462946BDE8F04D01F02CBDA9
:103E500000224FF08043204601F05CF802460B46FA
:103E60002046294601F012F906460F46009801F057
:103E7000A1FACDE9040132463B461046394601F02D
:103E8000EDFA0C9069480C9A4044019009910B4658
:103E9000104601F0E3FA8246024665488B46C8F1B7
:103EA00051080B4608F5D72803217844FFF783FE15
:103EB00052465B4601F0D2FA0A905E480D91524696
:103EC0005B4604217844FFF776FE099B0C9A01F0CB
:103ED000C5FA844601980D9B40EA080860460A9A94
:103EE00001F018F883460891B8F1000F4EDD4FF04D
:103EF000FF322046294602F09AF822462B4601F06E
:103F0000ADFA804600988A4660B3DDE90401414A73
:103F1000414B01F0A3FA099100905A4640465146A0
:103F2000089B00F0F7FF32463B4601F097FA099BE9
:103F3000009A00F0EFFF4246534601F0C3FB2246D1
:103F40002B4601F0B1FC04460D46DDE90401334A7D
:103F5000334B01F083FA10B022462B46BDE8F04DFA
:103F600001F0A2BC5A464046089B00F0D3FF3246FF
:103F70003B4601F073FA4246534601F0A3FB10B0F2
:103F800022462B46BDE8F04D01F09CBB009840B3A3
:103F9000DDE904011F4A204B01F060FA80468A46A1
:103FA0005A4620462946089B01F07EFC32463B4695
:103FB00001F054FA4246534601F076FC22462B4665
:103FC00001F072FC04460D46DDE90401134A144B6E
:103FD00001F044FA10B022462B46BDE8F04D01F046
:103FE00063BC0B465A462046294601F05DFC32462A
:103FF0003B4601F033FA10B022462B46BDE8F04DA7
:1040000001F060BB0000F07F645F09000000F03F3A
:104010001A240000763C7935EF39EA3D0000E0FED5
:10402000422EE63F5555D53F0000E03F86EBF9FFB5
:10403000B2220000B02200002DE9F04104463048D1
:104040000025814205DA21F00042824201D805D1E3
:1040500024B12046BDE8F041FFF70ABEB1F5801F4C
:104060001BDA52EA040008D000290FDA0120FCF71D
:10407000EDF9BDE8F041FFF700BE0220FCF7E6F9DC
:10408000FFF7EEFD81F00041BDE8F0816FF03505EE
:104090003622204601F0CBFF044605EB2150A0F26A
:1040A000FF32D00F40F2FF331B1A0D4663F31F554A
:1040B000104401F07FF906460F4629462046FFF7D7
:1040C0000DFE104A104B01F0C9F904460D460F4A87
:1040D0000F4B3046394601F0C1F922462B4600F01D
:1040E00019FF05460C460B4A0B4B3046394601F08A
:1040F000B5F92A462346BDE8F04100F00BBF0000A9
:104100000000F07F0EE526157BCBDB3F362BF1114F
:10411000F3FE593D00609F501344D33FBAB0FEF701
:104120001FF9FFF741FBFDF78FFAFFF73FFAFFF7A3
:1041300019FBFFF7EBF9FFF79FFAFFF70FFAFFF70D
:10414000BBFAFFF7F3FA08214D48FDF7C1F94D48D6
:10415000FFF786F94C4800F009FE64232F224BA19B
:104160005648FEF7DFFE56494648FDF781FA554EA0
:104170004FF47A77FFF75AF9022822D0FFF706F9B1
:10418000FDF734FE3168401AB84218D9FFF756F9E6
:104190000546FFF751F90446FFF75CF903464AA2CA
:1041A0003C212AA8CDE90045FCF742F882B26423FD
:1041B0002AA94248FEF7B6FEFDF718FE3060C82077
:1041C0005AE003A8FDF78AF930B14CA14FF4967379
:1041D00014223A48FEF7A6FEFFF74CF9804639A8AC
:1041E00000F0EEFD28B16423132249A13348FEF705
:1041F00099FEFDF747FA01F041FC04460D464046A2
:1042000001F03CFCBDF8E420BDF8E6300DF1100CE7
:10421000CDE9084507928CE80B009DF80D009DF84C
:104220000F209DF80E108DE807009DF80C303D4AD8
:1042300080210AA8FBF7FCFF044664230F223AA161
:104240001E48FEF76FFEA2B264230AA91B48FEF7C0
:1042500069FE6423012228A11848FEF763FEA2B27A
:1042600064230AA93548FEF75DFE6423012222A1DA
:104270003248FEF757FE3846FDF7A0FC7AE700000B
:10428000001801402C0000208C00002053475033C0
:104290003020496E697469616C697A6174696F6E06
:1042A0002C207761697420666F72207468652077AE
:1042B00061726D2D75702E2E2E0D0A006C0100207E
:1042C000E0000020000000205B4D51345D20436180
:1042D0006C6962726174696E672E2E2E2025642FC0
:1042E00025642073616D706C65732C2052656D615F
:1042F000696E3A202564730D0A0000004448543169
:10430000312052656164204572726F72210D0A007E
:1043100053475033302052656164204572726F728A
:10432000210D0A00346200085B53544D33325D2086
:1043300053656E64696E673A200000002801002012
:104340002DE9F04D1D460C4698B0174621F000416E
:1043500023F00043002814BF4FF0010C4FF0000C75
:104360000CEB440CFE4A0CEB02064FEA620C66456D
:104370002BD33E0018BF012606EB45061644F94A2A
:10438000964222D3F84A53EA070C02D0944205D150
:1043900048B918B000201146BDE8F08D002808BFCC
:1043A0004FF0000C01D04FF0010C0CEB440212F561
:1043B000001F0AD8002F14BF4FF0010C4FF0000C63
:1043C0000CEB450212F5001F07D918B03A462B46F0
:1043D0002146BDE8F04DFFF74EBC0022DFF88CA36C
:1043E000002CB8BF534526DADFF884C36345A8BF65
:1043F000022220DADFF870C39C451CDCDFF874C3AE
:104400000CEB235CBCF1140F08DDCCF1340627FA69
:1044100006FC0CFA06F6BE420DD108E05FB9CCF1FD
:10442000140623FA06FC0CFA06F69E4203D10CF0A1
:104430000102C2F1020251EA000C19D1002D17DA73
:10444000002C18BF022A01D0012A07D00220FBF756
:10445000FDFF18B0BDE8F04DFFF702BC0220FBF7EE
:10446000F5FFFFF7FDFB18B081F00041BDE8F08DCE
:10447000B7F1000C6CD1534525D104F1804212F5FF
:10448000801201BF00280020B74918B008BFBDE85E
:10449000F08DB548884207DC002DA1BF6046294653
:1044A00018B0BDE8F08D07E0281E05DA80F0004165
:1044B00018B06046BDE8F08DAF497944D1E90001FC
:1044C00018B0BDE8F08DDFF8A0C2634525D1002DFE
:1044D0001FDA19B1514512D1D8B909E0002840F0CE
:1044E000EC82A24A214618B062F31E01BDE8F08DAD
:1044F0000020214618B060F31E01BDE8F08D08DAF7
:1045000018B02346BDE8F04D02460020614600F099
:10451000BDBD18B02146BDE8F08D514518DAB5F1A2
:10452000804F0DD0A5F1005CBCF1FF5C10D1B4F15F
:10453000000C0DDB18B06146BDE8F04D00F07CBC0E
:10454000234618B00246BDE8F04D194600F086BF7C
:10455000060024F0004C3BD1D9B1514533D1002C99
:1045600006DD002DA1BF0020514618B0BDE8F08D3A
:10457000002C01DD002D1BDB002C13DA002D11DBDC
:10458000012A4FF0000014BF78497C4918B0BDE8FB
:10459000F08D022A18BF002C0AD0012A08D1002C65
:1045A00006DA0AE0002CB8BF002D11DA012A04D087
:1045B000002018B00146BDE8F08D18B000204FF083
:1045C0000041BDE8F08DA1F14050B0F17F601AD0FC
:1045D000012000EBE47050EA020421D0624C521E2C
:1045E0004FF0000B104304BF4FF0000B644C6548C4
:1045F00083427CDD644A654893421FDD884217DBB5
:10460000002D25DB37E0002C00DA4AB1022A0CBF6E
:1046100001204FF0FF3018B0BDE8F04D00F0CABEE9
:104620000120FBF713FF18B0BDE8F04DFFF725BBE5
:104630004D4A8A4202DC002D0ADC1CE0814202DA8B
:10464000002D18DA04E0484B994220DD002D12DDE0
:104650000220FBF7FBFEFFF716FB05460E46002285
:1046600053465846214600F0F9FE18B066F31E0185
:104670002846BDE8F08D0220FBF7E8FEFFF70AFBB5
:104680000A46214618B062F31E01BDE8F08D0022F3
:104690003046614601F008F980460E466FF001028F
:1046A00001F0C5FC4FF05532394B01F00BF8424692
:1046B000334600F0D3FE0022364B01F003F8824669
:1046C0004246334604911046194600F0C7FE524652
:1046D000049B00F0C3FE8A4600904FF0C0422E4B70
:1046E0004046314600F0BAFE2C4A2B4B00E027E052
:1046F000CDE906015146009800F0B0FE82460191D6
:10470000274A284B4046314600F0A8FE5246019BFE
:1047100001F0CAF882460B4602460591DDE9060122
:1047200000F0F8FBDDE9062300268846304601F05C
:10473000BBF85246059B00F0C5FF024600F07EB96B
:104740000020B1F5801F07DA35223046614601F0BE
:104750006EFC06466FF0340000EB215024E00000B0
:10476000FFFF1F00FFFF0F000000F03F0000F07F81
:104770000000404301FCFFFFDA1C00000000F0FFD6
:104780000000F0BF0000E0410000F043FFFFEF3FFA
:104790005555D53F0000E03F4715F73FFE822B659A
:1047A00044DF5DF80BAE543EA0F2FF300190C1F340
:1047B000130040F07F6141F040510291FE49884270
:1047C000D8BF002004DDFD498142C8BF012001DDC2
:1047D0000D9008E000200D900198401C0190029877
:1047E000A0F5801002900299F54878440B910D993C
:1047F00000EBC100D0E900230F9330460A920B99D9
:1048000001F052F8CDE90601DDE90A2130460F9B9F
:1048100000F080FB02460B460020EA4900F036FC1F
:10482000059102460B460090DDE9060100F016FEF8
:104830001490E5488A464FF00008784402990068D1
:1048400012904FF0005040EA61010D980F9B01EB70
:10485000804000F5002109910A9A129801F024F88D
:1048600032460B9B00F02EFF4246534600F0F6FD09
:104870000646029140465146099B129A00F0EEFD11
:10488000DDE9062300F01EFF3246029B01F00CF822
:10489000059B009A00F0E2FD0091149A04905346A3
:1048A0001046194600F0DAFD06460246C7480B4698
:1048B000029106217844FFF77EF9CDE90510029BAD
:1048C00032461046194600F0C9FDDDE9053200F018
:1048D000C5FD05910646534640461946149A00F018
:1048E00019FB009B049A00F0B9FD3246059B00F0CD
:1048F00011FBCDE90510424653461046194600F01B
:10490000ADFD0022B24B02910A9000F003FBDDE9FD
:10491000053200F0FFFA0E464246AD4B404600F02D
:10492000C3FF029B0A9A00F0BFFFDDE9053200F0E9
:10493000C9FE424602910A9033461046514600F0A5
:104940008DFDCDE906015346149A02990A9800F0AC
:1049500085FD8A460290334642460099049800F04D
:104960007DFD5346029A00F0D5FA82460B46024678
:104970000591DDE9060100F0CDFADDE9062300200E
:104980008846064600F090FF5246059B00F09AFECE
:10499000824609914FF060428E4B3046414600F00E
:1049A0005DFD049006918C4A8A4B5046099900F0AF
:1049B00055FD82460291894A894B3046414600F0B6
:1049C0004DFD5246029B00F0A5FA864B7B440D9AA2
:1049D00003EBC203D3E9002300F09CFA0E90079189
:1049E000019800F0E7FC0591DDE9061382460E9A76
:1049F000049800F08FFA7C4A7A440D9B02EBC303C3
:104A0000D3E900230093029200F084FA5246059BFA
:104A100000F080FA0026884652463046059B00F09A
:104A200043FF009B029A00F03FFF069B049A00F0B0
:104A30003BFF079B0E9A00F045FE024600200B4606
:104A400002903846294600F009FD824601912B4626
:104A500038461946029A00F027FF3246434600F0D6
:104A6000FDFC5246019B00F055FA07468A46324645
:104A700043462946029800F0F1FC05460E463A46A8
:104A8000534600F047FA594A8846914221DBA8EB89
:104A9000020353EA000210D12A46334600F004FF15
:104AA000CDE90401524A534B3846514600F032FAE0
:104AB000DDE9042300F0D0FD21D20220FBF7C6FC83
:104AC000FFF7E1F80A46214618B062F31E01BDE87F
:104AD000F08D494B28F000429A4210D3474A08EB28
:104AE000020353EA00027FF4C6AD2A46334600F0C3
:104AF000DBFE3A46534600F0AFFD7FF6BCAD002228
:104B0000019228F000403E493E4A01EB205182428A
:104B100023DA481C4FF4801121FA00F040443A4A4D
:104B2000C0F30A517A44394BA1F2FF31CB4020EA5D
:104B30000303C0F3130040F48010C1F11401C84016
:104B400012680190B8F1000FBCBF404201902846A6
:104B5000314600F0A9FE05460E462A463346384641
:104B6000514600F0D7F94FF000084246284B404626
:104B7000059100F073FCCDE90601264A264B40461C
:104B8000059900F06BFC009102902A46334640469E
:104B9000059900F089FE3A46534600F093FD1F4AFE
:104BA0001F4B00F05BFC009B029A00F0B3F9074634
:104BB000884602460B4635E08E9803007AB60B0015
:104BC000EA1800000000F03F5A19000050180000D9
:104BD0000000084009C7EE3FFD033ADCF5015B1415
:104BE000E02F3EBE28170000EC16000000009040A9
:104BF000FE822B654715973C00CC904000346F3FF8
:104C000001FCFFFF0000E03F70160000FFFF0F00F7
:104C1000432EE63F396CA80C615C20BEEF39FAFEEA
:104C2000422EE63FDDE9060100F074F9DDE90623D6
:104C300005460E4600F038FE3A46434600F042FD77
:104C40000F462A46334600901046194600F006FCEF
:104C5000824602462E4888460B4605217844FEF7D8
:104C6000AAFF5246434600F0F9FB2A46334600F0BD
:104C700029FD80468A463B4628463146009A00F088
:104C8000EDFB3B46009A00F045F9069100900022AA
:104C90004FF080434046514600F006FE0F460C9010
:104CA000424653462846314600F0D8FB3B460C9A14
:104CB00000F0ECF9069B009A00F0F6FD2A46334618
:104CC00000F0F2FD0022134B00F0FCFC05460198B9
:104CD0000E4601EB00510815002810DC284631462D
:104CE000019A01F0A4F9FEF742FF042808BFFEF77D
:104CF000D1FF28463146019A01F099F905460B4645
:104D000018B02A4658462146BDE8F04D00F0A6BB33
:104D1000D81400000000F03F10B5064C2068FCF7E6
:104D2000EDFE64212068FCF74BFE2068BDE81040D2
:104D3000FCF76EBD1400002070B50446FF20002271
:104D400031250FE0A35C58400823060602D585EA0A
:104D5000400000E040005B1EC0B213F0FF03F4D13E
:104D6000521CD2B28A42EDD370BD00001CB50BA11B
:104D70000223096801916421009101AAB021FDF785
:104D800021FA30B106A164231A220C48FEF7CAF8B2
:104D90001CBD1420FCF712FF1CBD00002003000006
:104DA000534750333020496E697469616C697A6584
:104DB000204572726F72210D0A0000006C01002004
:104DC0007FB504461AA0642500680390022303AA55
:104DD000B02100951748FDF7F5F930BB1920FCF715
:104DE000EDFE062301AAB12112480095FDF7C8F88F
:104DF000D8B9022101A8FFF79FFF9DF80610814254
:104E000013D1BDF80400022140BA20800DF1070043
:104E1000FFF792FF9DF80910814206D1BDF8070007
:104E200040BA6080002004B070BD0120FBE70000A4
:104E3000200800008C0000202DE9F04106460F46B6
:104E400000F04CFC041E0D4618BF0120284320F042
:104E50000040C0F17F6000F1E040C00F0ED0301C78
:104E600018BF0120384320F00040C0F17F6000F1FE
:104E7000E040C00F04BF0120FBF7E8FA20462946B6
:104E8000BDE8F08110B500290AD00878002807D0C5
:104E900005487844FBF7A0FE002801D0002010BD93
:104EA0000248784410BD0000361400002E140000A3
:104EB00021F00042A2F16052B2F5801F01F00043E0
:104EC00028BFD2F17F6C0BD95FEA001C43EAC20213
:104ED00042EB507018BF704728BF20F001007047A8
:104EE000B2F5801FBCBF184670474FEA410C1CF555
:104EF000001F02D2084600F0ECBF70B500F058FB6E
:104F000000000089FFF7F6BF4FF00040A0F58000D9
:104F10007047000010B591EA030F48BF83F00043CB
:104F200000F1CA84841A71EB030C05D2121943EB09
:104F30000C03001B61EB0C01DFF824E14FEA115474
:104F4000A4EB135C1EEA430F18BF9EEA445F73D0C4
:104F500023EA0E03DCF1200E21EA045143F480130E
:104F600032D322FA0CFE10EB0E0023FA0CFE41EBBA
:104F70000E01CCF1200E03FA0EFE10EB0E0051F1E3
:104F80000001B1F5801FCCF1200E32D201EB0451AB
:104F900012FA0EF2BDE8104058BF7047401C38BFEF
:104FA0005FEA420218BF7047002814BF20F00100DA
:104FB00041F100014FEA410313F5001F38BF70476C
:104FC000A1F1C04100F042BB012A43EB0302ACF166
:104FD000200CDCF11F0E32BF4FF0000E23FA0CF351
:104FE00010EB030041EB0451B4EB115FD0D0A1EB07
:104FF000045101F5801149085FEA300001EB0451CA
:105000000ED350F1000038BF12FA0EFE08D1BDE8F1
:105010001040C9E7401C38BF5FEA4202CAD1C3E76B
:10502000BDE810404FEA410313F5001F38BF704739
:10503000A1F1C04100F00ABB9EEA445F08D011EA2A
:105040005E0FBDE8104004BF01F000410020704732
:10505000BDE8104070B500F0ABFA00BF64FBBE3E87
:105060000000E0FF02494FF0000000F0AEBF00BFBB
:105070000000F87F491058BFC1F140415B1058BF94
:10508000C3F140438B42EFF3008070472DE9C041EC
:1050900030B4DFF8A0C23CEA111418BF3CEA131484
:1050A00000F0EC8081EA03051CEA111444EAD5748F
:1050B00018BF1CEA131500F0C780A4EB05044FF0DD
:1050C000004545EAC12145EAC32341EA505143EA7C
:1050D000525304F17F74994204F500344FEAC02022
:1050E0004FEAC22208BF904200F09C804FEA13654D
:1050F0000FF24016765D4FEA134506FB05F7C7F140
:10510000807706FB07F74FEAD737A7FB036876429D
:10511000C8F58038A7FB06CE38BFA8F1010807FB09
:1051200008E64FF0000EA6FB028CE6FB03CEDCF196
:10513000000CCEF1004E38BFAEF1010EA6FB0C58AC
:105140004FF000074FF00005E6FB0E87A1FB08C6F5
:10515000A0FB07CE16EB0E0645F10005E1FB076547
:1051600015F1E04E7EBFA4F580345FEA46066D413E
:1051700016F1800745F100054FEA17274FEA06664A
:1051800047EA0567A6F1DE46B6F1805F4FEA1525CE
:105190001FD9384624F0010C05EBC471BCF1FE6F39
:1051A00001EB0C1102D8F0BCBDE8008124425CBFC9
:1051B00001F5801E9EEAC47F02D4F0BCBDE80081E8
:1051C000244238D4F0BCA1F1C041BDE8004100F058
:1051D0003DBA4FEAD22242EA43524FEAD323A7FB19
:1051E00002864FEAD02040EA415007FB03661EEAE0
:1051F0000E0F4FEAD12105FB026658BFA6EB005601
:10520000B6EB00564FEA520E4EEAC37E18EB0E0E76
:1052100056EB530EBDD518EB02085E417F1C55F1CD
:105220000005B6E74FF480154FF000074FF0000679
:105230004FF00008ADE7F0BC4FF0000001F1C041B5
:1052400001F00041BDE8008111EA0C1F0CEA1315C2
:1052500000D00CE013EA0C1F00F025804FF0000096
:10526000F0BC81EA030101F00041BDE80081F0BC1F
:10527000BDE8004181EA030100F0E8B9F0BCBDE8F7
:10528000004170B500F094F9097EFC3E00F007B8CB
:1052900081EA03014FF0000001F00041704781EA0C
:1052A000030100F0D3B9F0BCBDE800414FF00000AD
:1052B00021497047FFFDFBF9F7F5F4F2F0EEEDEB55
:1052C000E9E8E6E4E3E1E0DEDDDBDAD8D7D5D4D304
:1052D000D1D0CFCDCCCBCAC8C7C6C5C4C2C1C0BF50
:1052E000BEBDBCBBBAB9B8B7B6B5B4B3B2B1B0AF56
:1052F000AEADACABAAA9A8A8A7A6A5A4A3A3A2A13A
:10530000A09F9F9E9D9C9C9B9A99999897979695F4
:1053100095949393929191908F8F8E8E8D8C8C8B90
:105320008B8A898988888787868585848483838218
:10533000828181800000FF070000F87F51EA030CA2
:1053400017D41CF5801F58BFBCF5801F00F10680E4
:10535000994218BF704708BF9042704707D711F5B0
:10536000801F58BF13F5801F19D499427047894296
:1053700070471CF5801F08D5BCF5801FF7D58B4200
:1053800018BF704708BF824270474FF4001C1CEBE7
:10539000410F38BF1CEB430F01D28B42704770B5F1
:1053A00000F006F9922449004FF000514FF080536D
:1053B000FFF760BE10F0004248BF4042B0FA80F3F1
:1053C00010FA03F10AD0C3F11D0303F580634FEA1D
:1053D000415002EB035202EBD12170474FF0000025
:1053E0007047000051EA030C17D41CF5801F58BF0A
:1053F000BCF5801F00F10680994218BF704708BFB6
:105400009042704707D711F5801F58BF13F5801FD2
:1054100019D499427047894270471CF5801F08D5FE
:10542000BCF5801FF7D58B4218BF704708BF82427A
:1054300070474FF4001C1CEB410F38BF1CEB430FAF
:1054400001D28B42704770B500F0B2F89224490047
:105450004FF000514FF08053FFF70CBEDFF848C10A
:1054600070B51CEA111E1EBF1CEA13159EEA0C0F34
:1054700095EA0C0F00F06F8081EA030423EA4C13D5
:105480004EEAD47E21EA4C1141F4801143F480139A
:10549000AE44A1FB024CA0FB0365AEF17F7E361942
:1054A00055EB0C05A1FB034C4CF10003A0FB021CC7
:1054B00016EB0C06654153F10003094218BF46F094
:1054C000010613F4007F0BD14FEA03314FEA053098
:1054D000340341EA155140EA16506FF003020AE026
:1054E0004FEAC3214FEAC520F40241EA555140EA90
:1054F00056506FF0020202EB2E4201EB025585EA94
:10550000CE710AD05FEA440C18BF24F0004450F179
:10551000000041F1000120EAD47040F2FE7C6245B7
:1055200000D270BDA84214BF4FF080444FF04044F9
:10553000002E08BF0024BEF1806FA8BFA1F1C041BA
:10554000BDE8704080F282804FF0000001F1C04160
:1055500001F0004170479EEA0C0F0CEA131518BFCA
:1055600095EA0C0F06D04FF0000081EA030E0EF012
:10557000004170BD00F01CF88900013E00F007B842
:1055800000F009B84FEA430C5FEA5C5C08D081EA9E
:10559000030100F05BB84FEA410C5FEA5C5CF6D1B6
:1055A0004FF00000014970470000FF070000F87F3E
:1055B0000EF1020E2EF0030E5EF8046B364205D497
:1055C000012A43EB030515F5001F12D8012841EB12
:1055D000010C1CF5001F0CD80ED14FEAD17C15F53B
:1055E000001F0CEB4C0C0CF1020C08BF4CEBD37CF5
:1055F00004E04FF0080C01E04FEAD37C0CEB4C05C3
:1056000026FA05F606F00706B6F1040C06D20EEBF4
:10561000860CBDE870404CF0010C6047DFE80CF0F0
:10562000090B02024FF000414FF00000A1F50021EC
:1056300070BD19461046012851EB010418BFD4F57E
:10564000001484BF002001F0004170BD0808A0F5DF
:1056500000114FEA3101704753EA010C17D41CF5D1
:10566000801F58BFBCF5801F00F106808B4218BF19
:10567000704708BF8242704707D713F5801F58BF95
:1056800011F5801F19D48B4270479B4270471CF55F
:10569000801F08D5BCF5801FF7D5994218BF704709
:1056A00008BF904270474FF4001C1CEB430F38BFFB
:1056B0001CEB410F01D2994270470FB40CBC03BCE4
:1056C000FFF7C1BE91EA030F10B581F000413FF52D
:1056D00029AC83F0004300F0EFB800002DE9F04161
:1056E00001F5801CBCF5001FC0F2C3804FEA115CBD
:1056F00021EA0C510CF1FD0C41F480115FEA5C0CC5
:105700000CF5C07C01D3400049413DA4890241EA27
:10571000905187028E0E0A0CA45D04FB04F602FB76
:1057200006F6C6F14046A4FB0662F60D46EA42269E
:1057300006FB06F4A4FB01235242C3F1404338BFE9
:105740005B1EA6FB02420024E6FB0324D20B42EAC6
:105750004446A6FB0623A1FB02E2A3FB07E4A41830
:105760004FF0000252F10002E3FB01426442C2F139
:10577000404E38BFAEF1010EA6FB04234FF00002ED
:10578000E6FB0E32A2FB03464FF00004B61954F1BB
:105790000004E2FB0264A1FB06E6A4FB07E816EBAB
:1057A00008064FF0000858F10008E4FB0168764253
:1057B000C8F1405838BFA8F10108A2FB06E4A3FBDA
:1057C00008E52D194FF0000454F10004E2FB0854E1
:1057D000A1FB05E6A7FB04E818EB06084FF000065E
:1057E00056F10006E1FB048618F1200556F100068B
:1057F000A809A8F11B08B10908F03F08B8F10A0F81
:1058000040EA86601CD901EB0C51BDE8F08100BF75
:10581000FCF5EEE8E2DDD8D3CFCBC7C3C0BDB9B647
:10582000B4B1AEACA9A7A5A3A19F9D9B9A9896954C
:105830009392908F8D8C8B898887868584838281D3
:10584000A0FB006800FB01F208EB4208B8EB8728D8
:1058500007D5341858EB0104D5D5401C51F100018F
:10586000D1E7341A78EB0104CDD4401E71F1000168
:10587000C9E75FEA4C0C5FEA9C5C0DD105D34FF0A1
:10588000000001F00041BDE8F081BDE8F04170B5D5
:10589000FFF78EFE6DDBFFBEBDE8F0414FF000006C
:1058A000004970470000F87F10B591EA030F48BF28
:1058B00083F000433FF536AB841A71EB030C07D23B
:1058C00012198CF0004C43EB0C03001B61EB0C0134
:1058D000DFF8A4E14FEA1154A4EB135C1EEA430F76
:1058E00018BF9EEA445F00F0B08023EA6E03524284
:1058F00021EA0451C3EB6E0338BF5B1EDCF1200EBE
:1059000025D322FA0CFE10EB0E0043FA0CFE41EBFD
:105910000E01CCF1200E03FA0EFE10EB0E0051F139
:105920000001CCF1200E29D412FA0EF201EB045141
:10593000BDE8104058BF7047401C1CBFB2F1004F7B
:10594000704700280CBF491C20F00100704712EB83
:10595000020E43EB030218BF4FF0010E4EEA420263
:10596000ACF1200CDCF11E0E54D943FA0CFE10EB06
:105970000E0051F1FF31CCF11E0ED5D50EF1010E06
:1059800012FA0EFE404141EB010101EB445C5FEA7B
:105990005C5C10D910EBDE7001EB045138BFBEF136
:1059A000004FBDE8104018BF704700280CBF491CCD
:1059B00020F00100704730D24FEAD42C11F50011CD
:1059C00024F400641BD0B1FA81F20B3AA41AA41E8D
:1059D000D2F12003914030FA03F31943904001EBD8
:1059E000CC71002C01EB0451BDE81040A8BF7047FA
:1059F00001F1C0414FF0000001F000417047B0FAE2
:105A000080F310FA03F100D110BDE41A173C4805E9
:105A1000C90AE4E701EB045110BD491001EB045140
:105A2000BDE810404FEA300002E04FF0000170473F
:105A30004A0008BF0042F8D0B2F5001F28BF7047E7
:105A400001F000414FF0000070479EEA445F07D02C
:105A500011EA5E0FBDE8104004BF0021002070472E
:105A6000BDE8104070B5FFF7A3FD00BF40DFF63E74
:105A700083F00041104670470000E0FF43004FEA0A
:105A8000D30C4FEA3C0C43401FBF40070CF1605160
:105A900013F0FE4F70471CF0006F03D100200CF094
:105AA000004170470CF0004343EA507010B540EAE3
:105AB000CC0000F0C8F900BF000000924FEA0001DE
:105AC000FFF7C4BD4FF000414FF00000A1F50021E9
:105AD0007047000090EA010F48BF81F0004100F1DB
