:020000040800F2
:1000000008070020ED010008632800089B2600086F
:1000100061280008C9140008052A00080000000033
:100020000000000000000000000000006728000839
:100030004116000800000000652800086928000833
:10004000070200080702000807020008070200086C
:10005000070200080702000807020008070200085C
:10006000070200080702000807020008070200084C
:10007000070200080702000807020008070200083C
:10008000070200080702000807020008070200082C
:10009000070200080702000807020008070200081C
:1000A000070200080702000807020008070200080C
:1000B00007020008070200080702000807020008FC
:1000C00007020008070200080702000807020008EC
:1000D00007020008070200080702000807020008DC
:1000E00007020008070200080702000807020008CC
:1000F00007020008070200080702000807020008BC
:1001000007020008070200080702000807020008AB
:10011000070200080702000807020008070200089B
:10012000070200080702000807020008070200088B
:1001300000F002F800F04AF80AA090E8000C8244AF
:100140008344AAF10107DA4501D100F03FF8AFF28C
:10015000090EBAE80F0013F0010F18BFFB1A43F0A5
:1001600001031847204D0000404D0000103A24BF05
:1001700078C878C1FAD8520724BF30C830C144BF0C
:1001800004680C607047000000230024002500264E
:10019000103A28BF78C1FBD8520728BF30C148BFEA
:1001A0000B607047662904F03885642900F05A8096
:1001B000002070471FB500F0DBFB04000020002189
:1001C00003F08AFCE0601FBD10B510BD00F0D4FC48
:1001D0001146FFF7EFFF02F0EDFE00F0F2FC03B472
:1001E000FFF7F2FF03BC00F035FD0000094880472F
:1001F00009480047FEE7FEE7FEE7FEE7FEE7FEE709
:10020000FEE7FEE7FEE7FEE704480549054A064B20
:1002100070470000E72800083101000808010020AD
:100220000807002008030020080300200FB47CB555
:100230000C0009AA009001D02044401E084B7B44CA
:1002400069460190089800F072FB05461CB1002039
:10025000694600F07FFB28467CBC5DF814FB00007B
:100260001D0700002DE9F04106460024106875299D
:10027000314616A510D0AFF30080002802DA4042C4
:1002800013A507E031688A0701D512A502E04907E6
:1002900004D511A5012401E0AFF3008000210A225A
:1002A00006F1240709E0B0FBF2FCB0FBF2F302FB1D
:1002B0001C00303078541846491C0028F3D12346DE
:1002C0002A463046BDE8F04100F0C4B80000000006
:1002D0002D0000002B000000200000002DE9F04759
:1002E0004FF0000A89460446C0F820A02046E16885
:1002F0008847002876D0252806D0D4E901219047E8
:10030000206A401C2062F1E7E1682046002588470A
:10031000C4F81CA006460027C4F818A02A2E09D04D
:10032000304602F00BFC38B304EB8708303EC8F8C7
:10033000186019E059F8041B204604EB870291610C
:10034000E1688847012F064618D1E069002820DAC5
:1003500025F020051DE0D8F8180000EB800006EB22
:1003600040003038C8F818002046E1688847064643
:1003700002F0E4FB0028EED1012F0AD02E2E08D186
:100380002046E16888477F1C0646022F45F020057D
:10039000C4DBA069002803DA404245F00105A061F2
:1003A000E80701D025F01005B6B1A6F141001928E3
:1003B00002D8203645F400654A463146204625607D
:1003C0004D46FFF7EFFE58B1012806D0ED1D25F090
:1003D000070000F1080989E704E005F1040985E751
:1003E00030468AE7206ABDE8F0874FF0000200B58A
:1003F000134694469646203922BFA0E80C50A0E848
:100400000C50B1F12001BFF4F7AF090728BFA0E8F5
:100410000C5048BF0CC05DF804EB890028BF40F8C1
:10042000042B08BF704748BF20F8022B11F0804F03
:1004300018BF00F8012B704770477047704710B520
:1004400000F09AFA006810BD10B5044600F094FA66
:10045000046010BD2DE9F0470D46994692460446CA
:1004600000F124080168880604D5E06921F0100134
:10047000216000E00120A84201DD471B00E00027C9
:10048000A1697A1902EB0900081AA0612078C00658
:1004900002D42046AFF30080002608E0D4E9012111
:1004A0001AF806009047206A401C761C20624E45D0
:1004B000F4DB2078C0060AD52046AFF3008006E0C2
:1004C000D4E9012130209047206A401C2062381E68
:1004D000A7F10107F4DC07E0D4E9012118F80500D1
:1004E0009047206A401C2062281EA5F10105F3DC1C
:1004F0002046AFF300802078000602D50220BDE838
:10050000F0870120FBE770472DE9FF4F0C461E46A0
:100510004FF0FF378BB0D2E90001DDF860800A9020
:100520008A46C1F30A5505B93D46002108464FF0F9
:100530000000BAF1000F00F4400005DA00EB800083
:100540004FF4400101EA50004FEA9059B9F1010F10
:1005500000DDB9460A9850EA4A000ED044F6105021
:10056000A5F2FF3545432F14B8F1000F1ED0754298
:10057000291E1EDDC9F100021CE0B8F1010F4FF089
:10058000000001D0302103E0F24305E02154401C7B
:10059000B042FBDB30460022002121540B99C1F808
:1005A0000880C1E900200FB0BDE8F08FBD1B6D1CB5
:1005B000DEE74A4600DA694206A800F067FA06ABB1
:1005C00093E8070003AB83E8070050460A9900F060
:1005D00048FB8DE80700A0F500501F3800900398F5
:1005E000002D0ADD42F21F014A460844002303A9F8
:1005F0000390684600F0B1FD09E0A0F500504A46BE
:100600001F38002303A90390684600F0BBFD8DE866
:1006100007000004000C03D04FF0FF30410800E059
:100620001046B8F1000F03D00022009215461EE0DC
:10063000751E05D400F0A4F9303262556D1EF9D54F
:10064000B3460122084302D000227F1C04E0207838
:10065000302801D100227F1E002A099784D01DE096
:10066000112D07DA00F08CF9303262556D1C50EA1A
:100670000102F5D1084302D00098C8B10EE0002174
:10068000681E05E0235C625C63542254401E491CD2
:100690008142F7DBAB46A81B401E0990002004F8FE
:1006A0000B000B98099AC0F80880C0E9002B7AE784
:1006B00011264FF0000857E72DE9F04F8846044611
:1006C000D21D22F0070191B0D1E90001CDE90A0164
:1006D00002F099F902460B98C00F01D02D2007E0D7
:1006E0002068810701D52B2002E0202101EAC0000B
:1006F000032A099001D0072A05DB0346414620461C
:1007000000F084F90BE12078800601D5E06900E073
:100710000620B8F1650F814606D0B8F1660F18D0F3
:10072000B8F1670F70D131E00020B9F1110F0090DE
:1007300001DB112301E009F101030AAA01A90CA8B8
:10074000FFF7E2FEDDE90C70002609F101058346A2
:1007500047E001204B4600904FF000470AAA01A94C
:100760000CA8FFF7D1FEDDE90DB00C995D4600261F
:1007700010B909F101000D18B9EB050003D4C0F15F
:10078000FF3609F10105A5EB09002BE0B9F1010FD6
:1007900001DA4FF001090020B9F1110F009048462D
:1007A00001DD112300E003460AAA01A90CA8FFF706
:1007B000ABFEDDE90C704D4600268346207800072D
:1007C0000AD4AB4500DA5D4601A8012D04DD4119CC
:1007D00011F8011C302907D04F4502DA17F1040F38
:1007E00004DA012082460FE06D1EEEE7002F02DCE6
:1007F000ED1B3E4403E0781CA84200DD7D1CB81BC5
:1008000000F1010A4FF000472078000703D4AA4501
:1008100001DB4FF0FF3A0021B7F1004F0DF1430823
:100820008DF8431024D002202B23002F01DA7F42C1
:100830002D230A21021EA0F1010000DC5FB197FB0D
:10084000F1FC97FBF1F201FB1C7C17460CF1300C1C
:1008500008F801CDEEE7A8F1010003702188090531
:1008600001D5452100E06521A0F1010800F8011C37
:1008700009980FA9A1EB0807FF1D00B1012041193C
:1008800001EBEA70A1693844081A401EA061207883
:10089000C00602D42046AFF30080099828B1D4E9FD
:1008A00001219047206A401C20622078C00622D592
:1008B0002046AFF300801EE0002E04DBB34502DDCE
:1008C00001A8805D00E03020D4E901219047206A32
:1008D000401C2062761CAAF101005FEA000A0AD1DE
:1008E00000F046F8C0680168405CD4E901219047F7
:1008F000206A401C2062281EA5F10105DCDC07E00F
:10090000D4E9012118F8010B9047206A401C2062AD
:10091000381EA7F10107F3DC2046AFF30080032067
:1009200011B041E601694A1C02610878704700B5C0
:100930008FB0CDE901310021059105497944CDE918
:10094000031011466846FFF7C9FC0FB000BD000058
:10095000E5FFFFFF0A6802F8010B0A607047D1E962
:1009600000239A4202D2531C0B60107070470000A3
:1009700000487047C400002000487047A4000020D1
:1009800030B5B0F10A024FEA900E71F100034EEA61
:10099000817EB0EB0E0061EB91014FEA101E4EEA32
:1009A000017E10EB0E0041EB11114FEA102E4EEAC2
:1009B000016E10EB0E0041EB11214FEA104E4EEA92
:1009C000014E10EB0E0041EB1141401841F10001C6
:1009D0004FEAD00040EA41704FEAD10110EB8005A8
:1009E0004FEA810444EA907444EB01046D1944EB2E
:1009F0000404521BA3414FF0000348BF0A3200D544
:100A000030BD401C41F1000130BD00002DE9F04136
:100A10001F46044603260168072A01F4006004DB30
:100A200008B116A505E016A503E008B115A500E07C
:100A300015A521F010002060A069C01EA0610FB1B3
:100A4000401EA0612046AFF300804FB1D4E90121E0
:100A500038469047206A401C2062C01C206206E095
:100A6000206AFAE7D4E9012115F8010B9047761EB8
:100A7000F8D22046AFF30080BDE8F0814E414E0031
:100A80006E616E00494E4600696E66002DE9F047C2
:100A9000814616468AB0354878440DC88DE80D0069
:100AA00032487844801C03AC0DC884E80D0041F640
:100AB0009B300844372190FBF1F290FBF1F5A5F152
:100AC000800501FB12041B3C02D56442012000E0BA
:100AD0000020DFF898A080460027FA44AAF1BE0A59
:100AE0000EE0E0070AD03246684607EB47010123D3
:100AF0000AEB810100F046FB8DE8070064107F1CC3
:100B0000002CEED1194F7F44AE3F19E0E80715D015
:100B100007EB04100DF1180A90E80E008AE80E00A9
:100B2000C068F04201D1981908903246012306A905
:100B300003A800F027FB03AB83E807006D10641CDB
:100B4000002DE3D14FF0010332466946B8F1000FA2
:100B500003A802D000F001FB01E000F013FBC9E99B
:100B60000001C9F808200AB0BDE8F087D0430000B2
:100B700000487047A40000207546FFF7F9FFAE4615
:100B800005006946534620F00700854618B020B599
:100B9000FFF73AFBBDE820404FF000064FF000079A
:100BA0004FF000084FF0000B21F00701AC46ACE815
:100BB000C009ACE8C009ACE8C009ACE8C0098D4682
:100BC000704710B50446AFF300802046BDE81040E2
:100BD000FFF705BB4FF0013C50F8042B51F8043BE4
:100BE0009A4221D1A2EB0C03934313EACC1317D101
:100BF00050F8042B51F8043B9A4215D1A2EB0C0398
:100C0000934313EACC130BD150F8042B51F8043B57
:100C10009A4209D1A2EB0C03934313EACC13DBD025
:100C20004FF00000704700BFD01A01BAB1FA81F14D
:100C300001F0180122FA01F0CB40C1F12001DBB232
:100C4000C0B2C01A2CFA01F3D11A914311EAC311B0
:100C5000E6D1704701491820ABBEFEE7260002002E
:100C600070475FEA400C08BF91F0000F4FEA8C23F9
:100C70004FEAC12243EA51514FEA1C5018BF00F518
:100C8000F0404FEA300018BF41F000415FEA6C5C71
:100C900000F02980BCF1FF3F08BF40F08040704762
:100CA000130C06BF12044FF0100C4FF0000C130E83
:100CB00004BF12020CF1080C130F04BF12010CF157
:100CC000040C930F04BF92000CF1020CD30F04BF6D
:100CD00052000CF1010C11464FF00002A0F11F0070
:100CE000A0EB0C00704711F0004F08BF704731F0C7
:100CF00000413FF4D5AF0B0C06BF09044FF0100CB8
:100D00004FF0000C0B0E04BF09020CF1080C0B0F86
:100D100004BF09010CF1040C8B0F04BF89000CF116
:100D2000020CCB0F04BF49000CF1010CCCF12003E5
:100D3000A0EB0C0022FA03F302FA0CF241EA0301E1
:100D400000F10100704720F07F4C80EA030023F09F
:100D50007F47ACEB070303F57C5300F0004003F141
:100D6000FF032DE980494FEA154B09B44FEA1443BC
:100D700025EA0B4E24EA03480FF2042606EB13275C
:100D800049083E785FEA320203FB0667C7F50007B1
:100D900007FB06F64FEA54374FEAD64606F102063D
:100DA00007FB066CCCF1005C4FEA1C472CEA074CB1
:100DB00007FB06F40CFB06F504EB15464FEA961606
:100DC00034BF00204FF000404FEAD13706FB07FC4C
:100DD0004FEA1C4C0CFB0BF7D21B03FB0CF761EB2F
:100DE00007010CFB0EF7B0EB074072EB17420CFB50
:100DF00008F734BFA2EB0742B2EB074261EB1741A1
:100E00004FEA0C444FEA910706FB07FC4FEA1C4CE3
:100E10000CFB0BF7B0EBC74072EB573203FB0CF740
:100E200034BFA2EBC742B2EBC74261EB57310CFBB8
:100E30000EF7B0EBC70072EB57720CFB08F734BF2C
:100E4000A2EBC702B2EBC70261EB5771039F4FEAF7
:100E5000816141EA921104EBCC044FEAD1374FEAA9
:100E6000826206FB07FC42EA90124FEA80604FEA7A
:100E70001C4C0CFB0BF7D21B03FB0CF761EB0701BF
:100E80000CFB0EF7B0EB074072EB17420CFB08F7B8
:100E900034BFA2EB0742B2EB074261EB17414FEAC6
:100EA0008C554FEA910704EB9C2406FB07FC4FEAA4
:100EB0001C4C0CFB0BF7B0EBC74072EB573203FB3B
:100EC0000CF734BFA2EBC742B2EBC74261EB57311C
:100ED0000CFB0EF7B0EBC70072EB57720CFB08F778
:100EE00034BFA2EBC702B2EBC70261EB577115EB3F
:100EF0004C254FEA816141EA92114FEA82624FEA42
:100F0000D13742EA901206FB07FC44F100044FEA95
:100F100080604FEA1C4C0CFB0BF7D21B03FB0CF759
:100F200061EB07010CFB0EF7B0EB074072EB1742C9
:100F30000CFB08F734BFA2EB0742B2EB074261EBB0
:100F4000174115EB1C154FEA813141EA92414FEAF6
:100F5000823242EA90424FEA80304FEA0C7644F106
:100F6000000448EA03434EEA0B484FF0000EB2EB90
:100F7000080C71EB030724BF624639464EEB0E0E98
:100F80004FF0000B0018524149414BEB0B0BB2EBF9
:100F9000080C71EB03077BF1000B24BF6246394656
:100FA0004EEB0E0E4FF0000B0018524149414BEB37
:100FB0000B0BB2EB080C71EB03077BF1000B24BFAA
:100FC000624639464EEB0E0E51EA020718BF46F054
:100FD000010616EB0E7655F1000254F1000103D51F
:100FE000BDE88901BDE80088BDE88901BDE8004889
:100FF000B619524141EB0101A3F101037047808012
:101000007F7E7D7C7B7A7978777676757473727162
:1010100071706F6E6E6D6C6C6B6A6A69686867661A
:1010200066656464636362616160605F5F5E5E5DAC
:101030005D5C5C5B5B5A5A59595858575756565520
:1010400055555454535352525251515050504F4F82
:101050004F4E4E4D4D4D4C4C4C4B4B4B4A4A4A49D2
:101060004949484848474747474646464545454415
:101070004444444343434342424242414141002BA2
:101080009C4630D477002BD01CB54FEA370703B409
:101090004FF010004FF01001BAF1000F06D0BCF174
:1010A000000FDCBF40F0080040F008014FF00000E6
:1010B0000FBCBDE810400BF1010BBBF1010F08BFE5
:1010C0005FEA170722BF12F1010211F101014FF08F
:1010D000004143F1000300F0004043EA0000704784
:1010E000F9D35708D0E746EA064613F1400F4FEA16
:1010F00016461FDD13F1200FDFBF16430A460021FD
:1011000020335B42BED0C3F1200746EA064602FA0E
:1011100007F74FEA164646EA0706C3F1200722FA08
:1011200003F201FA07F721FA03F14FF0000342EA54
:101130000702A7E746EA020646EA06464FEA1646CF
:1011400046EA0106BCBF46EA0646360C4FF00003ED
:101150004FF000024FF0000194E72DE9804C9A46D1
:10116000934670B491E8380007C831EA400C48BF94
:1011700034EA430C03D5FFF7E6FDFFF780FFF0BC30
:10118000BDE8008C2DE9804C9A46934670B491E8F6
:10119000380007C810F0804F08BF13F0804F03D10C
:1011A00000F005F8FFF76BFFF0BCBDE8008C20F005
:1011B0007F4780EA030023F07F4C07EB0C03A3F585
:1011C0007C5300F00040A3F1FE0392F0000F00F00A
:1011D000B38095F0000F00F077802DE901494FEAC8
:1011E00011404FEA144621EA004800FB06FC24EABD
:1011F000064708FB06F607FB08F800FB07F718EBA5
:1012000006484CEB164C4FEA124B18EB07484FEAD6
:1012100015464CEB174022EA0B4E0BFB06FC25EA69
:1012200006470EFB06F607FB0EFE0BFB07F71EEB51
:10123000064E4CEB164C4FF000061EEB074E4CEBE7
:10124000174B18EB0B0840F1000018EB0E0B58EB96
:10125000000840F100008F1A4FF000013CBFC94365
:10126000661B14BFB5EB040C00213CBFC943F61B41
:101270004FEA17444EEA8E0E27EA04454FEA1C4710
:1012800004FB07622CEA074C05FB07F70CFB05F68D
:1012900004FB0CFC16EB074642EB174216EB0C4620
:1012A00042EB1C421BEB060658EB0202414146EAA8
:1012B0009E0601D5BDE80189B619524141EB0101F5
:1012C000A3F10103BDE801894FEA14454FEA114734
:1012D00024EA054621EA074C05FB07F406FB07F75D
:1012E0000CFB06F105FB0CFC11EB074144EB17442A
:1012F0004FEA124711EB0C4144EB1C4422EA074C25
:1013000005FB07F206FB07F70CFB06F605FB0CFCDA
:1013100016EB074642EB174216EB0C4642EB1C4518
:101320006A1854F1000148BF7047B619524141EBA9
:101330000101A3F10103704795F0000F37D04FEA88
:1013400011424FEA144721EA024624EA074C02FB05
:1013500007F106FB07F70CFB06F402FB0CFC14EB91
:10136000074441EB17414FEA154714EB0C4441EB9E
:101370001C4125EA074C02FB07F506FB07F70CFBAF
:1013800006F602FB0CFC16EB074645EB174516EB81
:101390000C4645EB1C42121951F1000148BF704741
:1013A000B619524141EB0101A3F1010370474FEA25
:1013B00014454FEA114724EA054621EA074C05FB8C
:1013C00007F106FB07F70CFB06F24FF0000605FBE2
:1013D0000CFC12EB074241EB174112EB0C4251EBB4
:1013E0001C4148BF7047921841EB0101A3F1010372
:1013F0007047000070B5044600688168C943C9079A
:1014000017D1816821F00101816000F083FC05465D
:101410000AE000BF00F07EFC401B022804D92068CF
:101420008068C043C00706D020688068C043C007FA
:10143000F0D0002070BDA06A40F01000A062E06A09
:1014400040F00100E062012070BD0000F8B5002608
:101450000446009600688168C943C9072DD0816899
:1014600041F001018160164816490068B0FBF1F0B7
:1014700000E0401E00900028FBD100F04BFC054628
:1014800016E000BF00F046FC401B022810D920687F
:101490008068C043C0070BD0A06A40F01000A06273
:1014A000E06A40F00100E06284F824600120F8BDA9
:1014B00020688068C043C007E4D10020F8BD000068
:1014C0000C00002040420F00FEE70000014A50607F
:1014D00011807047180000202DE9FC47804600204D
:1014E000009005460190012000F09AF84B4C002234
:1014F0002188606800F009FC142000F0F3FA012252
:101500002188606800F001FC1E2001F01FFB002014
:1015100000F086F805E0012001F018FB6D1C642D39
:101520007AD82188606800F0EBFB0128F3D0002511
:1015300005E0012001F00AFB6D1C642D6CD82188A8
:10154000606800F0DDFB0028F3D0002505E00120F5
:1015500001F0FCFA6D1C642D5ED82188606800F0F3
:10156000CFFB0128F3D00025E9460026002705E03F
:10157000012001F0EBFA7F1C642F4DD821886068B0
:1015800000F0BEFB0028F3D0282001F0DFFA19F8A4
:1015900005004F46400009F805002188606800F00A
:1015A000AFFB012803D1785D40F00100785500279A
:1015B00005E0012001F0CAFA7F1C642F2CD8218895
:1015C000606800F09DFB0128F3D0761CF6B2082E6F
:1015D000CCD36D1CEDB2052DC7D39DF800009DF84E
:1015E00001209DF802109DF803308418CD182C447A
:1015F0009DF80450AC420FD188F8000088F8012013
:1016000088F8021088F80330642805D8552903D8D3
:101610000020BDE8FC87FFE70120FAE71800002062
:101620001FB5064A1188CDE9001001200290032061
:1016300003906946506800F067FA1FBD180000204B
:10164000704700000648016841F08071016005485C
:1016500000214160016841F0010101607047000014
:10166000FCED00E0001000E072B6FEE7F8B50024E3
:10167000009490F824202546012A12D0012280F8F7
:1016800024204A681F23072A0DD20668776B521E52
:1016900002EB820293409F430B6893401F437763A2
:1016A00019E00220F8BD06680D2A0AD2376BD21F56
:1016B00002EB820293409F430B6893401F433763C2
:1016C00009E0F76A0D3A02EB820293409F430B68F0
:1016D00093401F43F7620A68072306680A2A0AD361
:1016E000F7680A3A02EB420293409F438B689340AB
:1016F0001F43F76008E0376902EB420293409F43C3
:101700008B6893401F4337610A68102A01D0112A61
:1017100020D1124B02689A4217D193681B0219D448
:10172000936843F4000393600968102912D10C49AF
:101730000C4A0968B1FBF2F101EB8101490000E0BC
:10174000491E00910029FBD104E0816A41F020018B
:101750008162012480F824502046F8BD0024014015
:101760000C00002040420F000068C06C7047000071
:101770002DE9F04104004FF000057FD0A06A00265B
:1017800028B9E66284F82460204600F081F82046FB
:10179000FFF730FEA16AC90600D420B1A06A40F06C
:1017A0001000A0626AE0A16A21F4885141F00201B0
:1017B000A162334923688B42E16904D1B1F5402F1E
:1017C00001D14FF40021277B4FF4807C41EA47028E
:1017D00061680A43A168614508D0012906D000214B
:1017E00094F814E0BEF1010F02D00AE06146F7E779
:1017F000C7B1A76A47F02007A762E76A47F0010769
:10180000E7625F6827F469470F435F602368996860
:101810001C4F394011439960A16861450BD00129E3
:1018200009D00CE0DFF860E0A7690EEB47370F4303
:1018300047F40061E5E7218A0D05A5F580152168CB
:10184000CB6A23F470032B43CB62216889680F4B6A
:101850001940914208D1E662A16A21F0020141F0EB
:101860000101A162BDE8F081A06A20F0020040F011
:101870001000A062E06A40F00100E0620120F1E7A0
:10188000003C0140FDF7E1FF00E0FFFFFE0E1FFFFF
:1018900000B585B00021009101910291039100688B
:1018A0000E49884218D10E48816941F40071816166
:1018B000816901F400710491816941F01001816135
:1018C0008069694600F01000049001200090032018
:1018D0000190044800F018F905B000BD0024014053
:1018E00000100240001001402DE9F84300270D468A
:1018F0000446009700F00EFA804620688168C9050A
:1019000008D5A06A40F02000A06284F8247001206D
:10191000BDE8F8834168C90503D4C06A10F4700FAC
:101920002AD0022000F086FA3B490968B1FBF0F6A4
:101930002068036939490B424FEA61014FEAA1125D
:101940001FD1C3684FEA611C13EA0C0F19D1036958
:101950000B4225D1C068104222D1142023E0681C1C
:101960000AD02DB100F0D6F9A0EB0800A84203D9A7
:1019700020680068800725D5206800688007EED5BC
:101980002DE003690B4202D1C168114206D0026901
:1019900023490A4206D1C068084203D1542002E01C
:1019A000292000E0FC204643009816E0681C11D076
:1019B0002DB100F0AFF9A0EB0800A8420AD90098B9
:1019C000B04207D2A06A40F00400A06284F82470FC
:1019D00003209DE70098401C0090B042E6D32168A8
:1019E0006FF012000860A06A40F40070A0622068E6
:1019F0008068C0F3424007280CD1207B50B9A06A10
:101A000020F48070A062A06AC00403D4A06A40F0F1
:101A10000100A06200207BE70C00002024499224F2
:101A20004992240070B5044690F8240001280DD096
:101A3000012084F824002046FFF708FD02004FF043
:101A4000000005D084F82400104670BD022070BD4F
:101A5000A16A40F20123994341F48071A1621F4DB4
:101A600023681F49AB4218D10E6816F4702F14D0AA
:101A7000A66A46F48016A6620E68760505D5A66AA3
:101A800026F4005646F48056A662A66AF6040AD5E5
:101A9000E66A26F00606E66206E0A66A26F48016E6
:101AA000A6625E68E9E7E06284F824006FF0020055
:101AB000186020688368C3F34243072B05D1A8420E
:101AC00008D1096811F4702F04D0816841F48011A5
:101AD0008160B9E7816841F4A001F9E7002801407D
:101AE0000424014070B5044600F014F90546601C5A
:101AF00002D004480078044400F00CF9401BA042D6
:101B0000FAD370BD000000202DE9F84FDFF8C8912E
:101B1000002409F1040A0AF1040B23460F270BF1F4
:101B2000040ED1E00125A54006EA0502AA4276D1BD
:101B3000DFF8A8C14E68A6EB0C0866452BD00DDC7B
:101B4000032E34D005DC36B3012E19D0022E2FD14E
:101B50001BE0112E16D0122E2AD119E0B8F5881FDD
:101B600019D006DCB8F5803F15D0B8F5801F1FD11D
:101B700011E0B8F5001F0ED0B8F5041F18D10AE027
:101B8000CB6815E0CB681B1D12E0CB6808330FE073
:101B9000CB680C330CE08B682BB1012B4FF00803A2
:101BA00003D0456104E0042302E0056100E0002366
:101BB000FF2A01D8064601E000F104064FEA840539
:101BC00001D9A5F12005D6F8008007FA05FC28EA1E
:101BD0000C0803FA05F548EA0508C6F800804D68C8
:101BE000ED0070D53E4DAE6946F00106AE61AD69BF
:101BF00024F0030605F0010500953A4D06EB050CAF
:101C0000DCF80850A607360F07FA06F825EA08059B
:101C1000DFF8D480404503D14FF0000825E052E0C2
:101C2000DFF8C880404502D14FF001081DE0DFF821
:101C3000C080404502D14FF0020816E0DFF8B480C2
:101C4000404502D14FF003080FE0DFF8AC8040457B
:101C500002D14FF0040808E0DFF8A080404502D12F
:101C60004FF0050801E04FF0060808FA06F848EAC8
:101C70000508CCF808804D68D9F80060ED034D46A2
:101C800001D5164300E096432E604D68DAF80060F7
:101C9000AD03554601D5164300E096432E604D68CE
:101CA000DBF80060ED025D4601D5164300E0964387
:101CB0002E604D68DEF80060AD02754601D5164312
:101CC00000E096432E60641C0A681646E2407FF4EA
:101CD00029AFBDE8F88F000000040140000011109A
:101CE000001002400000014000080140000C0140CB
:101CF000001001400014014000180140001C014088
:101D00008068084000D0012070470AB10161704727
:101D10000904FBE7014880687047000000000020CC
:101D200002488168027811448160704700000020F9
:101D3000074810B5016841F010010160032000F070
:101D400067F80F2000F006F800F024F8002010BD1E
:101D50000020024070B50D4D04464FF47A7128788A
:101D6000B1FBF0F00A490968B1FBF0F000F0BEFBEE
:101D700048B9102C07D200222146501E00F028F846
:101D800000206C6070BD012070BD000000000020CC
:101D90000C0000200C4808B5816941F00101816107
:101DA000816901F001010091C16941F08051C16177
:101DB000C06900F0805000900448416821F0E06163
:101DC00041F00071416008BD001002400000014078
:101DD000F0B40E4B1B680C46C3F30223C3F1070596
:101DE000042D00D90425191D072901D2002300E084
:101DF000DB1E012606FA05F1491E214099409E404E
:101E0000761E16403143F0BC00F011BE0CED00E030
:101E1000064900F0070208684FF6FF03184040EA41
:101E20000220034A10430860704700000CED00E0F8
:101E30000000FA0510B52CA401461DCC86B08DE833
:101E40001D002DA02D4C00680490002004292FD0E7
:101E50000BDC01292FD0022928D100F071F961682B
:101E6000C1F38131491C49001EE0082920D0102906
:101E70001CD161682268D20118D5C1F38342C9031D
:101E80001DF8020009D5616804AAC1F34041515C04
:101E90001B4AB2FBF1F1484301E01A49484361682B
:101EA000490203D440000321B0FBF1F006B010BD9D
:101EB00000F056F9FAE7226AC2F30121012903D1A1
:101EC000920701D5C803F1E7022905D1626A92079A
:101ED00002D549F64040E9E70329E7D121688903A3
:101EE000E4D54FF22440E1E70203040506070809A0
:101EF0000A0B0C0D0E0F1010010200000010024022
:101F000000127A0000093D002DE9F84305460078EB
:101F1000354CC00754D0E0690026C00008D4E06901
:101F200040F08050E061E069012600F080500090B0
:101F30002E480168C90512D40168804641F48071B9
:101F40000160FFF7E7FE074605E000BFFFF7E2FE8E
:101F5000C01B642823D8D8F80000C005F6D5206A35
:101F600010F4407021D0A98801F4407181421CD046
:101F7000206A1F49012220F440700A6000220A6092
:101F80002062C00711D0FFF7C5FE074641F288382E
:101F900008E000BFFFF7BEFEC11B414502D9032088
:101FA000BDE8F883206A8007F4D5206A696820F4C8
:101FB0004070084320621EB1E06920F08050E0616B
:101FC0002878800705D56068A96820F44040084358
:101FD00060602878C00605D56068696920F48000D3
:101FE000084360600020DBE7001002400070004002
:101FF000400442422DE9F0470F46050061D0434EB0
:10200000306800F00700B84209D2306820F00700BD
:1020100038433060306800F00700B84251D128687A
:102020003B4C810712D5400703D5606840F4E0605F
:1020300060602878000703D5606840F460506060F5
:102040006068A96820F0F000084360602878C00745
:1020500028D06868012810D02168022810D089078C
:1020600000292EDA616821F0030101436160FFF766
:1020700051FE804641F288390DE021688903EFE77F
:102080008901EDE7FFF746FEA0EB0801494502D9BB
:102090000320BDE8F0876068696800F00C00B0EBD1
:1020A000810FEFD1306800F00700B8420BD93068DB
:1020B00020F0070038433060306800F00700B84275
:1020C00001D00120E5E72878400705D56068E96878
:1020D00020F4E060084360602878000706D5606857
:1020E000296920F4605040EAC100606000F038F8CF
:1020F0006168084AC1F30311515CC8400649086091
:1021000006480068FFF726FE0020C2E700200240D4
:10211000001002400E4D00080C00002004000020BA
:102120000448054900684968044AC1F30221515C2A
:10213000C84070470C000020001002401E4D0008EF
:102140000448054900684968044AC1F3C221515C4A
:10215000C84070470C000020001002401E4D0008CF
:1021600012A185B00FC98DE80F0014A0144A0068B1
:1021700004905168134801F00C03042B10D0082B75
:102180000ED1C1F38343C9031DF803000AD551687A
:1021900004AAC1F34041515C0A4A5043B0FBF1F03C
:1021A00005B0704708494843FAE7000002030405F8
:1021B000060708090A0B0C0D0E0F10100102000093
:1021C0000010024000127A0000093D002DE9F84F8E
:1021D000040070D02078C04DC00749D06868C0F3B3
:1021E0008100012807D06868C0F38100022809D166
:1021F0006868C00306D52868800339D56068002860
:10220000E7D035E06068B0F5803F0BD010B1B0F595
:10221000A02F11D0286820F480302860286820F48E
:10222000802002E0286840F480302860606890B127
:10223000FFF770FD06460AE0286840F48020286019
:10224000F0E700BFFFF766FD801B642873D828689D
:102250008003F7D50CE0FFF75DFD064605E000BF03
:10226000FFF758FD801B6428F0D828688003F7D456
:1022700020789A4E80074FF001094FF0000839D5B9
:10228000686810F00C0F07D06868C0F3810002285E
:1022900009D16868C00306D42868800714D520696E
:1022A000012808D110E02069B0B1C6F80090FFF70E
:1022B00031FD074605E00AE1FFF72CFDC01B0228AF
:1022C000C4D828688007F7D52868616920F0F8002D
:1022D00040EAC10028600DE0C6F80080FFF71AFD53
:1022E000074604E0FFF716FDC01B022823D8286824
:1022F0008007F7D4207800072CD57948A169D9B197
:10230000C0F80090FFF706FD074604E0FFF702FD66
:10231000C01B02280FD8686A8007F7D571484FF4B0
:10232000FA510068B0FBF1F0009000BF0098411E28
:102330000091FAD20EE080E0C0F80080FFF7EAFCDE
:10234000074604E0FFF7E6FCC01B022875D8686A60
:102350008007F7D42078400760D5E8690027C000DF
:1023600008D4E86940F08050E861E869012700F08E
:10237000805000905C480168C90513D40168834609
:1023800041F480710160FFF7C5FC824606E000BFA2
:10239000FFF7C0FCA0EB0A0064284ED8DBF8000071
:1023A000C005F5D5E06801280AD008B1052813D08A
:1023B000286A20F001002862286A20F0040002E068
:1023C000286A40F001002862E06841F2883B98B139
:1023D000FFF7A0FC82460BE0286A40F00400286268
:1023E000EEE700BFFFF796FCA0EB0A0159455AD86B
:1023F000286A8007F6D50CE0FFF78CFC824605E0E2
:10240000FFF788FCA0EB0A0159454CD8286A8007E1
:10241000F6D41FB1E86920F08050E861E06988B324
:102420006968C1F38101022944D00228C6F860809E
:1024300004D0FFF76FFC044638E034E0FFF76AFC95
:10244000074604E0FFF766FCC01B02282BD828686B
:102450008001F7D4206AB0F5803F05D16868A16893
:1024600020F4003008436860D4E908010843696833
:1024700021F4741108436860C6F86090FFF74AFCC5
:10248000044606E025E000BFFFF744FC001B0228DD
:1024900009D828688001F7D51BE000BFFFF73AFC98
:1024A000001B022802D90320BDE8F88F28688001AC
:1024B000F4D40EE00128F7D06868226A00F4803175
:1024C000914204D1616A00F47010884201D0012069
:1024D000EAE70020E8E70000001002400000424266
:1024E000800442420C0000200070004010B5401EE5
:1024F000B0F1807F01D3012010BD4FF0E024606176
:102500000F21601700F093FA0020A06107202061DE
:10251000002010BD70B5040004D094F83D000025E3
:1025200010B106E0012070BD84F83C50204600F058
:1025300023F8242084F83D002068C16821F400516C
:10254000C160204600F0D0F92068016921F4904173
:1025500001612068416921F02A0141612068C16858
:1025600041F40051C1602564202084F83D0084F8C6
:102570003E00002070BD000030B585B000240094FE
:1025800001940294039400681449884224D11448A9
:10259000816941F480418161816901F48041049144
:1025A000816941F00401816180690E4D00F00400F1
:1025B00004904FF4007000900220019003200390DB
:1025C00069462846FFF7A0FA2815CDE900046946B8
:1025D00028460294FFF798FA05B030BD0038014054
:1025E00000100240000801402DE9F843044690F82D
:1025F0003D001F4616460D4620284CD1C5B1BEB140
:1026000094F83C00012846D0012084F83C004FF0AB
:102610000008C4F84080212084F83D00FFF77AFBD1
:10262000A6848146E684A068B0F5805F03D004E00C
:102630000120BDE8F883206928B12E465FF000052F
:1026400084F83C800EE00026FAE78021204600F066
:10265000A7F9A0B9AEB116F8010B21684860E08C6B
:10266000401EE084E08C4B464FF0000200970028AB
:10267000EBD14FF04001204600F092F930B1032039
:10268000D7E735F8020BC0F30800E6E7202084F80E
:102690003D000020CDE70220CBE7FEE702490860BD
:1026A00002490020087370471000002094000020A9
:1026B00070B51C48007B022801D01B4870BD01F09A
:1026C000D5F902F055F9194D294602F065F9184976
:1026D00002F08CF804460146284602F029FA154912
:1026E00002F05AF9214602F081F81349496802F0D4
:1026F0007DF801F0EDFF00F0EBFB4FF060420F4B77
:1027000001F0FCFE4FF080420D4B01F0E9FA024669
:102710000B4600200B4900F0BDFCBDE8704001F005
:10272000F1B9000094000020000080BF3333534013
:1027300000F07F45000020411000002051B8DE3F2E
:10274000E17AD4BF000024403EB500211148009139
:1027500001910F4A029102608160017301750124A9
:102760004FF460220461C2614160FFF701F808B1D3
:10277000FEF77AFF0A20CDE900040720029069469F
:102780000448FEF773FF002801D0FEF76DFF3EBD41
:1027900000240140200000202DE9F04186B00020F7
:1027A00000900190029003901C48816941F0400123
:1027B0008161816901F040010491816941F010015A
:1027C0008161816901F010010491816941F0040186
:1027D00081618069124F00F00400049001220821F9
:1027E0003846FFF792FADFF83C800122022140468A
:1027F000FFF78BFA08201124012503268DE87100CC
:1028000069463846FFF780F902208DE87100694675
:102810004046FFF779F906B0BDE8F08100100240AC
:1028200000180140001001400C4810B50A49016031
:102830004FF4E1314160002181600C22C160C0E9A8
:1028400004128161C161FFF765FE002803D0BDE875
:102850001040FEF709BF10BD0038014050000020B5
:10286000FEE7FEE770477047FFF75ABA30B595B0FC
:1028700028216846FDF7B9FD14210AA8FDF7B5FD2A
:1028800018210FA8FDF7B1FD01210804CDE90010C2
:102890000025029502240491CDE907404FF4E01091
:1028A00009906846FFF792FC08B172B6FEE70AA9E4
:1028B0000F2081E831004FF48060CDE90D05022141
:1028C0000AA8FFF797FB08B172B6FEE74FF4004085
:1028D00011900F940FA8FFF717FB002801D072B6D4
:1028E000FEE715B030BD704770B504460068016959
:1028F000E26821F44051114301612169A068084355
:10290000616908432168CA6841F20C639A43024333
:10291000CA6020684169A26921F440711143416194
:102920001E492068884202D1FFF70AFC01E0FFF748
:10293000F7FB00EBC00101EB00126068642180002E
:10294000B2FBF0F3B3FBF1F36FF018067343B2FB85
:10295000F0F5B2FBF0F605EB8305322303EB05152A
:10296000B5FBF1F5B6FBF1F605F0F00505EB061544
:10297000B2FBF0F6B2FBF0F0B0FBF1F06FF0180232
:10298000504306EB800003EB0010B0FBF1F0216830
:1029900000F00F002844886070BD0000003801403E
:1029A0002DE9F041984617460E460446069D1DE067
:1029B000681C1BD02DB1FFF7ADF9A0EB0800A842B1
:1029C00014D92068C16821F4D071C16020684169C0
:1029D00021F001014161202084F83D0084F83E008F
:1029E000002084F83C000320BDE8F08120680068E6
:1029F00036EA000004D00020B842D9D00020F3E726
:102A00000120F9E7FEE7490050EAC12018BF042081
:102A10004A0D18BF40F0010040F2FF72B2EB515F67
:102A200008BF40F00200012808BF052070470907D1
:102A3000090E002804DB00F1E02080F80014704744
:102A400000F00F0000F1E02080F8141D70472DE920
:102A5000F0414F1E00EBC7010446D1E900011546C5
:102A60001E4637F006020DD02A46334601F020FB01
:102A70007F1E04EBC703D3E9002301F075F837F09C
:102A80000602F1D1022F25D0042F13D0062F18BF34
:102A9000BDE8F0812A46334601F00AFBD4E90A2357
:102AA00001F062F82A46334601F002FBD4E908231C
:102AB00001F05AF82A46334601F0FAFAD4E906231F
:102AC00001F052F82A46334601F0F2FAD4E9042321
:102AD00001F04AF82A46334601F0EAFAD4E9022323
:102AE00001F042F82A46334601F0E2FAD4E9002325
:102AF000BDE8F04101F038B8002213461046014904
:102B000001F0EEB80000F03F012202F0BAB801F087
:102B10002BB8002213461046114601F0E1B840F2EE
:102B2000013200204FF0E04102F0ABB8024A002031
:102B3000110702F0A6B8000001FDFFFF30380A2897
:102B400001D2012070470020704700000649074A63
:102B50000968B1FBF2F1064A4143506853681B1AF9
:102B60008B42FBD3704700000C00002040420F0056
:102B7000001000E02DE9F04DC84A002490B09142C9
:102B800005DA21F00043934201D805D120B110B0FD
:102B9000BDE8F04DFFF7B8BFB1F5801F1BDA53EA6F
:102BA000000209D0002911DA0120FDF74DFC10B018
:102BB000BDE8F04DFFF7ADBF0220FDF745FCFFF784
:102BC0009BFF10B081F00041BDE8F08D6FF035043F
:102BD000362202F056F804EB2152C1F31308B04933
:102BE000A2F2FF33414401F4801282F07F6103EBD3
:102BF000225281F04051009241EA08010022A94B83
:102C000001F07CFC044608F10200A74EC0F313005B
:102C10000D467E44032867D2D6E90023204601F002
:102C2000B7F91ED10098002802BFD6E9000110B004
:102C3000BDE8F08D01F0E8F907460C469B4A9C4B35
:102C400001F036FA06460D469A4A9B4B3846214615
:102C500001F02EFA10B032462B46BDE8F04D00F0E0
:102C600083BF4FF05532954B2046294601F020FA9C
:102C70000022934B01F050FB06460F4622462B469E
:102C80001046194601F014FA32463B4601F010FA9C
:102C9000064600980F46F0B101F0B6F980468A4624
:102CA000824A834B01F004FA32463B4601F034FB82
:102CB00022462B4601F022FC05460C467D4A7E4BFF
:102CC0004046514601F0F4F910B02A462346BDE8CB
:102CD000F04D01F013BC0B4610B032462046294699
:102CE000BDE8F04D01F00ABC00224FF080432046C1
:102CF00000F03AFF02460B462046294600F0F0FF5E
:102D000006460F46009801F07FF9CDE904013246EE
:102D10003B461046394601F0CBF90C9069480C9AB5
:102D20004044019009910B46104601F0C1F98246DA
:102D3000024665488B46C8F151080B4608F5D7286E
:102D400003217844FFF783FE52465B4601F0B0F959
:102D50000A905E480D9152465B4604217844FFF785
:102D600076FE099B0C9A01F0A3F9844601980D9B0D
:102D700040EA080860460A9A00F0F6FE8346089189
:102D8000B8F1000F4EDD4FF0FF322046294601F02A
:102D900078FF22462B4601F08BF9804600988A4640
:102DA00060B3DDE90401414A414B01F081F9099129
:102DB00000905A4640465146089B00F0D5FE3246E8
:102DC0003B4601F075F9099B009A00F0CDFE4246A2
:102DD000534601F0A1FA22462B4601F08FFB044630
:102DE0000D46DDE90401334A334B01F061F910B0BF
:102DF00022462B46BDE8F04D01F080BB5A464046C6
:102E0000089B00F0B1FE32463B4601F051F94246C4
:102E1000534601F081FA10B022462B46BDE8F04D32
:102E200001F07ABA009840B3DDE904011F4A204B53
:102E300001F03EF980468A465A4620462946089BBC
:102E400001F05CFB32463B4601F032F94246534604
:102E500001F054FB22462B4601F050FB04460D4680
:102E6000DDE90401134A144B01F022F910B02246A7
:102E70002B46BDE8F04D01F041BB0B465A462046BB
:102E8000294601F03BFB32463B4601F011F910B0F8
:102E900022462B46BDE8F04D01F03EBA0000F07F1F
:102EA000645F09000000F03FD2210000763C7935D4
:102EB000EF39EA3D0000E0FE422EE63F5555D53F92
:102EC0000000E03F86EBF9FF6A2000006820000068
:102ED0002DE9F041044630480025814205DA21F011
:102EE0000042824201D805D124B12046BDE8F0411C
:102EF000FFF70ABEB1F5801F1BDA52EA040008D0C2
:102F000000290FDA0120FDF79FFABDE8F041FFF735
:102F100000BE0220FDF798FAFFF7EEFD81F00041B8
:102F2000BDE8F0816FF035053622204601F0A9FE9C
:102F3000044605EB2150A0F2FF32D00F40F2FF33E0
:102F40001B1A0D4663F31F55104401F05DF8064649
:102F50000F4629462046FFF70DFE104A104B01F0A0
:102F6000A7F804460D460F4A0F4B3046394601F08C
:102F70009FF822462B4600F0F7FD05460C460B4A0B
:102F80000B4B3046394601F093F82A462346BDE8FC
:102F9000F04100F0E9BD00000000F07F0EE52615CD
:102FA0007BCBDB3F362BF111F3FE593D00609F5088
:102FB0001344D33FA6B0FEF7BBFEFFF757FCFEF766
:102FC00041FBFFF7E9FBFFF72FFCFFF7BDFB0821F3
:102FD0001848FEF77BFA1848FFF760FB4FF4967429
:102FE0004FF4FA6503A8FEF777FA48B113A1234618
:102FF00014221748FFF7F8FA2846FEF773FDF1E7A9
:10300000FFF756FB01F064FBCDE904019DF80D00CC
:103010009DF80F209DF80E108DE807009DF80C30EC
:103020000CA2802106A8FDF701F982B2234606A969
:10303000DFE7000000180140200000204448543120
:10304000312052656164204572726F72210D0A0051
:103050005000002048756D69646974793A202564D0
:103060002E256425252C2054656D7065726174755C
:1030700072653A2025642E256420432C204D65740A
:1030800068616E653A20252E31662050504D0D0A3C
:10309000000000002DE9F04D1D460C4698B0174683
:1030A00021F0004123F00043002814BF4FF0010C31
:1030B0004FF0000C0CEB440CFE4A0CEB02064FEAFE
:1030C000620C66452BD33E0018BF012606EB450671
:1030D0001644F94A964222D3F84A53EA070C02D022
:1030E000944205D148B918B000201146BDE8F08DD2
:1030F000002808BF4FF0000C01D04FF0010C0CEB82
:10310000440212F5001F0AD8002F14BF4FF0010C23
:103110004FF0000C0CEB450212F5001F07D918B058
:103120003A462B462146BDE8F04DFFF7F0BC0022A1
:10313000DFF88CA3002CB8BF534526DADFF884C330
:103140006345A8BF022220DADFF870C39C451CDC6F
:10315000DFF874C30CEB235CBCF1140F08DDCCF179
:10316000340627FA06FC0CFA06F6BE420DD108E03A
:103170005FB9CCF1140623FA06FC0CFA06F69E425F
:1031800003D10CF00102C2F1020251EA000C19D184
:10319000002D17DA002C18BF022A01D0012A07D00F
:1031A0000220FDF751F918B0BDE8F04DFFF7A4BCBF
:1031B0000220FDF749F9FFF79FFC18B081F00041AC
:1031C000BDE8F08DB7F1000C6CD1534525D104F169
:1031D000804212F5801201BF00280020B74918B0C4
:1031E00008BFBDE8F08DB548884207DC002DA1BFBF
:1031F0006046294618B0BDE8F08D07E0281E05DAC4
:1032000080F0004118B06046BDE8F08DAF497944C8
:10321000D1E9000118B0BDE8F08DDFF8A0C2634528
:1032200025D1002D1FDA19B1514512D1D8B909E0C5
:10323000002840F0EC82A24A214618B062F31E0139
:10324000BDE8F08D0020214618B060F31E01BDE8F6
:10325000F08D08DA18B02346BDE8F04D0246002094
:10326000614600F03DBD18B02146BDE8F08D5145E6
:1032700018DAB5F1804F0DD0A5F1005CBCF1FF5C10
:1032800010D1B4F1000C0DDB18B06146BDE8F04D73
:1032900000F0FCBB234618B00246BDE8F04D1946CD
:1032A00000F006BF060024F0004C3BD1D9B15145D7
:1032B00033D1002C06DD002DA1BF0020514618B0EF
:1032C000BDE8F08D002C01DD002D1BDB002C13DA96
:1032D000002D11DB012A4FF0000014BF78497C4912
:1032E00018B0BDE8F08D022A18BF002C0AD0012AC0
:1032F00008D1002C06DA0AE0002CB8BF002D11DA44
:10330000012A04D0002018B00146BDE8F08D18B0A5
:1033100000204FF00041BDE8F08DA1F14050B0F128
:103320007F601AD0012000EBE47050EA020421D043
:10333000624C521E4FF0000B104304BF4FF0000BC5
:10334000644C654883427CDD644A654893421FDDD6
:10335000884217DB002D25DB37E0002C00DA4AB16C
:10336000022A0CBF01204FF0FF3018B0BDE8F04D2D
:1033700000F04ABE0120FDF767F818B0BDE8F04D37
:10338000FFF7C7BB4D4A8A4202DC002D0ADC1CE075
:10339000814202DA002D18DA04E0484B994220DD20
:1033A000002D12DD0220FDF74FF8FFF7B8FB0546B0
:1033B0000E46002253465846214600F079FE18B0CA
:1033C00066F31E012846BDE8F08D0220FDF73CF8AB
:1033D000FFF7ACFB0A46214618B062F31E01BDE8B8
:1033E000F08D00223046614601F088F880460E4696
:1033F0006FF0010201F045FC4FF05532394B00F0FF
:103400008BFF4246334600F053FE0022364B00F05D
:1034100083FF82464246334604911046194600F027
:1034200047FE5246049B00F043FE8A4600904FF050
:10343000C0422E4B4046314600F03AFE2C4A2B4B00
:1034400000E027E0CDE906015146009800F030FE8B
:1034500082460191274A284B4046314600F028FE1B
:103460005246019B01F04AF882460B4602460591FE
:10347000DDE9060100F078FBDDE906230026884639
:10348000304601F03BF85246059B00F045FF0246EE
:1034900000F07EB90020B1F5801F07DA35223046F2
:1034A000614601F0EEFB06466FF0340000EB215060
:1034B00024E00000FFFF1F00FFFF0F000000F03FAF
:1034C0000000F07F0000404301FCFFFFD61B00001E
:1034D0000000F0FF0000F0BF0000E0410000F043FA
:1034E000FFFFEF3F5555D53F0000E03F4715F73F41
:1034F000FE822B6544DF5DF80BAE543EA0F2FF3038
:103500000190C1F3130040F07F6141F040510291FE
:10351000FE498842D8BF002004DDFD498142C8BF72
:10352000012001DD0D9008E000200D900198401C65
:1035300001900298A0F5801002900299F548784415
:103540000B910D9900EBC100D0E900230F93304699
:103550000A920B9900F0D2FFCDE90601DDE90A21BC
:1035600030460F9B00F000FB02460B460020EA4964
:1035700000F0B6FB059102460B460090DDE906011E
:1035800000F096FD1490E5488A464FF00008784414
:103590000299006812904FF0005040EA61010D98C6
:1035A0000F9B01EB804000F5002109910A9A1298C7
:1035B00000F0A4FF32460B9B00F0AEFE424653469D
:1035C00000F076FD0646029140465146099B129A4C
:1035D00000F06EFDDDE9062300F09EFE3246029B00
:1035E00000F08CFF059B009A00F062FD0091149A98
:1035F000049053461046194600F05AFD064602460E
:10360000C7480B46029106217844FFF720FACDE91E
:103610000510029B32461046194600F049FDDDE9CF
:10362000053200F045FD05910646534640461946D1
:10363000149A00F099FA009B049A00F039FD324682
:10364000059B00F091FACDE905104246534610461D
:10365000194600F02DFD0022B24B02910A9000F0B5
:1036600083FADDE9053200F07FFA0E464246AD4BA3
:10367000404600F043FF029B0A9A00F03FFFDDE95D
:10368000053200F049FE424602910A903346104648
:10369000514600F00DFDCDE906015346149A0299FA
:1036A0000A9800F005FD8A4602903346424600998A
:1036B000049800F0FDFC5346029A00F055FA824649
:1036C0000B4602460591DDE9060100F04DFADDE901
:1036D000062300208846064600F010FF5246059B50
:1036E00000F01AFE824609914FF060428E4B304640
:1036F000414600F0DDFC049006918C4A8A4B50460E
:10370000099900F0D5FC82460291894A894B3046DE
:10371000414600F0CDFC5246029B00F025FA864B54
:103720007B440D9A03EBC203D3E9002300F01CFA9B
:103730000E900791019800F067FC0591DDE90613F2
:1037400082460E9A049800F00FFA7C4A7A440D9B48
:1037500002EBC303D3E900230093029200F004FAC2
:103760005246059B00F000FA002688465246304635
:10377000059B00F0C3FE009B029A00F0BFFE069B73
:10378000049A00F0BBFE079B0E9A00F0C5FD0246AE
:1037900000200B4602903846294600F089FC8246FC
:1037A00001912B4638461946029A00F0A7FE324690
:1037B000434600F07DFC5246019B00F0D5F90746D8
:1037C0008A46324643462946029800F071FC054677
:1037D0000E463A46534600F0C7F9594A8846914288
:1037E00021DBA8EB020353EA000210D12A4633463C
:1037F00000F084FECDE90401524A534B384651464D
:1038000000F0B2F9DDE9042300F050FD21D20220DE
:10381000FCF71AFEFFF783F90A46214618B062F357
:103820001E01BDE8F08D494B28F000429A4210D3AA
:10383000474A08EB020353EA00027FF4C6AD2A466A
:10384000334600F05BFE3A46534600F02FFD7FF60C
:10385000BCAD0022019228F000403E493E4A01EBF7
:103860002051824223DA481C4FF4801121FA00F0E3
:1038700040443A4AC0F30A517A44394BA1F2FF312D
:10388000CB4020EA0303C0F3130040F48010C1F1E1
:103890001401C84012680190B8F1000FBCBF40424B
:1038A00001902846314600F029FE05460E462A467C
:1038B00033463846514600F057F94FF0000842466B
:1038C000284B4046059100F0F3FBCDE90601264A5E
:1038D000264B4046059900F0EBFB009102902A46EA
:1038E00033464046059900F009FE3A46534600F03B
:1038F00013FD1F4A1F4B00F0DBFB009B029A00F0F8
:1039000033F90746884602460B4635E08E98030099
:103910007AB60B00E61700000000F03F56180000D2
:103920004C1700000000084009C7EE3FFD033ADCD9
:10393000F5015B14E02F3EBE24160000E8150000E0
:1039400000009040FE822B654715973C00CC9040CC
:1039500000346F3F01FCFFFF0000E03F6C150000EA
:10396000FFFF0F00432EE63F396CA80C615C20BEC0
:10397000EF39FAFE422EE63FDDE9060100F0F4F8E9
:10398000DDE9062305460E4600F0B8FD3A464346FB
:1039900000F0C2FC0F462A463346009010461946F6
:1039A00000F086FB824602462E4888460B460521DB
:1039B0007844FFF74CF85246434600F079FB2A461C
:1039C000334600F0A9FC80468A463B4628463146ED
:1039D000009A00F06DFB3B46009A00F0C5F8069196
:1039E000009000224FF080434046514600F086FD93
:1039F0000F460C90424653462846314600F058FB8D
:103A00003B460C9A00F06CF9069B009A00F076FD9C
:103A10002A46334600F072FD0022134B00F07CFC76
:103A2000054601980E4601EB00510815002810DCF0
:103A300028463146019A01F024F9FEF7E4FF0428F4
:103A400008BFFFF773F828463146019A01F019F9CB
:103A500005460B4618B02A4658462146BDE8F04DAB
:103A600000F026BBD41300000000F03F10B5064C58
:103A70002068FDF7D7FF64212068FDF735FF206837
:103A8000BDE81040FDF770BE100000202DE9F041A8
:103A900006460F4600F04CFC041E0D4618BF0120E0
:103AA000284320F00040C0F17F6000F1E040C00FEB
:103AB0000ED0301C18BF0120384320F00040C0F168
:103AC0007F6000F1E040C00F04BF0120FCF7BCFCA8
:103AD00020462946BDE8F08110B500290AD00878B3
:103AE000002807D005487844FDF774F8002801D075
:103AF000002010BD0248784410BD0000BE13000035
:103B0000B613000021F00042A2F16052B2F5801F0E
:103B100001F0004328BFD2F17F6C0BD95FEA001C93
:103B200043EAC20242EB507018BF704728BF20F032
:103B300001007047B2F5801FBCBF184670474FEABE
:103B4000410C1CF5001F02D2084600F0ECBF70B516
:103B500000F058FB00000089FFF7F6BF4FF000406F
:103B6000A0F580007047000010B591EA030F48BF30
:103B700083F0004300F1CA84841A71EB030C05D270
:103B8000121943EB0C03001B61EB0C01DFF824E17D
:103B90004FEA1154A4EB135C1EEA430F18BF9EEAD0
:103BA000445F73D023EA0E03DCF1200E21EA0451B6
:103BB00043F4801332D322FA0CFE10EB0E0023FAEA
:103BC0000CFE41EB0E01CCF1200E03FA0EFE10EBC1
:103BD0000E0051F10001B1F5801FCCF1200E32D260
:103BE00001EB045112FA0EF2BDE8104058BF7047C5
:103BF000401C38BF5FEA420218BF7047002814BF5C
:103C000020F0010041F100014FEA410313F5001FCC
:103C100038BF7047A1F1C04100F042BB012A43EB1D
:103C20000302ACF1200CDCF11F0E32BF4FF0000E8E
:103C300023FA0CF310EB030041EB0451B4EB115FDA
:103C4000D0D0A1EB045101F5801149085FEA3000A2
:103C500001EB04510ED350F1000038BF12FA0EFEF2
:103C600008D1BDE81040C9E7401C38BF5FEA4202F6
:103C7000CAD1C3E7BDE810404FEA410313F5001F66
:103C800038BF7047A1F1C04100F00ABB9EEA445F13
:103C900008D011EA5E0FBDE8104004BF01F00041FA
:103CA00000207047BDE8104070B500F0ABFA00BFCF
:103CB00064FBBE3E0000E0FF02494FF0000000F050
:103CC000AEBF00BF0000F87F491058BFC1F14041AE
:103CD0005B1058BFC3F140438B42EFF30080704745
:103CE0002DE9C04130B4DFF8A0C23CEA111418BF7E
:103CF0003CEA131400F0EC8081EA03051CEA11147D
:103D000044EAD57418BF1CEA131500F0C780A4EB71
:103D100005044FF0004545EAC12145EAC32341EAC5
:103D2000505143EA525304F17F74994204F5003430
:103D30004FEAC0204FEAC22208BF904200F09C80A8
:103D40004FEA13650FF24016765D4FEA134506FB06
:103D500005F7C7F1807706FB07F74FEAD737A7FBD0
:103D600003687642C8F58038A7FB06CE38BFA8F1B5
:103D7000010807FB08E64FF0000EA6FB028CE6FBED
:103D800003CEDCF1000CCEF1004E38BFAEF1010ED7
:103D9000A6FB0C584FF000074FF00005E6FB0E871E
:103DA000A1FB08C6A0FB07CE16EB0E0645F10005E9
:103DB000E1FB076515F1E04E7EBFA4F580345FEAB4
:103DC00046066D4116F1800745F100054FEA1727B9
:103DD0004FEA066647EA0567A6F1DE46B6F1805F60
:103DE0004FEA15251FD9384624F0010C05EBC471A4
:103DF000BCF1FE6F01EB0C1102D8F0BCBDE80081F4
:103E000024425CBF01F5801E9EEAC47F02D4F0BC50
:103E1000BDE80081244238D4F0BCA1F1C041BDE826
:103E2000004100F03DBA4FEAD22242EA43524FEA43
:103E3000D323A7FB02864FEAD02040EA415007FB7C
:103E400003661EEA0E0F4FEAD12105FB026658BF3A
:103E5000A6EB0056B6EB00564FEA520E4EEAC37E72
:103E600018EB0E0E56EB530EBDD518EB02085E4153
:103E70007F1C55F10005B6E74FF480154FF00007A1
:103E80004FF000064FF00008ADE7F0BC4FF0000027
:103E900001F1C04101F00041BDE8008111EA0C1FB1
:103EA0000CEA131500D00CE013EA0C1F00F025807B
:103EB0004FF00000F0BC81EA030101F00041BDE8D1
:103EC0000081F0BCBDE8004181EA030100F0E8B9DF
:103ED000F0BCBDE8004170B500F094F9097EFC3EED
:103EE00000F007B881EA03014FF0000001F0004143
:103EF000704781EA030100F0D3B9F0BCBDE800418E
:103F00004FF0000021497047FFFDFBF9F7F5F4F28F
:103F1000F0EEEDEBE9E8E6E4E3E1E0DEDDDBDAD864
:103F2000D7D5D4D3D1D0CFCDCCCBCAC8C7C6C5C4C2
:103F3000C2C1C0BFBEBDBCBBBAB9B8B7B6B5B4B3D9
:103F4000B2B1B0AFAEADACABAAA9A8A8A7A6A5A4C4
:103F5000A3A3A2A1A09F9F9E9D9C9C9B9A99999888
:103F60009797969595949393929191908F8F8E8E2B
:103F70008D8C8C8B8B8A89898888878786858584B8
:103F800084838382828181800000FF070000F87FA4
:103F900051EA030C17D41CF5801F58BFBCF5801FD5
:103FA00000F10680994218BF704708BF90427047E1
:103FB00007D711F5801F58BF13F5801F19D49942F8
:103FC0007047894270471CF5801F08D5BCF5801FDB
:103FD000F7D58B4218BF704708BF824270474FF435
:103FE000001C1CEB410F38BF1CEB430F01D28B426E
:103FF000704770B500F006F9922449004FF0005167
:104000004FF08053FFF760BE10F0004248BF4042BF
:10401000B0FA80F310FA03F10AD0C3F11D0303F5DF
:1040200080634FEA415002EB035202EBD12170470B
:104030004FF000007047000051EA030C17D41CF544
:10404000801F58BFBCF5801F00F10680994218BF41
:10405000704708BF9042704707D711F5801F58BFBF
:1040600013F5801F19D499427047894270471CF597
:10407000801F08D5BCF5801FF7D58B4218BF70474D
:1040800008BF824270474FF4001C1CEB410F38BF41
:104090001CEB430F01D28B42704770B500F0B2F8B1
:1040A000922449004FF000514FF08053FFF70CBEAF
:1040B000DFF848C170B51CEA111E1EBF1CEA1315BB
:1040C0009EEA0C0F95EA0C0F00F06F8081EA030462
:1040D00023EA4C134EEAD47E21EA4C1141F48011BC
:1040E00043F48013AE44A1FB024CA0FB0365AEF188
:1040F0007F7E361955EB0C05A1FB034C4CF10003F8
:10410000A0FB021C16EB0C06654153F100030942AB
:1041100018BF46F0010613F4007F0BD14FEA0331BC
:104120004FEA0530340341EA155140EA16506FF06A
:1041300003020AE04FEAC3214FEAC520F40241EA34
:10414000555140EA56506FF0020202EB2E4201EB4D
:10415000025585EACE710AD05FEA440C18BF24F0FC
:10416000004450F1000041F1000120EAD47040F217
:10417000FE7C624500D270BDA84214BF4FF080445F
:104180004FF04044002E08BF0024BEF1806FA8BF4E
:10419000A1F1C041BDE8704080F282804FF0000084
:1041A00001F1C04101F0004170479EEA0C0F0CEA9A
:1041B000131518BF95EA0C0F06D04FF0000081EAE6
:1041C000030E0EF0004170BD00F01CF88900013EA6
:1041D00000F007B800F009B84FEA430C5FEA5C5CF6
:1041E00008D081EA030100F05BB84FEA410C5FEAB6
:1041F0005C5CF6D14FF00000014970470000FF07FA
:104200000000F87F0EF1020E2EF0030E5EF8046B34
:10421000364205D4012A43EB030515F5001F12D8D9
:10422000012841EB010C1CF5001F0CD80ED14FEA00
:10423000D17C15F5001F0CEB4C0C0CF1020C08BFE7
:104240004CEBD37C04E04FF0080C01E04FEAD37C48
:104250000CEB4C0526FA05F606F00706B6F1040C41
:1042600006D20EEB860CBDE870404CF0010C6047A6
:10427000DFE80CF0090B02024FF000414FF00000A4
:10428000A1F5002170BD19461046012851EB01042B
:1042900018BFD4F5001484BF002001F0004170BDA8
:1042A0000808A0F500114FEA3101704753EA010CEC
:1042B00017D41CF5801F58BFBCF5801F00F1068085
:1042C0008B4218BF704708BF8242704707D713F56B
:1042D000801F58BF11F5801F19D48B4270479B4235
:1042E00070471CF5801F08D5BCF5801FF7D5994293
:1042F00018BF704708BF904270474FF4001C1CEB7A
:10430000430F38BF1CEB410F01D2994270470FB4E5
:104310000CBC03BCFFF7C1BE91EA030F10B581F0DE
:1043200000413FF529AC83F0004300F0EFB80000F6
:104330002DE9F04101F5801CBCF5001FC0F2C380DF
:104340004FEA115C21EA0C510CF1FD0C41F4801193
:104350005FEA5C0C0CF5C07C01D3400049413DA4F0
:10436000890241EA905187028E0E0A0CA45D04FB7B
:1043700004F602FB06F6C6F14046A4FB0662F60D03
:1043800046EA422606FB06F4A4FB01235242C3F18F
:10439000404338BF5B1EA6FB02420024E6FB032419
:1043A000D20B42EA4446A6FB0623A1FB02E2A3FB92
:1043B00007E4A4184FF0000252F10002E3FB0142AF
:1043C0006442C2F1404E38BFAEF1010EA6FB042399
:1043D0004FF00002E6FB0E32A2FB03464FF0000452
:1043E000B61954F10004E2FB0264A1FB06E6A4FB4B
:1043F00007E816EB08064FF0000858F10008E4FB48
:1044000001687642C8F1405838BFA8F10108A2FB04
:1044100006E4A3FB08E52D194FF0000454F1000455
:10442000E2FB0854A1FB05E6A7FB04E818EB06082D
:104430004FF0000656F10006E1FB048618F1200556
:1044400056F10006A809A8F11B08B10908F03F08B9
:10445000B8F10A0F40EA86601CD901EB0C51BDE8A7
:10446000F08100BFFCF5EEE8E2DDD8D3CFCBC7C3C7
:10447000C0BDB9B6B4B1AEACA9A7A5A3A19F9D9B81
:104480009A9896959392908F8D8C8B898887868544
:1044900084838281A0FB006800FB01F208EB4208E4
:1044A000B8EB872807D5341858EB0104D5D5401C44
:1044B00051F10001D1E7341A78EB0104CDD4401E4C
:1044C00071F10001C9E75FEA4C0C5FEA9C5C0DD119
:1044D00005D34FF0000001F00041BDE8F081BDE8D8
:1044E000F04170B5FFF78EFE6DDBFFBEBDE8F04119
:1044F0004FF00000004970470000F87F10B591EAC6
:10450000030F48BF83F000433FF536AB841A71EBCD
:10451000030C07D212198CF0004C43EB0C03001B68
:1045200061EB0C01DFF8A4E14FEA1154A4EB135C3A
:104530001EEA430F18BF9EEA445F00F0B08023EAF2
:104540006E03524221EA0451C3EB6E0338BF5B1E77
:10455000DCF1200E25D322FA0CFE10EB0E0043FAFC
:104560000CFE41EB0E01CCF1200E03FA0EFE10EB17
:104570000E0051F10001CCF1200E29D412FA0EF2F6
:1045800001EB0451BDE8104058BF7047401C1CBFF0
:10459000B2F1004F704700280CBF491C20F0010009
:1045A000704712EB020E43EB030218BF4FF0010EEF
:1045B0004EEA4202ACF1200CDCF11E0E54D943FA53
:1045C0000CFE10EB0E0051F1FF31CCF11E0ED5D5D3
:1045D0000EF1010E12FA0EFE404141EB010101EB1A
:1045E000445C5FEA5C5C10D910EBDE7001EB0451B7
:1045F00038BFBEF1004FBDE8104018BF704700281B
:104600000CBF491C20F00100704730D24FEAD42C77
:1046100011F5001124F400641BD0B1FA81F20B3AB9
:10462000A41AA41ED2F12003914030FA03F31943D7
:10463000904001EBCC71002C01EB0451BDE810401F
:10464000A8BF704701F1C0414FF0000001F00041E8
:104650007047B0FA80F310FA03F100D110BDE41AEC
:10466000173C4805C90AE4E701EB045110BD4910A5
:1046700001EB0451BDE810404FEA300002E04FF07A
:10468000000170474A0008BF0042F8D0B2F5001F91
:1046900028BF704701F000414FF0000070479EEACC
:1046A000445F07D011EA5E0FBDE8104004BF00214F
:1046B00000207047BDE8104070B5FFF7A3FD00BFB4
:1046C00040DFF63E83F00041104670470000E0FFF7
:1046D00043004FEAD30C4FEA3C0C43401FBF400756
:1046E0000CF1605113F0FE4F70471CF0006F03D1C6
:1046F00000200CF0004170470CF0004343EA50707A
:1047000010B540EACC0000F0C8F900BF00000092EC
:104710004FEA0001FFF7C4BD4FF000414FF0000029
:10472000A1F500217047000090EA010F48BF81F019
:10473000004100F10482421A3CBF801A89184FEAF6
:10474000D0524FF07F4C1CEA410FA2EBD15318BF5F
:104750009CEA026F00F03B804FF0004C4CEA0020D6
:104760004CEA012121FA03FC10EB0C0C1ED202F1E1
:10477000FF325FEA1C2040EBC25038BF70471CF08C
:104780007F0F4FEA400C18BFBCF17F4F38BF704716
:10479000C3F12003994008BF20F00100BCF17F4F16
:1047A00038BF7047A0F1C04000F0BDB94FEA3C00EF
:1047B000000A40EBC25028BF1CF0FF0F4FEA400C2C
:1047C000E6D018BFBCF17F4F38BF7047EAE79CEADC
:1047D000026F05D010EA5C0F08BF00F00040704780
:1047E00010B500F05AF900BF64FBBE3E4FF47F0CD9
:1047F0001CEAD0121EBF1CEAD11392EA0C0F93EAF6
:104800000C0F00F0858090EA010F48BF42F48072DF
:1048100040F4000C41F400002CF07F4120F07F4078
:1048200000B58142A2EB03020FF2081CACEB504E24
:10483000C0F100009EF800E04FEA4E0E00FB0EFCB7
:1048400038BF49004FEA2C1C02F5FA020CFB0EF3AC
:104850004FEACE1E4FEA112C4FEAC1210EEB635EE8
:1048600042EB22420EFB0CFC4FEA1C5300FB0311EF
:104870004FEA112C4FEA01310EFB0CFC4FEADC4CE5
:1048800000FB0C11C14228BF09184CEB03335DF843
:1048900004EB10EB410143EBC250B2F57C0F38BF83
:1048A000704729D512F0F00F1CBF00F1C04000F096
:1048B00000407047008182838485868788898B8C3D
:1048C0008D8E8F919293959697999A9C9D9FA0A279
:1048D000A3A5A7A8AAACAEB0B2B3B5B7B9BCBEC0C9
:1048E000C2C5C7C9CCCED1D4D7D9DCDFE2E6E9EC6A
:1048F000F0F3F7FAFE0000004FEA400C0CF1807C68
:10490000BCF17E4F28BF7047B0F1C04000F00BB93A
:1049100090EA010F0CEAD11348BF42F4807262455D
:1049200038BF634507D213F47F0F16D080EA010029
:1049300000F00040704710B500F0AFF8097EFC3E73
:1049400000F005B880EA010000F00040704780EAFE
:10495000010000F0004000F0E6B812F47F0F04BF41
:104960000248704780EA010000F0DDB80000C07F17
:10497000B0FA80F310FA03F2C3F19D030AD0D9050F
:1049800001EB1220530638BF704700F1010008BF49
:1049900020F00100704700004FF47F0C1CEAD01299
:1049A0001EBF1CEAD11392EA0C0F93EA0C0F00F021
:1049B000478090EA010F48BF42F480724FF0004CEC
:1049C0004CEA00204CEA012102EB0302A0FB011398
:1049D000A2F50002002918BF43F001035B0028BFC5
:1049E0004FEA330342EB22425FEA132C4CEBC250F6
:1049F0002EBFBCEB436FB2F57C0F70474FEA036CE0
:104A0000BCF1004F08BF20F00100B2F57C0F38BFA9
:104A100070470BD582F0FF0212F5803FC8BF704788
:104A200000F1C040D8BF00F00040704700F5000C16
:104A30005FEA4C0C48BF7047B0F1C04000F073B85B
:104A400090EA010F0CEAD11348BF42F4807262452C
:104A500038BF634504D280EA010000F0004070478F
:104A600010B500F01AF800BF8900013E00F007B849
:104A700000F009B85FEA410C5FEA1C6C08D080EADC
:104A8000010000F050B85FEA400C5FEA1C6CF6D100
:104A90004FF00040A0F5800070470EF1020E2EF09E
:104AA000030E5EF8044B244204D44FEA4102B2F1F3
:104AB0007F4F11D84FEA4003B3F17F4F0CD80ED18E
:104AC0004FEAD07CB2F17F4F0CEB4C0C0CF1020C96
:104AD00008BF4CEBD17C04E04FF0080C01E04FEA3A
:104AE000D17C0CEB4C0324FA03F404F00704B4F17A
:104AF000040C06D20EEB840CBDE810404CF0010C07
:104B00006047DFE80CF0070802024FF00040A0F514
:104B1000800010BD0846420018BFD2F1807288BFE5
:104B200000F0004010BDFF2141EAD050C0057047A1
:104B300090EA010F48BF81F000413FF5FCAD421AF9
:104B400004D882F00042A0EB020011444FEAD05298
:104B50004FF07F4C1CEA410FA2EBD15318BF9CEAE7
:104B6000026F4AD04FF0004C4CEA00204CEA012181
:104B700021FA03FCB0EB0C0C0FD412F0FE0F36D070
:104B80005FEA4C001DD5001240EBC25038BF7047A1
:104B90001CF03F0F18BF70470BE0A2F101025FEA63
:104BA0001C2040EBC25038BF70471CF07F0F18BF6D
:104BB0007047C3F12003994014BF401E20F001004C
:104BC000704780084FEA122308BF7047B0FA80FC94
:104BD000A2EB0C02CCF1280C60FA0CF093EA122F35
:104BE00004BF00EBC25070474FEAC3707047130A0E
:104BF0005FEADC1008BF7047F6E79CEA026F04D05A
:104C000010EA5C0F08BF0020704710B5FFF745FFA2
:104C100040DFF63E81F000407047FBF74DBD0CF0E1
:104C20000F03092B08BF082000F059800A2B0BD076
:104C3000082B18BF704708BF1CF0400F0AD04FF078
:104C400000004FF0000170471CF0400F18BF4FF0FC
:104C5000004070471CF0100F08D020F0704300F0A7
:104C60007F4242EAD3014FEA4370704700F0604050
:104C700021F07F4242EA000201F07F4040EA727078
:104C800070474FF0FF0C4CF4E06C1CEA11531CBF52
:104C90009CEA030C9445C2BFDA4201EB0251704713
:104CA000002B0DD0BCF1000F0FD0002A01F0004105
:104CB000A4BF41F0E04141F07F614FF00000704738
:104CC00001F000414FF00000704750EA01334FF00F
:104CD0009B0C18BF4CF0806C7EF4EEAF70471CF458
:104CE000801F11D01CF4E02F03D06FEACC314900B3
:104CF00070474FF04050EFF3008222F0704242EADA
:104D0000000282F3008870474FF0000070470000F7
:104D1000000000000000010203040607080900006B
:104D20000000010203040000000000000000F03F4A
:104D3000000000000000F83F00000000000000003C
:104D40000000004003B8E23F000000000000000047
:104D500006D0CF43EBFD4C3E033333333333E33FD5
:104D6000FFAB6FDBB66DDB3F4D268F515555D53F01
:104D700001411DA96074D13F65DBC9934A86CD3FCF
:104D8000EF4E454A287ECA3F3E5555555555C53FBD
:104D900093BDBE166CC166BF2CDE25AF6A56113FAF
:104DA000F16BD2C541BDBBBED0A4BE726937663EB1
:104DB00004FA97999999D93FAF788E1DC571CC3F68
:104DC0009FC678D0099AC33F935555555555E53F31
:104DD000599322942449D23FDE03CB966446C73FC1
:104DE00044523EDF12F1C23F00000000000000000C
:104DF00002400000000000A000000000054000008C
:104E0000000000C8000000000C4000000000409CB2
:104E100000000000194000000020BCBE000000009F
:104E200034400000BFC91B8E00000004B5400000E4
:104E3000504BCFD06607E2CF010000006C4100006C
:104E40003E8251AADFEEA73401000000D9420000E3
:104E5000DCB5A0E23A301F97FFFFFFFFB44500002A
:104E6000FD25A0C8E9A3C14FFFFFFFFFFF3F0000E2
:104E70000000008000000000FF3F000000000080F4
:104E800000000000C04E00080000002020000000CC
:104E90006C010008E04E000820000020E806000039
:104EA000880100081C00000043000000F8FFFFFF1D
:104EB0000C0000000E0000000F0000002E0000009B
:104EC0000100000010000000000000000024F400B9
:104ED0000000000000002041000000000000000071
:0400000508000131BD
:00000001FF
