:020000040800F2
:1000000060070020D50100085F1D00082B180008BC
:100010005D1D00084B050008011F000800000000DE
:10002000000000000000000000000000631D000848
:100030005905000800000000611D0008651D00084A
:10004000EF010008EF010008EF010008EF010008D0
:10005000EF010008EF010008EF010008EF010008C0
:10006000EF010008EF010008EF010008EF010008B0
:10007000EF010008EF010008EF010008EF010008A0
:10008000EF010008EF010008EF010008EF01000890
:10009000EF010008EF010008EF010008EF01000880
:1000A000EF010008EF010008EF010008EF01000870
:1000B000EF010008EF010008EF010008EF01000860
:1000C000EF010008EF010008EF010008EF01000850
:1000D000EF010008EF010008EF010008EF01000840
:1000E000EF010008EF010008EF010008EF01000830
:1000F000EF010008EF010008EF010008EF01000820
:10010000EF010008EF010008EF010008EF0100080F
:10011000EF010008EF010008EF010008EF010008FF
:10012000EF010008EF010008EF010008EF010008EF
:1001300000F002F800F03FF80AA090E8000C8244BA
:100140008344AAF10107DA4501D100F034F8AFF297
:10015000090EBAE80F0013F0010F18BFFB1A43F0A5
:1001600001031847E01F000000200000103A24BFE0
:1001700078C878C1FAD8520724BF30C830C144BF0C
:1001800004680C607047000000230024002500264E
:10019000103A28BF78C1FBD8520728BF30C148BFEA
:1001A0000B607047752900F08580002070471FB5EF
:1001B0001FBD10B510BD00F067F91146FFF7F7FF3E
:1001C00001F0B0FE00F085F903B4FFF7F2FF03BCC5
:1001D00000F088F90948804709480047FEE7FEE734
:1001E000FEE7FEE7FEE7FEE7FEE7FEE7FEE7FEE7E7
:1001F00004480549054A064B70470000E31D000806
:100200003101000860010020600700206003002029
:10021000600300200FB47CB50C0009AA009001D047
:100220002044401E084B7B4469460190089800F02A
:1002300006F905461CB10020694600F013F928466E
:100240007CBC5DF814FB0000450200002DE9F04184
:100250000E460446002020622046E168884730B3FD
:10026000252805D0D4E901219047206A401CF2E7F7
:10027000E168204600278847050018D0A5F1410015
:10028000192802D820354FF4006732462946204607
:100290002760FFF787FF40B1012804D0F61D26F044
:1002A00007060836D8E7361DD6E72846DAE7206A7B
:1002B000BDE8F0812DE9F04106460024106875295B
:1002C000314616A510D0AFF30080002802DA404274
:1002D00013A507E031688A0701D512A502E0490796
:1002E00004D511A5012401E0AFF3008000210A220A
:1002F00006F1240709E0B0FBF2FCB0FBF2F302FBCD
:100300001C00303078541846491C0028F3D123468D
:100310002A463046BDE8F04100F032B80000000047
:100320002D0000002B000000200000004FF0000214
:1003300000B5134694469646203922BFA0E80C50DB
:10034000A0E80C50B1F12001BFF4F7AF090728BFB6
:10035000A0E80C5048BF0CC05DF804EB890028BF32
:1003600040F8042B08BF704748BF20F8022B11F05B
:10037000804F18BF00F8012B7047704770477047D7
:100380002DE9F0470D4699469246044600F12408AF
:100390000168880604D5E06921F01001216000E0C1
:1003A0000120A84201DD471B00E00027A1697A195E
:1003B00002EB0900081AA0612078C00602D420468A
:1003C000AFF30080002608E0D4E901211AF8060006
:1003D0009047206A401C761C20624E45F4DB207852
:1003E000C0060AD52046AFF3008006E0D4E901211B
:1003F00030209047206A401C2062381EA7F1010778
:10040000F4DC07E0D4E9012118F805009047206AE0
:10041000401C2062281EA5F10105F3DC2046AFF345
:1004200000802078000602D50220BDE8F087012078
:10043000FBE7000001694A1C02610878704700B5BB
:100440008FB0CDE901310021059105497944CDE90D
:10045000031011466846FFF7F9FE0FB000BD00001B
:10046000E5FFFFFF0A6802F8010B0A607047D1E957
:1004700000239A4202D2531C0B6010707047000098
:1004800000487047FC0000207546FFF7F9FFAE46B4
:1004900005006946534620F00700854618B020B590
:1004A000FFF7A6FEBDE820404FF000064FF0000722
:1004B0004FF000084FF0000B21F00701AC46ACE80C
:1004C000C009ACE8C009ACE8C009ACE8C0098D4679
:1004D000704710B50446AFF300802046BDE81040D9
:1004E000FFF772BE01491820ABBEFEE726000200EE
:1004F0007047000070B5044600688168C943C907A9
:1005000017D1816821F00101816000F089FA054668
:100510000AE000BF00F084FA401B022804D92068DA
:100520008068C043C00706D020688068C043C00709
:10053000F0D0002070BDA06A40F01000A062E06A18
:1005400040F00100E062012070BDFEE7014A50600A
:10055000118070471C0000207047000006480168A9
:1005600041F080710160054800214160016841F05F
:100570000101016070470000FCED00E0001000E0A8
:1005800072B6FEE7F8B50024009490F824202546C2
:10059000012A12D0012280F824204A681F23072A4A
:1005A0000DD20668776B521E02EB820293409F4386
:1005B0000B6893401F43776319E00220F8BD06687B
:1005C0000D2A0AD2376BD21F02EB820293409F435F
:1005D0000B6893401F43376309E0F76A0D3A02EB5B
:1005E000820293409F430B6893401F43F7620A685F
:1005F000072306680A2A0AD3F7680A3A02EB42027E
:1006000093409F438B6893401F43F76008E037692E
:1006100002EB420293409F438B6893401F43376134
:100620000A68102A01D0112A20D1124B02689A427E
:1006300017D193681B0219D4936843F400039360A5
:100640000968102912D10C490C4A0968B1FBF2F172
:1006500001EB8101490000E0491E00910029FBD116
:1006600004E0816A41F020018162012480F8245075
:100670002046F8BD002401401000002040420F0039
:100680002DE9F04104004FF000057FD0A06A00265C
:1006900028B9E66284F82460204600F081F82046FC
:1006A000FFF728FFA16AC90600D420B1A06A40F074
:1006B0001000A0626AE0A16A21F4885141F00201B1
:1006C000A162334923688B42E16904D1B1F5402F1F
:1006D00001D14FF40021277B4FF4807C41EA47028F
:1006E00061680A43A168614508D0012906D000214C
:1006F00094F814E0BEF1010F02D00AE06146F7E77A
:10070000C7B1A76A47F02007A762E76A47F0010769
:10071000E7625F6827F469470F435F602368996861
:100720001C4F394011439960A16861450BD00129E4
:1007300009D00CE0DFF860E0A7690EEB47370F4304
:1007400047F40061E5E7218A0D05A5F580152168CC
:10075000CB6A23F470032B43CB62216889680F4B6B
:100760001940914208D1E662A16A21F0020141F0EC
:100770000101A162BDE8F081A06A20F0020040F012
:100780001000A062E06A40F00100E0620120F1E7A1
:10079000003C0140FDF7E1FF00E0FFFFFE0E1FFF00
:1007A00000B585B00021009101910291039100688C
:1007B0000E49884218D10E48816941F40071816167
:1007C000816901F400710491816941F01001816136
:1007D0008069694600F01000049001200090032019
:1007E0000190044800F01AF805B000BD0024014053
:1007F000001002400010014070B5044600F010F9EE
:100800000546601C02D004480078044400F008F952
:10081000401BA042FAD370BD040000202DE9F84F20
:10082000DFF8C891002409F1040A0AF1040B2346F9
:100830000F270BF1040ED1E00125A54006EA0502C1
:10084000AA4276D1DFF8A8C14E68A6EB0C0866452F
:100850002BD00DDC032E34D005DC36B3012E19D09D
:10086000022E2FD11BE0112E16D0122E2AD119E004
:10087000B8F5881F19D006DCB8F5803F15D0B8F55B
:10088000801F1FD111E0B8F5001F0ED0B8F5041F6E
:1008900018D10AE0CB6815E0CB681B1D12E0CB68CD
:1008A00008330FE0CB680C330CE08B682BB1012BC5
:1008B0004FF0080303D0456104E0042302E0056122
:1008C00000E00023FF2A01D8064601E000F10406FB
:1008D0004FEA840501D9A5F12005D6F8008007FA72
:1008E00005FC28EA0C0803FA05F548EA0508C6F8ED
:1008F00000804D68ED0070D53E4DAE6946F00106B2
:10090000AE61AD6924F0030605F0010500953A4D8E
:1009100006EB050CDCF80850A607360F07FA06F8B8
:1009200025EA0805DFF8D480404503D14FF00008E0
:1009300025E052E0DFF8C880404502D14FF00108C1
:100940001DE0DFF8C080404502D14FF0020816E0FC
:10095000DFF8B480404502D14FF003080FE0DFF824
:10096000AC80404502D14FF0040808E0DFF8A080D9
:10097000404502D14FF0050801E04FF0060808FAA3
:1009800006F848EA0508CCF808804D68D9F80060F8
:10099000ED034D4601D5164300E096432E604D68A9
:1009A000DAF80060AD03554601D5164300E09643E2
:1009B0002E604D68DBF80060ED025D4601D5164300
:1009C00000E096432E604D68DEF80060AD0275468B
:1009D00001D5164300E096432E60641C0A68164653
:1009E000E2407FF429AFBDE8F88F00000004014029
:1009F00000001110001002400000014000080140FA
:100A0000000C01400010014000140140001801409A
:100A1000001C01400AB1016170470904FBE70000B6
:100A200001488068704700000400002070B5040091
:100A300025D094F83D00002520B984F83C5020468C
:100A400000F070FA242084F83D002068016821F04D
:100A5000010101602068016841F4004101602068E3
:100A6000016821F40041016000F022FC4D4A6168F8
:100A7000914201D84C4900E04C49884201D2012002
:100A800070BD4B492368B0FBF1F15E6826F03F066C
:100A90000E435E606368934206D94FF496735943E0
:100AA0004FF47A73B1FBF3F12368491C1E6A26F0F8
:100AB0003F06314319626168914210D84900401ED7
:100AC000B0FBF1F2521CC2F30B02042A01D2042043
:100AD00022E0B0FBF1F0401CC0F30B001CE0A26868
:100AE000F2B301EBC10303EB0116431EB3FBF6F3B4
:100AF0005B1C43F480431B0549D092B301EBC10258
:100B000002EB0111401EB0FBF1F0401CC0F30B00E2
:100B100040F4804040F400402168CA694CF6FF73FD
:100B20009A431043C861D4E9071001432068026862
:100B300022F0C00211430160D4E90301014320689F
:100B4000826848F2FF339A4311438160D4E905017A
:100B500008432168CA6822F0FF021043C86001E020
:100B60000EE016E02068016841F001010160256493
:100B7000202084F83D00256384F83E50002070BD9D
:100B800001EB4106431EB3FBF6F35B1CB3E7012008
:100B9000C2E701EB4101401EB0FBF1F0401CC0F385
:100BA0000B00B7E7A086010080841E0000093D000D
:100BB00040420F002DE9F84F0025DDF828909846B7
:100BC00017468A4604460095FFF72AFF064694F822
:100BD0003D0020287AD1192301228349204600961E
:100BE00000F026FF0028F5D194F83C0001286DD0D4
:100BF000012084F83C0020680168C90703D101681E
:100C000041F0010101602068016821F40061016088
:100C1000222084F83D00102084F83E00256467629D
:100C2000A4F82A80608D20857048E06233464A46E9
:100C30005146204600F012FE00287DD1208DDFF8BD
:100C4000B081202768B1012814D0022820680168EB
:100C50001ED041F480610160206841698069009084
:100C6000B5E02068416981690091016841F4007133
:100C70000160ACE02068016821F48061016072B617
:100C80002068416981690091016841F400710AE0BE
:100C900041F40061016072B6206841698169009188
:100CA000016821F48061016062B690E0032868D891
:100CB00001280CD002284B464FF000024146204646
:100CC00000960FD000F0B4FEB0BB10E08AE03246D0
:100CD0004946204600F02BFF70BB20680069616A1E
:100CE00008706BE000F0A4FE30BB72B634E0206800
:100CF000016821F48061016072B620680069616A50
:100D00000870606A401C6062208D401E2085608DE6
:100D1000401E6085374846F2A8110068B0FBF1F02C
:100D2000C0EBC00000EB80000090401E009008D097
:100D300020684069C04300E029E040070CD50098D6
:100D4000F3E744F8305F6773A573206940F0200033
:100D5000206162B625731AE02068016841F40071D1
:100D6000016020680069616A0870606A401C606206
:100D7000218D491E2185618D491E618562B62168DC
:100D80001AE032464946204600F0D1FE10B101205B
:100D9000BDE8F88F20680069616A0870606A401CCD
:100DA0006062218D491E2185618D491E6185216802
:100DB0004A69D24352070AD409690170606A401C2B
:100DC0006062208D401E2085608D401E6085208DD4
:100DD00000287FF46BAF84F83D7084F83E5084F8AF
:100DE0003C50D5E70220D3E7020010000000FFFFCF
:100DF00004000100100000202DE9F84F1F46904626
:100E00008A460446DDF82890FFF70AFE054694F866
:100E10003D0020287FD1192301224049204600951A
:100E200000F006FE002876D194F83C00012872D02C
:100E3000012084F83C0020680168C90703D10168DB
:100E400041F0010101602068016821F40061016046
:100E5000212084F83D00102084F83E0000262664FE
:100E6000C4F824806785608D20852D48E0622B467C
:100E70004A465146204600F067FD90B92068416916
:100E80008069009036E02A464946204600F082FEFE
:100E900050B1206C042804D12068016841F400712D
:100EA00001600120BDE8F88F606A21680078086160
:100EB000606A401C6062618D491E6185218D491EFA
:100EC00089B2218522685369DB435B070BD451B19A
:100ED00000781061606A401C6062608D401E608511
:100EE000208D401E20852A464946204600F07AFD86
:100EF0000028CED1208D0028C5D154F83D0B0168C3
:100F000041F400710160202004F81E09E67766773D
:100F10000020C7E7FFE70220C4E70000020010003E
:100F20000000FFFF10B586B00021009101910291F1
:100F300003910068104988421BD1104CA06940F011
:100F40000800A061A069694600F0080004904FF411
:100F50004060009012200190032003900848FFF7A2
:100F60005DFCE06940F48000E061E06900F480002D
:100F7000049006B010BD0000005800400010024070
:100F8000000C01400248816802781144816070477A
:100F900004000020074810B5016841F0100101600D
:100FA000032000F067F80F2000F006F800F024F8A6
:100FB000002010BD0020024070B50D4D04464FF4D6
:100FC0007A712878B1FBF0F00A490968B1FBF0F0BA
:100FD00000F054FB48B9102C07D200222146501EC5
:100FE00000F028F800206C6070BD012070BD00008A
:100FF00004000020100000200C4808B5816941F071
:1010000001018161816901F001010091C16941F033
:101010008051C161C06900F080500090044841686F
:1010200021F0E06141F00071416008BD0010024014
:1010300000000140F0B40E4B1B680C46C3F30223C2
:10104000C3F10705042D00D90425191D072901D274
:10105000002300E0DB1E012606FA05F1491E2140AF
:1010600099409E40761E16403143F0BC00F049BFC7
:101070000CED00E0064900F0070208684FF6FF0398
:10108000184040EA0220034A1043086070470000FD
:101090000CED00E00000FA052DE9F8430546007864
:1010A000354CC00754D0E0690026C00008D4E06980
:1010B00040F08050E061E069012600F0805000902F
:1010C0002E480168C90512D40168804641F4807138
:1010D0000160FFF7A5FC074605E000BFFFF7A0FC95
:1010E000C01B642823D8D8F80000C005F6D5206AB4
:1010F00010F4407021D0A98801F4407181421CD0C5
:10110000206A1F49012220F440700A6000220A6010
:101110002062C00711D0FFF783FC074641F28838F0
:1011200008E000BFFFF77CFCC11B414502D903204A
:10113000BDE8F883206A8007F4D5206A696820F446
:101140004070084320621EB1E06920F08050E061E9
:101150002878800705D56068A96820F440400843D6
:1011600060602878C00605D56068696920F4800051
:10117000084360600020DBE7001002400070004080
:10118000400442422DE9F0470F46050061D0434E2E
:10119000306800F00700B84209D2306820F007003C
:1011A00038433060306800F00700B84251D12868F9
:1011B0003B4C810712D5400703D5606840F4E060DE
:1011C00060602878000703D5606840F46050606074
:1011D0006068A96820F0F000084360602878C007C4
:1011E00028D06868012810D02168022810D089070B
:1011F00000292EDA616821F0030101436160FFF7E5
:101200000FFC804641F288390DE021688903EFE741
:101210008901EDE7FFF704FCA0EB0801494502D97D
:101220000320BDE8F0876068696800F00C00B0EB4F
:10123000810FEFD1306800F00700B8420BD9306859
:1012400020F0070038433060306800F00700B842F3
:1012500001D00120E5E72878400705D56068E968F6
:1012600020F4E060084360602878000706D56068D5
:10127000296920F4605040EAC100606000F038F84D
:101280006168084AC1F30311515CC840064908600F
:1012900006480068FFF790FE0020C2E700200240E9
:1012A000001002402C21000810000020080000203F
:1012B0000448054900684968044AC1F30221515CA9
:1012C000C840704710000020001002403C21000878
:1012D0000448054900684968044AC1F3C221515CC9
:1012E000C840704710000020001002403C21000858
:1012F00012A185B00FC98DE80F0014A0144A006830
:1013000004905168134801F00C03042B10D0082BF3
:101310000ED1C1F38343C9031DF803000AD55168F8
:1013200004AAC1F34041515C0A4A5043B0FBF1F0BA
:1013300005B0704708494843FAE700000203040576
:10134000060708090A0B0C0D0E0F10100102000011
:101350000010024000127A0000093D002DE9F84F0C
:10136000040070D02078C04DC00749D06868C0F331
:101370008100012807D06868C0F38100022809D1E4
:101380006868C00306D52868800339D560680028DE
:10139000E7D035E06068B0F5803F0BD010B1B0F514
:1013A000A02F11D0286820F480302860286820F40D
:1013B000802002E0286840F480302860606890B1A6
:1013C000FFF72EFB06460AE0286840F480202860DC
:1013D000F0E700BFFFF724FB801B642873D8286860
:1013E0008003F7D50CE0FFF71BFB064605E000BFC6
:1013F000FFF716FB801B6428F0D828688003F7D419
:1014000020789A4E80074FF001094FF0000839D537
:10141000686810F00C0F07D06868C0F381000228DC
:1014200009D16868C00306D42868800714D52069EC
:10143000012808D110E02069B0B1C6F80090FFF78C
:10144000EFFA074605E00AE1FFF7EAFAC01B0228B7
:10145000C4D828688007F7D52868616920F0F800AB
:1014600040EAC10028600DE0C6F80080FFF7D8FA16
:10147000074604E0FFF7D4FAC01B022823D82868E7
:101480008007F7D4207800072CD57948A169D9B115
:10149000C0F80090FFF7C4FA074604E0FFF7C0FA6F
:1014A000C01B02280FD8686A8007F7D571484FF42F
:1014B000FA510068B0FBF1F0009000BF0098411EA7
:1014C0000091FAD20EE080E0C0F80080FFF7A8FAA1
:1014D000074604E0FFF7A4FAC01B022875D8686A23
:1014E0008007F7D42078400760D5E8690027C0005E
:1014F00008D4E86940F08050E861E869012700F00D
:10150000805000905C480168C90513D40168834687
:1015100041F480710160FFF783FA824606E000BF64
:10152000FFF77EFAA0EB0A0064284ED8DBF8000033
:10153000C005F5D5E06801280AD008B1052813D008
:10154000286A20F001002862286A20F0040002E0E6
:10155000286A40F001002862E06841F2883B98B1B7
:10156000FFF75EFA82460BE0286A40F0040028622A
:10157000EEE700BFFFF754FAA0EB0A0159455AD82D
:10158000286A8007F6D50CE0FFF74AFA824605E0A4
:10159000FFF746FAA0EB0A0159454CD8286A8007A4
:1015A000F6D41FB1E86920F08050E861E06988B3A3
:1015B0006968C1F38101022944D00228C6F860801D
:1015C00004D0FFF72DFA044638E034E0FFF728FA9C
:1015D000074604E0FFF724FAC01B02282BD828682E
:1015E0008001F7D4206AB0F5803F05D16868A16812
:1015F00020F4003008436860D4E9080108436968B2
:1016000021F4741108436860C6F86090FFF708FA87
:10161000044606E025E000BFFFF702FA001B02289F
:1016200009D828688001F7D51BE000BFFFF7F8F95B
:10163000001B022802D90320BDE8F88F286880012A
:10164000F4D40EE00128F7D06868226A00F48031F3
:10165000914204D1616A00F47010884201D00120E7
:10166000EAE70020E8E700000010024000004242E4
:1016700080044242100000200070004010B5401E5F
:10168000B0F1807F01D3012010BD4FF0E0246061F4
:101690000F21601700F035FC0020A06107202061B9
:1016A000002010BD70B5040004D094F83D00002562
:1016B00010B106E0012070BD84F83C50204600F0D7
:1016C00023F8242084F83D002068C16821F40051EB
:1016D000C160204600F086FB2068016921F490413A
:1016E00001612068416921F02A0141612068C168D7
:1016F00041F40051C1602564202084F83D0084F845
:101700003E00002070BD000030B585B0002400947C
:1017100001940294039400681449884224D1144827
:10172000816941F480418161816901F480410491C2
:10173000816941F00401816180690E4D00F004006F
:1017400004904FF400700090022001900320039059
:1017500069462846FFF762F82815CDE90004694676
:1017600028460294FFF75AF805B030BD0038014012
:1017700000100240000801402DE9F843044690F8AB
:101780003D001F4616460D4620284CD1C5B1BEB1BE
:1017900094F83C00012846D0012084F83C004FF02A
:1017A0000008C4F84080212084F83D00FFF738F994
:1017B000A6848146E684A068B0F5805F03D004E08B
:1017C0000120BDE8F883206928B12E465FF00005AE
:1017D00084F83C800EE00026FAE78021204600F0E5
:1017E0005DFBA0B9AEB116F8010B21684860E08C32
:1017F000401EE084E08C4B464FF00002009700282A
:10180000EBD14FF04001204600F048FB30B10320FF
:10181000D7E735F8020BC0F30800E6E7202084F88C
:101820003D000020CDE70220CBE7FEE701684A69D2
:10183000D24352050FD46FF480624A61002140F810
:10184000301F202242738173026942F00402026158
:101850000173012070470020704700002DE9F84F08
:101860000446C06A1E4693460D4621680A6842F443
:1018700080620A60082807D0012805D010F5803F53
:1018800002D0206B112804D12068016841F48071D6
:1018900001604FF001195B46002249462046009640
:1018A00000F0C6F84FF4007840B120680068C00529
:1018B00001D5C4F840800320BDE8F88F2069DFF827
:1018C00084A0B0F5804F0FD00620216800EAD5171C
:1018D00047F0F000086133465A460AF106012046F7
:1018E00000F0DAF858BB03E0E8B240F001001CE079
:1018F0002168E8B2086133465A465146204600F056
:10190000CBF8E0B92068416981690091016841F430
:10191000807101605B46002249462046009600F037
:1019200087F80028C1D147F0F100216808613346EB
:101930005A465146204600F0AFF80028BCD001209E
:10194000BAE7000002000100F8B50446C06A1E466E
:101950000D461746082807D0012805D010F5803F0E
:1019600002D0206B122804D12068016841F48071F4
:101970000160134600224FF001112046009600F04E
:1019800057F840B120680068C00502D54FF40070D8
:1019900020640320F8BD2069B0F5804F0ED00620EA
:1019A000216800EAD51040F0F000086133463A465D
:1019B0000B49204600F070F878B902E005F0FE000F
:1019C00000E0E8B221680861054933463A46891FBC
:1019D000204600F061F80028DCD00120F8BD0000AE
:1019E0000800010070B516460D4604460DE020467D
:1019F000FFF71CFF08B1012070BD681C05D0FFF780
:101A00000FF8801BA84207D835B120684069C04351
:101A10004007ECD4002070BD002044F8300F202196
:101A20006173A073216941F0200121612073E2E715
:101A30002DE9F0471E4690460D460446C1F3074780
:101A4000DDF8209008E0701C06D0FEF7E9FFA0EB5F
:101A50000900B0420FD876B12068012F18D08069F4
:101A600025EA00000004000C14D000214145EAD012
:101A70000020BDE8F087002044F8300F202161737A
:101A8000A073216941F02001216120730120F0E75A
:101A90004069E5E70121E9E72DE9F0479A469146DB
:101AA0000E46044600254FF02008C1F3074725E005
:101AB00020684069C043400514D42068016841F49F
:101AC0000071016021686FF480604861256384F8CB
:101AD0003D8084F83E50206C40F00400206484F87F
:101AE0003C501FE0B9F1FF3F08D0FEF799FFA0EB93
:101AF0000A0149450CD8B9F1000F09D02068012F1F
:101B000013D0806926EA00000004000C0BD0CFE758
:101B100044F8305F84F80D80A573206940F0200000
:101B2000206125730120BDE8F0874069EAE72DE9CF
:101B3000F041002590460E460446202717E04069F4
:101B4000C043C0060CD454F8301B6FF0100048613D
:101B500044F810596777A577206A2062257717E047
:101B6000FEF75EFFA0EB0800B04208D83EB1206847
:101B70004169C9434906E2D40020BDE8F08144F838
:101B8000305F6773A573206940F0200020612573E2
:101B90000120F2E770B516460D4604460DE02046DA
:101BA000FFF744FE08B1012070BD681C05D0FEF7A8
:101BB00037FF801BA84207D835B120684069C04371
:101BC0000006ECD4002070BD002044F8300F202126
:101BD0006173A073216941F0200121612073E2E764
:101BE0000249086002490020087370471400002071
:101BF000EC0000203EB500211148009101910F4AF0
:101C00000291026081600173017501244FF460222A
:101C10000461C2614160FEF733FD08B1FEF7B0FC1C
:101C20000A20CDE900040720029069460448FEF727
:101C3000A9FC002801D0FEF7A3FC3EBD0024014012
:101C4000240000202DE9F04186B000200090019092
:101C5000029003902048816941F0400181618169CF
:101C600001F040010491816941F0100181618169B5
:101C700001F010010491816941F0080181618169DD
:101C800001F008010491816941F0040181618069DA
:101C9000124F00F004000490012208213846FEF79C
:101CA000B9FEDFF83C80012202214046FEF7B2FE79
:101CB00008201124012503268DE871006946384665
:101CC000FEF7ACFD02208DE8710069464046FEF744
:101CD000A5FD06B0BDE8F0810010024000180140EB
:101CE000001001400D4810B50B4901600C494160DE
:101CF00000214FF480428160C0E90312416181619B
:101D0000C1610162FEF792FE002803D0BDE81040D9
:101D1000FEF736BC10BD0000005800405400002003
:101D2000A08601000C4810B50A4901604FF4E1316A
:101D30004160002181600C22C160C0E90412816110
:101D4000C161FFF7AFFC002803D0BDE81040FEF7EB
:101D500017BC10BD00380140A8000020FEE7FEE7D8
:101D600070477047FFF70EB930B595B02821684627
:101D7000FEF7DCFA14210AA8FEF7D8FA18210FA8FA
:101D8000FEF7D4FA01210804CDE9001000250295E0
:101D900002240491CDE907404FF4E0100990684611
:101DA000FFF7DCFA08B172B6FEE70AA90F2081E856
:101DB00031004FF48060CDE90D0502210AA8FFF73C
:101DC000E1F908B172B6FEE74FF4004011900F94AC
:101DD0000FA8FFF761F9002801D072B6FEE715B031
:101DE00030BD704770B5044600680169E26821F4AF
:101DF0004051114301612169A068084361690843AA
:101E00002168CA6841F20C639A430243CA602068A1
:101E10004169A26921F44071114341611E49206862
:101E2000884202D1FFF754FA01E0FFF741FA00EBD4
:101E3000C00101EB0012606864218000B2FBF0F386
:101E4000B3FBF1F36FF018067343B2FBF0F5B2FB8E
:101E5000F0F605EB8305322303EB0515B5FBF1F531
:101E6000B6FBF1F605F0F00505EB0615B2FBF0F652
:101E7000B2FBF0F0B0FBF1F06FF01802504306EB4C
:101E8000800003EB0010B0FBF1F0216800F00F00C0
:101E90002844886070BD0000003801402DE9F04101
:101EA000984617460E460446069D1DE0681C1BD04A
:101EB0002DB1FEF7B5FDA0EB0800A84214D92068AB
:101EC000C16821F4D071C1602068416921F001012D
:101ED0004161202084F83D0084F83E00002084F811
:101EE0003C000320BDE8F0812068006836EA00006D
:101EF00004D00020B842D9D00020F3E70120F9E750
:101F0000FEE70907090E002804DB00F1E02080F855
:101F10000014704700F00F0000F1E02080F8141D5D
:101F20007047000092B0FFF735F8FFF71DFFFEF78E
:101F300015FBFFF787FEFFF7F5FEFFF75BFEFFF7E8
:101F4000D1FE08211B48FEF701FB1B48FFF748FEA6
:101F50001A4800F085F86423202219A12348FFF7CE
:101F60000BFC234C4FF4FA65FEF75AFD2168401A2A
:101F7000A8420CD910A800F09DF860B16423132288
:101F80001CA11A48FFF7F8FBFEF74AFD206028461F
:101F9000FEF732FCE8E7BDF840000090BDF84230A3
:101FA0001AA23C2101A8FEF735F982B2642301A9E7
:101FB000E7E7000000180140240000205400002042
:101FC0005347503330E5889DE5A78BE58C96E5AE09
:101FD0008CE68890EFBC8CE7AD89E5BE85E9A284EC
:101FE000E783AD2E2E2E0D0A00000000A800002071
:101FF00000000020534750333020E8AFBBE58F96F8
:10200000E99499E8AFAF210D0A00000054564F4300
:102010003A202575207070622C20434F3265713A4A
:102020002025752070706D0D0A00000070B5044603
:10203000FF20002231250FE0A35C5840082306064C
:1020400002D585EA400000E040005B1EC0B213F0FC
:10205000FF03F4D1521CD2B28A42EDD370BD00000E
:102060001CB50BA10223096801916421009101AA0A
:10207000B021FEF7C1FE30B106A1642314220C4842
:10208000FFF77AFB1CBD1420FEF7B6FB1CBD000059
:1020900020030000534750333020E5889DE5A78B8F
:1020A000E58C96E5A4B1E8B4A5210D0A0000000076
:1020B000A80000207FB504461AA06425006803909C
:1020C000022303AAB02100951748FEF795FE30BB06
:1020D0001920FEF791FB062301AAB12112480095B1
:1020E000FEF768FDD8B9022101A8FFF79FFF9DF810
:1020F0000610814213D1BDF80400022140BA2080AD
:102100000DF10700FFF792FF9DF80910814206D1FB
:10211000BDF8070040BA6080002004B070BD012007
:10212000FBE7000020080000540000200000000031
:102130000000000001020304060708090000000077
:1021400001020304642100080000002024000000B4
:102150006C01000888210008240000203C070000D2
:1021600088010008000000000100000010000000CD
:10217000000000000024F4000000000000002041E6
:08218000000000000000000057
:0400000508000131BD
:00000001FF
